:100000007FC000009BC0000098C0000096C00000A8
:1000100094C0000092C0000054C60000F8C5000063
:1000200023C60000C7C5000088C0000086C00000CD
:1000300084C00000E9C6000080C0000013C70000B3
:1000400089C000007AC0000078C0000076C00000BF
:1000500074C0000072C0000070C000006EC00000DC
:100060006CC000006AC0000068C0000066C00000EC
:1000700064C0000062C0000060C000005EC00000FC
:100080005CC000005AC0000058C000000502150204
:100090002502350245025502680285029702A9022F
:1000A000BB02CC02DD02F1020F0320033103420345
:1000B000540366037C03B603C203CE03DA03E603EC
:1000C000F203FF03180426043404420450045E04BF
:1000D0006E048E049804A204AC04B604C004CC04DC
:1000E000E104E304E504E704E904EB04ED04EF04B0
:1000F000FB041F0541054D05590573058D05A70531
:1001000011241FBECFEFD0E1DEBFCDBF11E0A0E0D4
:10011000B1E0EAE1FFE000E00BBF02C007900D9202
:10012000A034B107D9F721E0A0E4B1E001C01D92ED
:10013000AA34B207E1F74FD1EEC662CF1F920F92F9
:100140000FB60F921124109200010F900FBE0F9066
:100150001F9018951F920F920FB60F9211240BB695
:100160000F922F933F934F935F936F937F938F9350
:100170009F93AF93BF93EF93FF9380914001909132
:10018000410101969093410180934001803D93404D
:1001900030F080E0B3D31092410110924001FF9102
:1001A000EF91BF91AF919F918F917F916F915F91EF
:1001B0004F913F912F910F900BBE0F900FBE0F905C
:1001C0001F901895AFD213D086D060E08FE006D193
:1001D000D9D480E0EDD340E060E072EC81E090E0C3
:1001E0009DD545E051E060E080E0CFC008959AD20F
:1001F00060E08DE0F3D060E088E0F0D060E08AE07D
:10020000EDD060E089E0EAD060E08CE0E7D061E02A
:100210008DE09AD260E088E097D260E08AE094D2E4
:1002200060E089E091C20F931F93CF93DF93C0E00A
:10023000D0E0082F10E0C8010C2E01C0880F0A94EE
:10024000EAF787FF02C061E001C060E08AE07CD28B
:1002500061E089E079D285E38A95F1F7000060E0FA
:1002600089E072D22196C830D10529F7DF91CF916C
:100270001F910F910895CF93C82F61E088E064D259
:1002800088EFD1DF8C2F807FCEDF8C2F8295807F0F
:10029000CADF8FE891E00197F1F700C0000060E04D
:1002A00088E0CF9151C2CF93C82F61E088E04CD253
:1002B0008AEFB9DF8C2F807FB6DF8C2F8295807F0D
:1002C000B2DF8FE891E00197F1F700C0000060E035
:1002D00088E0CF9139C22FEF87EE93E02150804024
:1002E0009040E1F700C0000061E08DE02DD22FEFDB
:1002F00086E791E0215080409040E1F700C0000087
:1003000061E08DE021D22FEF80E792E02150804024
:100310009040E1F700C0000080E3ADDF8FE99FE08F
:100320000197F1F700C0000080E3A5DF8FE99FE0AF
:100330000197F1F700C0000088E09DDF8FE99FE0A2
:100340000197F1F700C0000081E095DF8FE39CE9A1
:100350000197F1F700C0000086E08DDF8FE99FE094
:100360000197F1F700C000008CE085DF8FE99FE086
:100370000197F1F700C0000082E07DDF8FE99FE088
:100380000197F1F700C0000008950F931F93CF93DA
:100390008A01813041F068F0823041F0833049F4C5
:1003A000862F886908C0862F806905C0862F8868D7
:1003B00002C0862F80685FDFC0E0F801EC0FF11DFE
:1003C0008081882319F06FDFCF5FF7CF1082CF9144
:1003D0001F910F910895F6DE09DFFECFE82FE69515
:1003E000E695E6958770613009F485C020F06230AB
:1003F00009F40BC108954E2F50E04730510508F025
:1004000090C1FA01EA5BFF4F7DC54AB321E030E0BD
:10041000B90102C0660F771F8A95E2F7CB01942FCE
:10042000982B9ABB9BB380957FC047B321E030E007
:10043000B90102C0660F771F8A95E2F7CB01942FAE
:10044000982B97BB98B3809581C044B321E030E0EE
:10045000B90102C0660F771F8A95E2F7CB01942F8E
:10046000982B94BB95B3809583C041B321E030E0D5
:10047000B90102C0660F771F8A95E2F7CB01942F6E
:10048000982B91BB92B3809585C042B121E030E0BA
:10049000B90102C0660F771F8A95E2F7CB01942F4E
:1004A000982B92B993B1809586C04091610021E06C
:1004B00030E0B90102C0660F771F8A95E2F7CB01E1
:1004C000942F982B9093610090916200809587C043
:1004D0004091640021E030E0B90102C0660F771F4F
:1004E0008A95E2F7CB01942F982B9093640090911A
:1004F0006500809588C04E2F50E04730510508F0C8
:1005000010C1FA01E35BFF4FFDC44AB321E030E0C4
:10051000B90102C0660F771F8A95E2F7CB0180957B
:10052000942F98239ABB9BB389238BBB089547B321
:1005300021E030E0B90102C0660F771F8A95E2F72B
:10054000CB018095942F982397BB98B3892388BBC0
:10055000089544B321E030E0B90102C0660F771F6F
:100560008A95E2F7CB018095942F982394BB95B39D
:10057000892385BB089541B321E030E0B90102C071
:10058000660F771F8A95E2F7CB018095942F982309
:1005900091BB92B3892386C042B121E030E0B9011A
:1005A00002C0660F771F8A95E2F7CB018095942FE2
:1005B000982392B993B1892387C04091610021E0CB
:1005C00030E0B90102C0660F771F8A95E2F7CB01D0
:1005D0008095942F982390936100909162008923D5
:1005E00088C04091640021E030E0B90102C0660F8C
:1005F000771F8A95E2F7CB018095942F98239093EB
:1006000064009091650089238AC04E2F50E04730E6
:10061000510508F086C0FA01EC5AFF4F73C44AB383
:1006200021E030E0B90102C0660F771F8A95E2F73A
:10063000CB01962F909594239ABB9BB3892B75CFB2
:1006400047B321E030E0B90102C0660F771F8A95F9
:10065000E2F7CB01962F9095942397BB98B3892B03
:1006600076CF44B321E030E0B90102C0660F771FB6
:100670008A95E2F7CB01962F9095942394BB95B37E
:10068000892B77CF41B321E030E0B90102C0660F7A
:10069000771F8A95E2F7CB01962F9095942391BB13
:1006A00092B3892B82BB089542B121E030E0B901B9
:1006B00002C0660F771F8A95E2F7CB01962F9095BF
:1006C000942392B993B1892B83B908954091610025
:1006D00021E030E0B90102C0660F771F8A95E2F78A
:1006E000CB01962F90959423909361009091620096
:1006F000892B8093620008954091640021E030E0EE
:10070000B90102C0660F771F8A95E2F7CB01962FD9
:10071000909594239093640090916500892B809329
:10072000650008950F931F93CF930DE011E0C0E093
:10073000F80161918F018C2F51DECF5FC233C1F779
:10074000CF911F910F910895E82FE695E695E695D4
:100750008770613009F060C04E2F50E0473051057E
:1007600008F0CBC0FA01E55AFF4FCCC34BB321E0F0
:1007700030E0B90102C0660F771F8A95E2F7CB011E
:10078000842B62C048B321E030E0B90102C0660F9B
:10079000771F8A95E2F7CB01842B64C045B321E033
:1007A00030E0B90102C0660F771F8A95E2F7CB01EE
:1007B000842B66C042B321E030E0B90102C0660F6D
:1007C000771F8A95E2F7CB01842B68C043B121E003
:1007D00030E0B90102C0660F771F8A95E2F7CB01BE
:1007E000842B6AC04091620021E030E0B90102C070
:1007F000660F771F8A95E2F7CB01842B6CC040917E
:10080000650021E030E0B90102C0660F771F8A95CC
:10081000E2F7CB01842B6FC061116FC04E2F50E007
:100820004730510508F069C0FA01EE59FF4F6AC31D
:100830004BB321E030E0B90102C0660F771F8A9503
:10084000E2F7CB01809584238BBB089548B321E068
:1008500030E0B90102C0660F771F8A95E2F7CB013D
:100860008095842388BB089545B321E030E0B90129
:1008700002C0660F771F8A95E2F7CB01809584232B
:1008800085BB089542B321E030E0B90102C0660F94
:10089000771F8A95E2F7CB018095842382BB089568
:1008A00043B121E030E0B90102C0660F771F8A959D
:1008B000E2F7CB018095842383B9089540916200CB
:1008C00021E030E0B90102C0660F771F8A95E2F798
:1008D000CB01809584238093620008954091650048
:1008E00021E030E0B90102C0660F771F8A95E2F778
:1008F000CB0180958423809365000895282F27706D
:10090000E82FE695E695E6958E2F90E087309105E5
:1009100008F04DC0FC01E759FF4FF4C23BB381E042
:1009200090E001C0880F2A95EAF783278BBB0895D2
:1009300038B381E090E001C0880F2A95EAF7832759
:1009400088BB089535B381E090E001C0880F2A95F7
:10095000EAF7832785BB089532B381E090E001C0B8
:10096000880F2A95EAF7832782BB089533B181E087
:1009700090E001C0880F2A95EAF7832783B908958C
:100980003091620081E090E001C0880F2A95EAF77B
:1009900083278093620008953091650081E090E0A4
:1009A00001C0880F2A95EAF7832780936500089590
:1009B00090E088309105A8F4FC01E059FF4F89B719
:1009C000A1C281600DC082600BC0846009C08860D4
:1009D00007C0806105C0806203C0806401C0806878
:1009E00089BF089590E08830910508F0CAC0FC01E5
:1009F000E858FF4F87C2613051F028F0623091F023
:100A00006330A1F0089580916A008E7F03C08091C9
:100A10006A00816080936A0080916A008D7F809374
:100A20006A00089580916A008E7F03C080916A00F9
:100A3000816080936A0080916A008260F0CF6130AB
:100A400051F028F0623081F0633091F00895809188
:100A50006A008B7F03C080916A00846080936A0083
:100A600080916A00877FDBCF80916A008B7F03C013
:100A700080916A00846080936A0080916A00886037
:100A8000CECF613009F454C008F44FC0623009F48D
:100A900055C0633009F455C00895613009F462C04F
:100AA00008F45DC0623009F463C0633009F463C0C8
:100AB0000895613049F028F0623061F0633069F0E8
:100AC00008958AB78E7F02C08AB781608ABF8AB7CD
:100AD0008D7F56C08AB78E7F02C08AB781608ABF79
:100AE0008AB782604DC0613049F028F0623061F011
:100AF000633069F008958AB78B7F02C08AB784603B
:100B00008ABF8AB7877F3CC08AB78B7F02C08AB70B
:100B100084608ABF8AB7886033C0613049F028F0AA
:100B2000623061F0633069F008958AB78F7E02C049
:100B30008AB780618ABF8AB78F7D22C08AB78F7ECD
:100B400002C08AB780618ABF8AB7806219C06130EB
:100B500049F028F0623061F0633069F008958AB797
:100B60008F7B02C08AB780648ABF8AB78F7708C03C
:100B70008AB78F7B02C08AB780648ABF8AB78068D1
:100B80008ABF089562E080E02DDF62E081E02ADF25
:100B900062E082E027DF62E083E024DF63E084E05C
:100BA00021DF63E085E01EDF63E086E01BDF63E0BA
:100BB00087E018CF1F920F920FB60F9211240BB639
:100BC0000F922F933F934F935F936F937F938F93E6
:100BD0009F93AF93BF93EF93FF93E0914801F09100
:100BE0004901309709F00995FF91EF91BF91AF91BD
:100BF0009F918F917F916F915F914F913F912F9135
:100C00000F900BBE0F900FBE0F901F9018951F9264
:100C10000F920FB60F9211240BB60F922F933F93A2
:100C20004F935F936F937F938F939F93AF93BF93F4
:100C3000EF93FF93E0914601F0914701309709F05F
:100C40000995FF91EF91BF91AF919F918F917F9106
:100C50006F915F914F913F912F910F900BBE0F902D
:100C60000FBE0F901F9018951F920F920FB60F9204
:100C700011240BB60F922F933F934F935F936F9373
:100C80007F938F939F93AF93BF93EF93FF93E091E5
:100C90004401F0914501309709F00995FF91EF91DA
:100CA000BF91AF919F918F917F916F915F914F9184
:100CB0003F912F910F900BBE0F900FBE0F901F9082
:100CC00018951F920F920FB60F9211240BB60F9228
:100CD0002F933F934F935F936F937F938F939F9344
:100CE000AF93BF93EF93FF93E0914201F0914301E3
:100CF000309709F00995FF91EF91BF91AF919F91C6
:100D00008F917F916F915F914F913F912F910F90B4
:100D10000BBE0F900FBE0F901F9018951F93CF938F
:100D2000DF93142F9B01AC0183E0220F331F441F7C
:100D3000551F8A95D1F760E074E284EF90E0C0D04F
:100D4000E9012197111127C061E080E247DB60E0F3
:100D500081E244DBD0939000C9B982E08BB98091E5
:100D600095008F7D80939500809195008F7E809374
:100D7000950080919500877F8093950080919500E4
:100D800084608093950080919500826080939500A7
:100D9000539A549A35C0113099F561E08AE11EDB0F
:100DA00060E08BE11BDBD0939800C093990082E058
:100DB00080939B0080919D008F7D80939D0080910A
:100DC0009D008F7E80939D0080919D00877F809302
:100DD0009D0080919D00846080939D0080919D0086
:100DE000826080939D0086E080939D0080919A00B0
:100DF000886080939A0080919A00806180939A0025
:100E0000DF91CF911F9108951F920F920FB60F920D
:100E100011240BB60F922F933F934F935F936F93D1
:100E20007F938F939F93AF93BF93EF93FF93E09143
:100E30000301F0910401E230F10509F00995FF91F9
:100E4000EF91BF91AF919F918F917F916F915F9142
:100E50004F913F912F910F900BBE0F900FBE0F90AF
:100E60001F9018951F920F920FB60F9211240BB678
:100E70000F922F933F934F935F936F937F938F9333
:100E80009F93AF93BF93EF93FF93E0910101F09194
:100E90000201E230F10509F00995FF91EF91BF9150
:100EA000AF919F918F917F916F915F914F913F9102
:100EB0002F910F900BBE0F900FBE0F901F901895A3
:100EC000A1E21A2EAA1BBB1BFD010DC0AA1FBB1F4E
:100ED000EE1FFF1FA217B307E407F50720F0A21BC0
:100EE000B30BE40BF50B661F771F881F991F1A942D
:100EF00069F760957095809590959B01AC01BD0157
:100F0000CF010895EE0FFF1F0024001C0BBE0790B9
:0A0F1000F691E02D0994F894FFCF4C
:100F1A00010200020057656C636F6D6500000000F6
:100F2A0000000000000000000200000100010000B3
:100F3A0000000000000200000000000100000002A2
:100F4A00020000010000000202000001000000008F
:00000001FF
