:100000000C942A000C94F5010C9447000C944700C2
:100010000C9447000C9447000C9486070C9434070A
:100020000C945D070C940B070C9447000C9447004C
:100030000C9447000C9447000C9447000C94470024
:100040000C9447000C9447000C9447000C94470014
:100050000C94470011241FBECFE5D8E0DEBFCDBF12
:1000600010E0A0E6B0E0E0E6F4E102C005900D92F9
:10007000A23CB107D9F720E0A2ECB0E001C01D928C
:10008000A33FB207E1F70E94F1040C942E0A0C94EE
:1000900000000E94F6040E94AB0680E00E94550614
:1000A0000E94DD020E94A80478941092C200089574
:1000B0000F93CF932FEF80E792E021508040904044
:1000C000E1F700C0000061E080E10E94D4058DE10D
:1000D0000E94B2046093DB007093DC008093DD002B
:1000E0009093DE008091E0004091DB005091DC00B5
:1000F0006091DD007091DE0024E0829FF001112408
:10010000E953FF4F40835183628373838F5F8093F2
:10011000E0006091DB007091DC008091DD00909147
:10012000DE0020E030E048EC53E40E947B09181622
:100130007CF442E650E061E081E00E94390343E74D
:1001400050E061E082E00E94390381E08093DF00AB
:100150006091DB007091DC008091DD009091DE0009
:1001600020E030E048EC53E40E941C08181644F0EC
:100170008091DF00813021F41092DF000E940F0394
:100180006091DB007091DC008091DD009091DE00D9
:1001900020E030E048EC52E40E947B09C09160000E
:1001A00087FD04C0CC5FC09360004FC06091DB004E
:1001B0007091DC008091DD009091DE0020E030E065
:1001C00040E251E40E947B0987FD16C06091DB008C
:1001D0007091DC008091DD009091DE0020E030E045
:1001E00048EC52E40E941C0887FF06C084E08C0F94
:1001F0008093600062E024C06091DB007091DC00BD
:100200008091DD009091DE0020E030E0A9010E94A5
:100210007B0987FD1AC06091DB007091DC00809142
:10022000DD009091DE0020E030E040E251E40E94E9
:100230001C0887FF0AC084E08C0F8093600061E097
:100240006C0F40E282E00E943103809160008031B7
:1002500018F081E0809360008091E000843021F507
:10026000C0E084E0C89FF0011124E953FF4F608192
:100270007181828193812091D7003091D800409183
:10028000D9005091DA000E94B0076093D7007093B4
:10029000D8008093D9009093DA00CF5FC43009F77B
:1002A000C093E1001092E0008091E100843009F0F9
:1002B0004FC08091DF0081114BC06091D7007091D9
:1002C000D8008091D9009091DA0020E030E040E839
:1002D0005EE30E9480096093C3007093C400809322
:1002E000C5009093C6001092C7001092C8001092EB
:1002F000C9001092CA001092CB001092CC0010924C
:10030000CD001092CE001092CF001092D00010922B
:10031000D1001092D2001092D3001092D40010920B
:10032000D5001092D60045E850E061E081E00E94DF
:1003300039032091C3003091C4004091C500509111
:10034000C60001E06CE081E00E9443031092E100EE
:100350006091C3007091C4008091C5009091C60067
:1003600020E030E048EC52E40E941C0887FF05C002
:1003700040E260E181E00E9431036091C30070912E
:10038000C4008091C5009091C60020E030E040E2BA
:1003900051E40E941C0887FF05C040E26DE081E047
:1003A0000E94310380916100811114C041E950E045
:1003B00061E081E00E9439032091C3003091C400C4
:1003C0004091C5005091C60001E066E082E00E94C5
:1003D0004303E8CF1092D7001092D8001092D900B2
:1003E0001092DA00CF910F9108951F920F920FB6DD
:1003F0000F9211242F933F934F935F936F937F93AB
:100400008F939F93AF93BF93EF93FF9360E080E14F
:100410000E94D40510926100FF91EF91BF91AF91BE
:100420009F918F917F916F915F914F913F912F910C
:100430000F900FBE0F901F901895CF93C82F60E0BC
:1004400081E00E94D4056C2F661F6627661F86E038
:100450000E94D405C6FB662760F985E00E94D4059A
:10046000C5FB662760F984E00E94D405C4FB6627BB
:1004700060F983E00E94D40561E082E00E94D40527
:100480008FEC97E00197F1F700C0000060E082E098
:100490000E94D4058FEC97E00197F1F700C00000AF
:1004A000C3FB662760F986E00E94D405C2FB66277D
:1004B00060F985E00E94D405C1FB662760F984E0FD
:1004C0000E94D4056C2F617083E00E94D40561E026
:1004D00082E00E94D4058FEC97E00197F1F700C00D
:1004E000000060E082E00E94D4058FEC97E0019765
:1004F000F1F700C00000CF910895CF93C82F61E0BD
:1005000081E00E94D4056C2F661F6627661F86E077
:100510000E94D405C6FB662760F985E00E94D405D9
:10052000C5FB662760F984E00E94D405C4FB6627FA
:1005300060F983E00E94D40561E082E00E94D40566
:100540008FEC97E00197F1F700C0000060E082E0D7
:100550000E94D4058FEC97E00197F1F700C00000EE
:10056000C3FB662760F986E00E94D405C2FB6627BC
:1005700060F985E00E94D405C1FB662760F984E03C
:100580000E94D4056C2F617083E00E94D40561E065
:1005900082E00E94D4058FEC97E00197F1F700C04C
:1005A000000060E082E00E94D4058FEC97E00197A4
:1005B000F1F700C00000CF9108952FE788E391E0A4
:1005C000215080409040E1F700C0000082E00E948E
:1005D0001D0288E20E941D028CE00E941D0281E043
:1005E0000E941D028FEC97E00197F1F700C0000018
:1005F00086E00C941D020F931F93CF938C01C0E0F3
:10060000F801EC0FF11D8081882321F00E947D020A
:10061000CF5FF6CF1082CF911F910F91089581E0A7
:100620000E941D028FEC97E00197F1F700C00000D7
:100630000895982F862F913011F481580BC0923075
:1006400011F4815407C0933011F48D5603C09430D7
:1006500039F48D520E941D028AE68A95F1F700C096
:100660000895CF93C42F0E9419038C2FCF910C941F
:100670007D02CF93DF93EA010E941903CE01DF913F
:10068000CF910C94FB02FF920F931F93CF93DF93B4
:10069000CDB7DEB764970FB6F894DEBF0FBECDBFFF
:1006A000182FF62ECA01B901202F30E0AE014F5F9E
:1006B0005F4F0E940504AE014F5F5F4F6F2D812F8A
:1006C0000E94390364960FB6F894DEBF0FBECDBF0B
:1006D000DF91CF911F910F91FF9008959C0180E0D1
:1006E000F901E80FF11D9081992311F08F5FF8CF88
:1006F0000895CF93DF93EC010E946E0390E09E017A
:10070000280F391FFE01959587958C0F9D1FE817BF
:10071000F90741F0408121503109D9015C91519391
:100720004C93F5CFDF91CF9108958F929F92AF9226
:10073000BF92DF92EF92FF920F931F93CF93DF93BD
:10074000EA01611571058105910509F44FC000E0CA
:1007500010E02AE0822E912CA12CB12C3DE2D32E68
:1007600097FF1FC090958095709561957F4F8F4F33
:100770009F4F7E01A50194010E94ED09605DF70184
:1007800061937F01B901CA018F010C1B1D0B61151B
:1007900071058105910571F7FE01E00FF11FD0820F
:1007A0000CC07E01E00EF11EA50194010E94ED092E
:1007B000605DF7016083B901CA010F5F1F4F6115CA
:1007C00071058105910561F6FE01E00FF11F1082B0
:1007D000CE01DF91CF911F910F91FF90EF90DF90AD
:1007E000BF90AF909F908F900C94790380E38883A3
:1007F0001982DF91CF911F910F91FF90EF90DF90C1
:10080000BF90AF909F908F9008956F927F928F923C
:100810009F92AF92BF92CF92DF92EF92FF920F938F
:100820001F93CF93DF936B017C01EA01890120E0E4
:1008300030E0A9010E941C0887FF07C08DE2888371
:10084000F7FAF094F7F8F0942196C701B6010E94E8
:1008500093084B01770FAA08BB08AE01C501B4018C
:100860000E9495033E019E012F5F3F4F88818823A0
:1008700011F0E901F7CF8EE28883C501B4010E942F
:10088000CB089B01AC01C701B6010E94AF077E01F6
:10089000E00EF11ECE15DF05D9F020E030E040E299
:1008A00051E40E9480094B015C010E94930820E3FF
:1008B000260F2983072E000C880B990B0E94CB086A
:1008C0009B01AC01C501B4010E94AF072196E2CFA4
:1008D000F301E00FF11F1182DF91CF911F910F9172
:1008E000FF90EF90DF90CF90BF90AF909F908F9050
:1008F0007F906F9008958091EA00811110C086B5B5
:1009000097B5A0E0B0E08093E6009093E700A09355
:10091000E800B093E90081E08093EA0016C080917E
:10092000EA008130A1F486B597B5A0E0B0E08093ED
:10093000E2009093E300A093E400B093E50082E02E
:100940008093EA000E94020780E00C94F306089569
:1009500062E080E00E94B7068BE794E00E94060701
:100960000C94FE060F931F93CF93C82F1092EA00AA
:100970001DBC1CBC80E00E94F3060E94FE0661E0E4
:100980008C2F0E94D4058AE18A95F1F700C060E0BF
:100990008C2F0E94D4058091EA008230E0F3809190
:1009A000E2009091E300A091E400B091E500009195
:1009B000E6001091E7002091E8003091E900BC01C9
:1009C000CD01601B710B820B930B0E94C90820E0C4
:1009D00030E048E652E40E942108CF911F910F9128
:1009E00008950E9449000E945800FDCFE2EAF0E01D
:1009F00040E081E090E05191342F36953695369560
:100A0000242F2770513009F443C020F0523009F4EC
:100A100082C0C5C0323001F1333061F1313071F044
:100A20005AB3BC0102C0660F771F2A95E2F79B01FB
:100A3000352F322B3ABB3BB320953DC057B3BC0199
:100A400002C0660F771F2A95E2F79B01352F322BE4
:100A500037BB38B320953EC054B3BC0102C0660F0B
:100A6000771F2A95E2F79B01352F322B34BB35B324
:100A700020953FC051B3BC0102C0660F771F2A9575
:100A8000E2F79B01352F322B31BB32B3209541C0A9
:100A9000323011F1333081F1313079F05AB3BC0189
:100AA00002C0660F771F2A95E2F79B012095352F2C
:100AB00032233ABB3BB3232342C057B3BC0102C02D
:100AC000660F771F2A95E2F79B012095352F322379
:100AD00037BB38B3232343C054B3BC0102C0660FF5
:100AE000771F2A95E2F79B012095352F322334BBDF
:100AF00035B3232325BB53C051B3BC0102C0660FDD
:100B0000771F2A95E2F79B012095352F322331BBC1
:100B100032B3232343C0323021F1333089F13130F5
:100B200081F05AB3BC0102C0660F771F2A95E2F725
:100B30009B01362F309535233ABB3BB3232B2BBB80
:100B40002EC057B3BC0102C0660F771F2A95E2F78B
:100B50009B01362F3095352337BB38B3232B28BB69
:100B60001EC054B3BC0102C0660F771F2A95E2F77E
:100B70009B01362F3095352334BB35B3232BBACFA9
:100B800051B3BC0102C0660F771F2A95E2F79B01A3
:100B9000362F3095352331BB32B3232B22BB4F5F29
:100BA000403209F028CF0895982F969596959695FE
:100BB00087706130C1F5913091F028F09230D9F012
:100BC000933029F108954BB321E030E0B90102C020
:100BD000660F771F8A95E2F7CB01842B3AC048B3A2
:100BE00021E030E0B90102C0660F771F8A95E2F775
:100BF000CB01842B3CC045B321E030E0B90102C0F9
:100C0000660F771F8A95E2F7CB01842B3EC042B373
:100C100021E030E0B90102C0660F771F8A95E2F744
:100C2000CB01842B40C061113FC09130A1F028F06E
:100C30009230F9F0933059F108954BB321E030E050
:100C4000B90102C0660F771F8A95E2F7CB01809544
:100C500084238BBB089548B321E030E0B90102C082
:100C6000660F771F8A95E2F7CB018095842388BBB6
:100C7000089545B321E030E0B90102C0660F771F47
:100C80008A95E2F7CB018095842385BB089542B312
:100C900021E030E0B90102C0660F771F8A95E2F7C4
:100CA000CB018095842382BB0895813039F018F000
:100CB000823039F008958BB7806405C08BB78068A7
:100CC00002C08BB780628BBF08958130F1F018F0BD
:100CD0008230B1F10895613049F028F0623061F05E
:100CE000633069F0089585B78E7F02C085B7816053
:100CF00085BF85B78D7F22C085B78E7F02C085B73F
:100D0000816085BF85B7826019C0613049F028F0E5
:100D1000623061F0633069F0089585B78B7F02C05F
:100D200085B7846085BF85B7877F08C085B78B7F0F
:100D300002C085B7846085BF85B7886085BF089588
:100D4000623029F0633019F484B7806402C084B73C
:100D50008F7B84BF089562E080E00E94650663E0B7
:100D600081E00E94650662E082E00C9465068230B4
:100D7000D9F050F4882379F0813071F58FB58E7FEA
:100D80008FBD8FB58D7F21C08330D1F0843021F5A8
:100D90008FB5816017C08FB58E7F8FBD8FB58D7F6A
:100DA0008FBD8EB5877F08C08FB58E7F8FBD8FB505
:100DB0008D7F8FBD8EB588608EBD8EB58F7E0BC04A
:100DC0008FB58E7F8FBD8FB582608FBD8EB58860E9
:100DD0008EBD8EB580618EBD8EB5887F8EBD8EB581
:100DE000682B6EBD0895811103C08EB5806404C068
:100DF000813019F48EB58F7B8EBD089589B78062DE
:100E000089BF089589B78F7D89BF08959093EC00BD
:100E10008093EB0008951F920F920FB60F9211244A
:100E20002F933F934F935F936F937F938F939F93F2
:100E3000AF93BF93EF93FF93E091F100F091F20035
:100E4000309709F00995FF91EF91BF91AF919F9174
:100E50008F917F916F915F914F913F912F910F9063
:100E60000FBE0F901F9018951F920F920FB60F9202
:100E700011242F933F934F935F936F937F938F939F
:100E80009F93AF93BF93EF93FF93E091EF00F091A7
:100E9000F000309709F00995FF91EF91BF91AF9164
:100EA0009F918F917F916F915F914F913F912F9182
:100EB0000F900FBE0F901F9018951F920F920FB6B4
:100EC0000F9211242F933F934F935F936F937F93D0
:100ED0008F939F93AF93BF93EF93FF93E091ED00B8
:100EE000F091EE00309709F00995FF91EF91BF91D5
:100EF000AF919F918F917F916F915F914F913F91B2
:100F00002F910F900FBE0F901F9018951F920F9268
:100F10000FB60F9211242F933F934F935F936F93CC
:100F20007F938F939F93AF93BF93EF93FF93E09142
:100F3000EB00F091EC00309709F00995FF91EF91EB
:100F4000BF91AF919F918F917F916F915F914F91E1
:100F50003F912F910F900FBE0F901F9018955058F2
:100F6000BB27AA270E94C7070C9441090E94330996
:100F700038F00E943A0920F039F49F3F19F426F422
:100F80000C9430090EF4E095E7FB0C942A09E92F44
:100F90000E94520958F3BA1762077307840795072E
:100FA00020F079F4A6F50C9474090EF4E0950B2E5C
:100FB000BA2FA02D0B01B90190010C01CA01A001AB
:100FC0001124FF27591B99F0593F50F4503E68F106
:100FD0001A16F040A22F232F342F4427585FF3CF47
:100FE000469537952795A795F0405395C9F77EF418
:100FF0001F16BA0B620B730B840BBAF09150A1F061
:10100000FF0FBB1F661F771F881FC2F70EC0BA0FE6
:10101000621F731F841F48F4879577956795B7956E
:10102000F7959E3F08F0B0CF9395880F08F0992769
:10103000EE0F9795879508950E94060908F481E0C0
:1010400008950E9435080C9441090E943A0958F00D
:101050000E94330940F029F45F3F29F00C942A09DB
:1010600051110C9475090C9430090E94520968F3CF
:101070009923B1F3552391F3951B550BBB27AA2751
:1010800062177307840738F09F5F5F4F220F331F8B
:10109000441FAA1FA9F335D00E2E3AF0E0E832D053
:1010A00091505040E695001CCAF72BD0FE2F29D056
:1010B000660F771F881FBB1F261737074807AB0728
:1010C000B0E809F0BB0B802DBF01FF2793585F4F9D
:1010D0003AF09E3F510578F00C942A090C9475095A
:1010E0005F3FE4F3983ED4F3869577956795B7957F
:1010F000F7959F5FC9F7880F911D9695879597F98A
:101100000895E1E0660F771F881FBB1F6217730702
:101110008407BA0720F0621B730B840BBA0BEE1F17
:1011200088F7E09508950E949A086894B1110C948C
:10113000750908950E945A0988F09F5798F0B92FB1
:101140009927B751B0F0E1F0660F771F881F991FFC
:101150001AF0BA95C9F714C0B13091F00E94740921
:10116000B1E008950C947409672F782F8827B85F31
:1011700039F0B93FCCF3869577956795B395D9F754
:101180003EF490958095709561957F4F8F4F9F4F5E
:101190000895E89409C097FB3EF49095809570956A
:1011A00061957F4F8F4F9F4F9923A9F0F92F96E9B3
:1011B000BB279395F695879577956795B795F11128
:1011C000F8CFFAF4BB0F11F460FF1BC06F5F7F4FC5
:1011D0008F4F9F4F16C0882311F096E911C07723D7
:1011E00021F09EE8872F762F05C0662371F096E8E0
:1011F000862F70E060E02AF09A95660F771F881FAF
:10120000DAF7880F9695879597F90895990F000852
:10121000550FAA0BE0E8FEEF16161706E807F907C8
:10122000C0F012161306E407F50798F0621B730B63
:10123000840B950B39F40A2661F0232B242B252BE4
:1012400021F408950A2609F4A140A6958FEF811D87
:10125000811D089597F99F6780E870E060E0089528
:101260009FEF80EC089500240A94161617061806BE
:101270000906089500240A9412161306140605069A
:101280000895092E0394000C11F4882352F0BB0F2B
:1012900040F4BF2B11F460FF04C06F5F7F4F8F4F8E
:1012A0009F4F089557FD9058440F551F59F05F3FC9
:1012B00071F04795880F97FB991F61F09F3F79F078
:1012C00087950895121613061406551FF2CF4695FA
:1012D000F1DF08C0161617061806991FF1CF86957C
:1012E0007105610508940895E894BB276627772760
:1012F000CB0197F908950E94060908F48FEF08952D
:101300000E9493090C9441090E94330938F00E940D
:101310003A0920F0952311F00C942A090C94300915
:1013200011240C9475090E94520970F3959FC1F322
:10133000950F50E0551F629FF001729FBB27F00D83
:10134000B11D639FAA27F00DB11DAA1F649F6627D8
:10135000B00DA11D661F829F2227B00DA11D621F27
:10136000739FB00DA11D621F839FA00D611D221FE1
:10137000749F3327A00D611D231F849F600D211DC5
:10138000822F762F6A2F11249F5750409AF0F1F048
:1013900088234AF0EE0FFF1FBB1F661F771F881FB1
:1013A00091505040A9F79E3F510580F00C942A09B6
:1013B0000C9475095F3FE4F3983ED4F386957795D6
:1013C0006795B795F795E7959F5FC1F7FE2B880F57
:1013D000911D9695879597F90895052E97FB1EF414
:1013E00000940E94040A57FD07D00E940C0A07FCD3
:1013F00003D04EF40C94040A5095409530952195F5
:101400003F4F4F4F5F4F0895909580957095619530
:101410007F4F8F4F9F4F0895A1E21A2EAA1BBB1B2F
:10142000FD010DC0AA1FBB1FEE1FFF1FA217B307B0
:10143000E407F50720F0A21BB30BE40BF50B661FC6
:10144000771F881F991F1A9469F76095709580958A
:1014500090959B01AC01BD01CF010895F894FFCF99
:101460000101202020205761726E696E67212020C3
:101470002020002052616E676520457863656564B1
:1014800065642120004176672044697374203D2003
:101490000053656C65637465642056616C75653ACC
:1014A000200000000000000000000000000000001C
:1014B0000000000202020000000000000202000022
:0214C000010029
:00000001FF
