:100000000C9462000C948A000C948A000C948A0070
:100010000C948A000C948A000C948A000C948A0038
:100020000C948A000C948A000C948A000C948A0028
:100030000C948A000C948A000C948A000C948A0018
:100040000C94D5040C948A000C9445050C941F055F
:100050000C948A000C948A000C948A000C948A00F8
:100060000C948A000C948A000000000024002700F1
:100070002A0000000000250028002B0000000000DE
:1000800023002600290004040404040404040202DA
:100090000202020203030303030301020408102007
:1000A0004080010204081020010204081020000012
:1000B0000008000201000003040700000000000027
:1000C0000000770511241FBECFEFD8E0DEBFCDBF03
:1000D00013E0A0E0B1E0E8E2F6E102C005900D9285
:1000E000A432B107D9F724E0A4E2B3E001C01D9225
:1000F000A635B207E1F710E0C2E6D0E004C02197D0
:10010000FE010E940C0BC136D107C9F70E941C06E4
:100110000C94120B0C9400004F925F926F927F929E
:100120008F929F92AF92BF92CF92DF92EF92FF9207
:100130000F931F9340914804509149044F5F5F4FC4
:1001400060E0C12CD12C760188248A94982CA82CAC
:10015000B12C80E090E0DC01262F30E042175307FD
:100160008CF1220F331F220F331FF901E153FC4F93
:100170004384548465847684481459046A047B0457
:1001800024F483849484A584B684F901E153FC4F5C
:100190004384548465847684C414D504E604F70447
:1001A00024F4C384D484E584F68421533C4FF901BC
:1001B0000385148525853685800F911FA21FB31FE7
:1001C0006F5FCACF88199909AA09BB09BC01CD0183
:1001D0006C197D098E099F092091360404C09595FC
:1001E0008795779567952A95D2F71F910F91FF9084
:1001F000EF90DF90CF90BF90AF909F908F907F90C7
:100200006F905F904F900895833081F028F4813093
:1002100099F08230A9F008958730A9F08830C9F0AC
:100220008430B1F4809180008F7D03C08091800084
:100230008F7780938000089584B58F7784BD08956B
:1002400084B58F7DFBCF8091B0008F778093B00015
:1002500008958091B0008F7DF9CFCF93DF93282F41
:1002600030E0F901E255FF4F8491F901E656FF4F66
:10027000D491F901EA57FF4FC491CC23A1F0811129
:100280000E940401EC2FF0E0EE0FFF1FE458FF4F37
:10029000A591B491EC91ED2381E090E009F480E028
:1002A000DF91CF91089580E090E0FACF1F93CF9334
:1002B000DF93282F30E0F901E255FF4F8491F901D7
:1002C000E656FF4FD491F901EA57FF4FC491CC2372
:1002D000A9F0162F81110E940401EC2FF0E0EE0F1F
:1002E000FF1FEE58FF4FA591B4918FB7F894EC9192
:1002F000111108C0D095DE23DC938FBFDF91CF9121
:100300001F910895DE2BF8CF3FB7F89480912E030C
:1003100090912F03A0913003B091310326B5A89B93
:1003200005C02F3F19F00196A11DB11D3FBFBA2F87
:10033000A92F982F8827BC01CD01620F711D811D47
:10034000911D42E0660F771F881F991F4A95D1F7CC
:1003500008952FB7F89460912A0370912B03809130
:100360002C0390912D032FBF0895CF92DF92EF922F
:10037000FF92CF938091D0030E942D018111C6C0BE
:100380000E948401C0902C04D0902D04E0902E0493
:10039000F0902F046C197D098E099F096093300439
:1003A0007093310480933204909333040E9484014B
:1003B00060932C0470932D0480932E0490932F044B
:1003C00010924204C0E0C12CD12C76018091D1035F
:1003D00090E04796C817190609F0BCF461E08091D7
:1003E000CF030E94560160E08091CF030E94560126
:1003F000C83148F48091D0030E942D01CC0CDD1C43
:10040000EE1CFF1CC82ACF5FE1CF80E8E826C114AC
:10041000D104E10491E0F90618F021E020934E04A4
:1004200020915404222361F04FEF5FEF6FEF70E0F3
:10043000DB01CA018C199D09AE09BF096C017D0160
:1004400020912A0430912B04409148045091490492
:100450004F5F5F4F24173507D9F510922B04109288
:100460002A04C114D104E104F104F1F02091420402
:100470002F5F20934204E0912A04F0912B04EE0FA9
:10048000FF1FEE0FFF1FE153FC4FC386D486E586A6
:10049000F68680913804882339F0809135048231C2
:1004A000F0F48F5F809335040E94A90160934F049C
:1004B000709350048093510490935204109253040B
:1004C00080914204CF91FF90EF90DF90CF900895FC
:1004D0002F5F3F4F30932B0420932A04C2CF0E94FA
:1004E0008C006093260470932704809328049093D3
:1004F0002904109235041092380481E0809343045B
:10050000809142048F5F80934204CECF0E94A90164
:10051000C0904F04D0905004E0905104F0905204E9
:100520006C197D098E099F09653671058105910554
:1005300018F081E08093530410924204C1CFAF922F
:10054000BF92CF92DF92EF92FF920F931F93CF93C0
:10055000DF936C017B018B01040F151FEB015E0122
:10056000AE18BF08C017D10759F06991D601ED91B7
:10057000FC910190F081E02DC6010995892B79F756
:10058000C501DF91CF911F910F91FF90EF90DF9008
:10059000CF90BF90AF900895FC01538D448D252FCF
:1005A00030E0842F90E0821B930B541710F0CF960D
:1005B000089501970895FC01918D828D981761F03F
:1005C000A28DAE0FBF2FB11D5D968C91928D9F5F56
:1005D0009F73928F90E008958FEF9FEF0895FC0135
:1005E000918D828D981731F0828DE80FF11D858DE8
:1005F00090E008958FEF9FEF0895FC01918D228D7B
:10060000892F90E0805C9F4F821B91098F739927FF
:10061000089582E393E00E94FD0221E0892B09F412
:1006200020E0822F089580E090E0892B29F00E943D
:10063000090381110C9400000895FC01A48DA80FFA
:10064000B92FB11DA35ABF4F2C91848D90E0019614
:100650008F739927848FA689B7892C93A089B18934
:100660008C91837080648C93938D848D981306C0D5
:100670000288F389E02D80818F7D80830895EF9239
:10068000FF920F931F93CF93DF93EC0181E0888F4C
:100690009B8D8C8D98131AC0E889F989808185FF1C
:1006A00015C09FB7F894EE89FF896083E889F989BE
:1006B00080818370806480839FBF81E090E0DF91C0
:1006C000CF911F910F91FF90EF900895F62E0B8D13
:1006D00010E00F5F1F4F0F731127E02E8C8D8E11CE
:1006E0000CC00FB607FCFACFE889F989808185FF35
:1006F000F5CFCE010E941D03F1CFEB8DEC0FFD2F46
:10070000F11DE35AFF4FF0829FB7F8940B8FEA89EF
:10071000FB8980818062CFCFCF93DF93EC01888DFE
:100720008823B9F0AA89BB89E889F9898C9185FD6C
:1007300003C0808186FD0DC00FB607FCF7CF8C91FA
:1007400085FFF2CF808185FFEDCFCE010E941D0392
:10075000E9CFDF91CF910895FC0101900020E9F7E6
:100760003197AF01481B590BBC0182E393E00C9415
:100770009F028F929F92AF92BF920F931F93CF933E
:10078000DF93CDB7DEB7A1970FB6F894DEBF0FBEEB
:10079000CDBF19A2423008F44AE08E010F5D1F4F11
:1007A000842E912CB12CA12CA50194010E94EA0A5F
:1007B000E62FB901CA01EA30F4F4E05DD801EE9306
:1007C0008D01232B242B252B79F790E080E01097C7
:1007D00019F0CD010E94AC03A1960FB6F894DEBFCC
:1007E0000FBECDBFDF91CF911F910F91BF90AF9002
:1007F0009F908F900895E95CE1CFCF93DF930E94A3
:10080000AC03EC0182E191E00E94AC038C0F9D1FD0
:10081000DF91CF9108954F925F926F927F928F9266
:100820009F92AF92BF92CF92DF92EF92FF926B01B5
:100830007C01AC019B010E94E50A8823C1F085E19F
:1008400091E00E94AC037C0182E191E00E94AC0344
:100850008E0D9F1DFF90EF90DF90CF90BF90AF90D7
:100860009F908F907F906F905F904F90089546017A
:100870005701E894B7F82FEF3FEF4FE75FE7C50167
:10088000B4010E94E50A81110DC02FEF3FEF4FE741
:100890005FE7C501B4010E94140918161CF489E130
:1008A00091E0CFCF2FEF3FEF4FE75FE4C701B601F5
:1008B0000E94730A18161CF48DE191E0C2CF2FEF4D
:1008C0003FEF4FE75FECC701B6010E94140987FDB7
:1008D000F3CF20E030E0A901C701B6010E9414095E
:1008E000B12CA12C87FF0AC06DE282E393E00E9445
:1008F0003F035C01F7FAF094F7F8F0942AE037ED43
:1009000043EA5BE3C701B6010E94A8082B013C0142
:100910000E9492096B017C010E94C1099B01AC01FC
:10092000C301B2010E94A7082B013C014AE0C701A4
:10093000B6010E94B9037C01EA0CFB1C6EE282E363
:1009400093E00E943F03E80EF91E20E030E040E211
:1009500051E4C301B2010E94780A2B013C010E94BC
:1009600092094B01B12CA12C4AE0C501B4010E94AF
:10097000B903E80EF91EC501B4010E94C1099B012B
:10098000AC01C301B2010E94A70820E030E040E2C0
:1009900051E40E94780A0E94920990E080E04AE0C7
:1009A0000E94B903E80EF91E4FCF1F920F920FB6A7
:1009B0000F9211242F933F938F939F93AF93BF93E5
:1009C00080912A0390912B03A0912C03B0912D03C9
:1009D0003091290323E0230F2D3758F50196A11DEF
:1009E000B11D2093290380932A0390932B03A09396
:1009F0002C03B0932D0380912E0390912F03A0918F
:100A00003003B09131030196A11DB11D80932E03D7
:100A100090932F03A0933003B0933103BF91AF9114
:100A20009F918F913F912F910F900FBE0F901F902C
:100A3000189526E8230F0296A11DB11DD2CF1F9253
:100A40000F920FB60F9211242F933F934F935F9302
:100A50006F937F938F939F93AF93BF93EF93FF9386
:100A600082E393E00E941D03FF91EF91BF91AF914C
:100A70009F918F917F916F915F914F913F912F91B6
:100A80000F900FBE0F901F9018951F920F920FB6E8
:100A90000F9211242F938F939F93EF93FF93E091E5
:100AA0004203F09143038081E0914803F0914903B0
:100AB00082FD1BC0908180914B038F5F8F732091CB
:100AC0004C03821741F0E0914B03F0E0EE5CFC4FE9
:100AD000958F80934B03FF91EF919F918F912F9171
:100AE0000F900FBE0F901F9018958081F4CFE2E316
:100AF000F3E01382128288EE93E0A0E0B0E08483FA
:100B00009583A683B78384E091E09183808385EC0D
:100B100090E09587848784EC90E09787868780ECC7
:100B200090E0918B808B81EC90E0938B828B82ECB8
:100B300090E0958B848B86EC90E0978B868B118E62
:100B4000128E138E148EEFECF3E080E090E0A0E8BC
:100B5000BFE383839483A583B68387839087A1872C
:100B6000B287109226041092270410922804109243
:100B7000290410922B0410922A0410922C04109233
:100B80002D0410922E0410922F0410923004109213
:100B90003104109232041092330481E080933404C3
:100BA0001092350484E080933604809337041092C9
:100BB00038041092390410923A0410923B041092B7
:100BC0003C0410923D0410923E0410923F04109297
:100BD00040041092410410924204109243048CE8A5
:100BE0009AE0909345048093440410924604109236
:100BF000470480E190E09093490480934804109268
:100C00004A0410924B0410924C0410924D0410921E
:100C10004E0410924F0410925004109251041092FE
:100C2000520410925304109254041092550482E01E
:100C3000818383E080830895789484B5826084BD45
:100C400084B5816084BD85B5826085BD85B58160D0
:100C500085BD80916E00816080936E00109281004E
:100C60008091810082608093810080918100816009
:100C700080938100809180008160809380008091CA
:100C8000B10084608093B1008091B0008160809356
:100C9000B00080917A00846080937A0080917A001D
:100CA000826080937A0080917A00816080937A00DC
:100CB00080917A00806880937A001092C100E09160
:100CC0004203F091430382E08083E0914203F0917C
:100CD00043031082E0913E03F0913F031082E091C4
:100CE0004003F091410380E1808310924A03E09138
:100CF0004603F091470386E08083E0914403F0913E
:100D00004503808180618083E0914403F091450335
:100D1000808188608083E0914403F0914503808165
:100D200080688083E0914403F091450380818F7D4A
:100D300080830E9484016B017C015AE0852E912CF6
:100D4000A12CB12C0E9484016C197D098E099F0988
:100D5000683E734081059105A8F321E0821A91084D
:100D6000A108B10888EEC80E83E0D81EE11CF11C72
:100D700081149104A104B10429F782E191E00E9459
:100D8000AC0381E291E00E94FD038091CF0390E0EB
:100D9000FC01E656FF4F24918A579F4FFC01849136
:100DA000882399F090E0880F991FFC01E859FF4FC4
:100DB000A591B491FC01EE58FF4F859194918FB7A6
:100DC000F894EC91E22BEC938FBF8091D00390E0EC
:100DD000FC01E656FF4F24918A579F4FFC018491F6
:100DE0008823C1F090E0880F991FFC01E859FF4F5C
:100DF000C591D491FC01EE58FF4FA591B4919FB7D6
:100E0000F8948881E22FE0958E2388838C91E823E3
:100E1000EC939FBF81E08093D10360E08091CF038A
:100E20000E9456010E94A90160934F0470935004E0
:100E300080935104909352040E94A9016036794036
:100E40008105910518F40E94B501F6CF81E08093E9
:100E5000380410923504109246040E94A901209192
:100E60004404309145046B017C01C20ED31EE11C89
:100E7000F11C0E94B501C82F8091470481110BC05D
:100E80000E94A901C616D706E806F90620F481E0FB
:100E90008093460402C0C23061F7109243048091EF
:100EA0004604882309F42AC18DE291E00E94FD03E3
:100EB0000E94B5018823E1F386E791E00E94AC032C
:100EC0006091D2037091D3038091D4039091D503A4
:100ED0000E940B048AE891E00E94AC036091300408
:100EE0007091310480913204909133040E94C109C1
:100EF00020E030E04AE754E40E9419090E940B0404
:100F00008EEA91E00E94AC0360913004709131044C
:100F100080913204909133040E94C1099B01AC017D
:100F200060E074E284E799E40E9419090E940B04CE
:100F300080ED91E00E94AC03609130047091310427
:100F400080913204909133040E94C10920E030E086
:100F50004AE754E40E94190920E030E040E851E4F7
:100F60000E94780A20E030E040E85FE30E94A80891
:100F700020E030E040E85FE30E94A8080E948B096F
:100F80006B017C014AE0F7FE0DC06DE282E393E065
:100F90000E943F0366277727CB016C197D098E09D4
:100FA0009F094AE00E94B90382E191E00E94AC03EC
:100FB00081EF91E00E94FD03609130047091310453
:100FC00080913204909133040E94C1099B01AC01CD
:100FD00060E074E284E799E40E9419096B017C01E6
:100FE00020E030E040EE50E40E94140987FFA1C0E9
:100FF0008BE492E00E94FD03C0E0D0E011E00E948B
:10100000B50181111093280380912803882309F4E6
:101010004DC00E94A901AB01BC01809124039091B5
:101020002503A0912603B09127038C509E4FAF4F0C
:10103000BF4F84179507A607B707C0F50E948C001D
:1010400060934A0470934B0480934C0490934D0436
:10105000C0902604D0902704E0902804F090290442
:101060006C197D098E099F090E94C3092091D6033E
:101070003091D7034091D8035091D9030E94780A48
:101080006B017C018EEF92E00E94AC03C701B601B8
:101090000E940B04109228030E94A901609324036C
:1010A00070932503809326039093270382E393E0B4
:1010B0000E94FD021816190664F482E393E00E9470
:1010C000DB02843731F41093380410923504109207
:1010D00043048091430410924304882321F085E166
:1010E00093E00E94FD03209709F489CF0E94090331
:1010F000882309F484CF0E94000081CF87ED93EF0D
:10110000AAE3B4E48093D2039093D303A093D403CF
:10111000B093D50384E496E4AFEABAE38093D603B0
:101120009093D703A093D803B093D90382E691E0BC
:10113000BDCE20E030E048EC52E4C701B6010E9489
:10114000730A18160CF058CF84EA92E053CF505827
:10115000BB27AA270E94BF080C94390A0E942B0AB9
:1011600038F00E94320A20F039F49F3F19F426F437
:101170000C94280A0EF4E095E7FB0C94220AE92F60
:101180000E944A0A58F3BA17620773078407950743
:1011900020F079F4A6F50C946C0A0EF4E0950B2E71
:1011A000BA2FA02D0B01B90190010C01CA01A001B9
:1011B0001124FF27591B99F0593F50F4503E68F114
:1011C0001A16F040A22F232F342F4427585FF3CF55
:1011D000469537952795A795F0405395C9F77EF426
:1011E0001F16BA0B620B730B840BBAF09150A1F06F
:1011F000FF0FBB1F661F771F881FC2F70EC0BA0FF5
:10120000621F731F841F48F4879577956795B7957C
:10121000F7959E3F08F0B0CF9395880F08F0992777
:10122000EE0F9795879508950E94FE0908F481E0D6
:1012300008950E942D090C94390A0E94320A58F030
:101240000E942B0A40F029F45F3F29F00C94220AF7
:1012500051110C946D0A0C94280A0E944A0A68F3F2
:101260009923B1F3552391F3951B550BBB27AA275F
:1012700062177307840738F09F5F5F4F220F331F99
:10128000441FAA1FA9F335D00E2E3AF0E0E832D061
:1012900091505040E695001CCAF72BD0FE2F29D064
:1012A000660F771F881FBB1F261737074807AB0736
:1012B000B0E809F0BB0B802DBF01FF2793585F4FAB
:1012C0003AF09E3F510578F00C94220A0C946D0A76
:1012D0005F3FE4F3983ED4F3869577956795B7958D
:1012E000F7959F5FC9F7880F911D9695879597F998
:1012F0000895E1E0660F771F881FBB1F6217730711
:101300008407BA0720F0621B730B840BBA0BEE1F25
:1013100088F7E09508950E9492096894B1110C94A1
:101320006D0A08950E94520A88F09F5798F0B92FCD
:101330009927B751B0F0E1F0660F771F881F991F0A
:101340001AF0BA95C9F714C0B13091F00E946C0A36
:10135000B1E008950C946C0A672F782F8827B85F46
:1013600039F0B93FCCF3869577956795B395D9F762
:101370003EF490958095709561957F4F8F4F9F4F6C
:101380000895E89409C097FB3EF490958095709578
:1013900061957F4F8F4F9F4F9923A9F0F92F96E9C1
:1013A000BB279395F695879577956795B795F11136
:1013B000F8CFFAF4BB0F11F460FF1BC06F5F7F4FD3
:1013C0008F4F9F4F16C0882311F096E911C07723E5
:1013D00021F09EE8872F762F05C0662371F096E8EE
:1013E000862F70E060E02AF09A95660F771F881FBD
:1013F000DAF7880F9695879597F90895990F000861
:10140000550FAA0BE0E8FEEF16161706E807F907D6
:10141000C0F012161306E407F50798F0621B730B71
:10142000840B950B39F40A2661F0232B242B252BF2
:1014300021F408950A2609F4A140A6958FEF811D95
:10144000811D089597F99F6780E870E060E0089536
:101450009FEF80EC089500240A94161617061806CC
:101460000906089500240A941216130614060506A8
:101470000895092E0394000C11F4882352F0BB0F39
:1014800040F4BF2B11F460FF04C06F5F7F4F8F4F9C
:101490009F4F089557FD9058440F551F59F05F3FD7
:1014A00071F04795880F97FB991F61F09F3F79F086
:1014B00087950895121613061406551FF2CF469508
:1014C000F1DF08C0161617061806991FF1CF86958A
:1014D0007105610508940895E894BB27662777276E
:1014E000CB0197F908950E94FE0908F48FEF089543
:1014F0000E948B0A0C94390A0E942B0A38F00E9431
:10150000320A20F0952311F00C94220A0C94280A38
:1015100011240C946D0A0E944A0A70F3959FC1F33E
:10152000950F50E0551F629FF001729FBB27F00D91
:10153000B11D639FAA27F00DB11DAA1F649F6627E6
:10154000B00DA11D661F829F2227B00DA11D621F35
:10155000739FB00DA11D621F839FA00D611D221FEF
:10156000749F3327A00D611D231F849F600D211DD3
:10157000822F762F6A2F11249F5750409AF0F1F056
:1015800088234AF0EE0FFF1FBB1F661F771F881FBF
:1015900091505040A9F79E3F510580F00C94220ACB
:1015A0000C946D0A5F3FE4F3983ED4F386957795EB
:1015B0006795B795F795E7959F5FC1F7FE2B880F65
:1015C000911D9695879597F908950E94FE09880BBD
:1015D000990B0895A1E21A2EAA1BBB1BFD010DC099
:1015E000AA1FBB1FEE1FFF1FA217B307E407F507D3
:1015F00020F0A21BB30BE40BF50B661F771F881FAF
:10160000991F1A9469F760957095809590959B0144
:10161000AC01BD01CF010895EE0FFF1F0590F491BD
:08162000E02D0994F894FFCFBE
:10162800000000003F039F02CC028C03FD02DB0296
:10163800EF020D0A006E616E00696E66006F7666D5
:10164800005374617274696E672E2E2E0054696D92
:10165800656F75742C20636865636B204D43553E38
:10166800485837313120776972696E6720616E6436
:101678002070696E2064657369676E6174696F6E46
:1016880073005374617274757020697320636F6D91
:10169800706C6574650043616C6962726174696F2E
:1016A8006E2076616C75653A2000485837313120D4
:1016B8006D6561737572656420636F6E76657273AC
:1016C800696F6E2074696D65206D733A2000485803
:1016D800373131206D656173757265642073616D92
:1016E800706C696E67207261746520485A3A2000F0
:1016F8004858373131206D656173757265642073A0
:101708006574746C696E6774696D65206D733A20D1
:10171800004E6F7465207468617420746865207366
:101728006574746C696E672074696D65206D617984
:1017380020696E637265617365207369676E696697
:101748006963616E746C7920696620796F7520759C
:1017580073652064656C6179282920696E20796F2A
:10176800757220736B657463682100212153616D64
:10177800706C696E672072617465206973206C6F84
:10178800776572207468616E207370656369666935
:10179800636174696F6E2C20636865636B204D43C9
:1017A800553E485837313120776972696E67206134
:1017B8006E642070696E2064657369676E61746910
:1017C8006F6E7300212153616D706C696E672072B2
:1017D8006174652069732068696768657220746838
:1017E800616E2073706563696669636174696F6EA1
:1017F8002C20636865636B204D43553E485837314C
:101808003120776972696E6720616E642070696E35
:101818002064657369676E6174696F6E73004C6FDD
:1018280061645F63656C6C206F7574707574207685
:10183800616C3A20005461726520636F6D706C654D
:0418480074650000C3
:00000001FF
