:020000040000FA
:100000000C9462000C948A000C948A000C948A0070
:100010000C948A000C948A000C948A000C948A0038
:100020000C948A000C948A000C948A000C948A0028
:100030000C948A000C948A000C948A000C948A0018
:100040000C94B5050C948A000C9425060C94FF05BD
:100050000C948A000C948A000C948A000C948A00F8
:100060000C948A000C948A000000000024002700F1
:100070002A0000000000250028002B0000000000DE
:1000800023002600290004040404040404040202DA
:100090000202020203030303030301020408102007
:1000A0004080010204081020010204081020000012
:1000B0000008000201000003040700000000000027
:1000C0000000570611241FBECFEFD8E0DEBFCDBF22
:1000D00011E0A0E0B1E0EEE9F5E102C005900D927B
:1000E000A83EB107D9F722E0A8EEB1E001C01D9209
:1000F000A33AB207E1F710E0C2E6D0E004C02197CE
:10010000FE010E94C70AC136D107C9F70E949F06A7
:100110000C94CD0A0C9400003F924F925F926F9224
:100120007F928F929F92AF92BF92CF92DF92EF9287
:10013000FF920F931F93CF93DF937C01062F6C01E7
:1001400084E0C80ED11C11E01017A0F5F6018190D3
:100150009190A190B1906F01312EC32DD0E0C1508C
:10016000D04CCC0FDD1FCC0FDD1FF701EC0FFD1FB6
:1001700040805180628073802496CE0DDF1DA301E4
:100180009201C501B4010E94CF0887FF07C04882D1
:1001900059826A827B823A943110DFCF84E0389EA4
:1001A000F0011124EE0DFF1D80829182A282B382A4
:1001B0001F5FCACFDF91CF911F910F91FF90EF90FA
:1001C000DF90CF90BF90AF909F908F907F906F9077
:1001D0005F904F903F900895833081F028F48130F4
:1001E00099F08230A9F008958730A9F08830C9F0DD
:1001F0008430B1F4809180008F7D03C080918000B5
:100200008F7780938000089584B58F7784BD08959B
:1002100084B58F7DFBCF8091B0008F778093B00045
:1002200008958091B0008F7DF9CFCF93DF93282F71
:1002300030E0F901E255FF4F8491F901E656FF4F96
:10024000D491F901EA57FF4FC491CC23A1F0811159
:100250000E94EC00EC2FF0E0EE0FFF1FE458FF4F80
:10026000A591B491EC91ED2381E090E009F480E058
:10027000DF91CF91089580E090E0FACF1F93CF9364
:10028000DF93282F30E0F901E255FF4F8491F90107
:10029000E656FF4FD491F901EA57FF4FC491CC23A2
:1002A000A9F0162F81110E94EC00EC2FF0E0EE0F68
:1002B000FF1FEE58FF4FA591B4918FB7F894EC91C2
:1002C000111108C0D095DE23DC938FBFDF91CF9151
:1002D0001F910895DE2BF8CFCF93DF93CEE8D2E0C5
:1002E00061E089810E943E018BEF90E00197F1F778
:1002F00060E089810E943E011B821C821D821E8259
:1003000080E090E0A0E8BFE38F839887A987BA8751
:1003100080E88A831B861C861D861E861B8ADF91C9
:10032000CF9108953FB7F8948091E9019091EA0147
:10033000A091EB01B091EC0126B5A89B05C02F3F21
:1003400019F00196A11DB11D3FBFBA2FA92F982FFB
:100350008827BC01CD01620F711D811D911D42E0F6
:10036000660F771F881F991F4A95D1F70895AF929E
:10037000BF92CF92DF92EF92FF920F931F93CF9392
:10038000DF936C017B018B01040F151FEB015E01F4
:10039000AE18BF08C017D10759F06991D601ED9189
:1003A000FC910190F081E02DC6010995892B79F728
:1003B000C501DF91CF911F910F91FF90EF90DF90DA
:1003C000CF90BF90AF900895FC01538D448D252FA1
:1003D00030E0842F90E0821B930B541710F0CF96DF
:1003E000089501970895FC01918D828D981761F011
:1003F000A28DAE0FBF2FB11D5D968C91928D9F5F28
:100400009F73928F90E008958FEF9FEF0895FC0106
:10041000918D828D981731F0828DE80FF11D858DB9
:1004200090E008958FEF9FEF0895FC01918D228D4C
:10043000892F90E0805C9F4F821B91098F739927D1
:10044000089581EF91E00E94150221E0892B09F4C3
:1004500020E0822F089580E090E0892B29F00E940F
:10046000210281110C9400000895FC01A48DA80FB5
:10047000B92FB11DA35ABF4F2C91848D90E00196E6
:100480008F739927848FA689B7892C93A089B18906
:100490008C91837080648C93938D848D981306C0A7
:1004A0000288F389E02D80818F7D80830895EF920B
:1004B000FF920F931F93CF93DF93EC0181E0888F1E
:1004C0009B8D8C8D98131AC0E889F989808185FFEE
:1004D00015C09FB7F894EE89FF896083E889F98990
:1004E00080818370806480839FBF81E090E0DF9192
:1004F000CF911F910F91FF90EF900895F62E0B8DE5
:1005000010E00F5F1F4F0F731127E02E8C8D8E119F
:100510000CC00FB607FCFACFE889F989808185FF06
:10052000F5CFCE010E943502F1CFEB8DEC0FFD2F00
:10053000F11DE35AFF4FF0829FB7F8940B8FEA89C1
:10054000FB8980818062CFCFCF93DF93EC01888DD0
:100550008823B9F0AA89BB89E889F9898C9185FD3E
:1005600003C0808186FD0DC00FB607FCF7CF8C91CC
:1005700085FFF2CF808185FFEDCFCE010E9435024D
:10058000E9CFDF91CF910895FC0101900020E9F7B8
:100590003197AF01481B590BBC0181EF91E00C94DE
:1005A000B7018F929F92AF92BF920F931F93CF93F9
:1005B000DF93CDB7DEB7A1970FB6F894DEBF0FBEBD
:1005C000CDBF19A2423008F44AE08E010F5D1F4FE3
:1005D000842E912CB12CA12CA50194010E94A50A76
:1005E000E62FB901CA01EA30F4F4E05DD801EE93D8
:1005F0008D01232B242B252B79F790E080E0109799
:1006000019F0CD010E94C402A1960FB6F894DEBF86
:100610000FBECDBFDF91CF911F910F91BF90AF90D3
:100620009F908F900895E95CE1CFCF93DF930E9474
:10063000C402EC0182E191E00E94C4028C0F9D1F74
:10064000DF91CF9108950C94C4024F925F926F9204
:100650007F928F929F92AF92BF92CF92DF92EF9252
:10066000FF920F931F93CF936B017C01742EAC010B
:100670009B010E94A00A882399F085E191E0CF9127
:100680001F910F91FF90EF90DF90CF90BF90AF90B0
:100690009F908F907F906F905F904F900C94C402CA
:1006A00046015701E894B7F82FEF3FEF4FE75FE7B8
:1006B000C501B4010E94A00A81110DC02FEF3FEFC8
:1006C0004FE75FE7C501B4010E94CF0818161CF47C
:1006D00089E191E0D4CF2FEF3FEF4FE75FE4C7010F
:1006E000B6010E942E0A18161CF48DE191E0C7CFC6
:1006F0002FEF3FEF4FE75FECC701B6010E94CF0835
:1007000087FDF3CF20E030E0A901C701B6010E94C8
:10071000CF0810E000E087FF0AC06DE281EF91E0B2
:100720000E9457028C01F7FAF094F7F8F094C0E0B9
:1007300060E070E080E09FE37C1641F020E030E074
:1007400040E251E40E94D408CF5FF6CFA7019601A2
:100750000E9463082B013C010E944D094B015C0182
:100760004AE00E94D1027C01E00EF11ECC23C1F1CF
:10077000C501B4010E947C099B01AC01C301B20117
:100780000E9462084B015C016EE281EF91E00E94E1
:100790005702E80EF91EC15018F120E030E040E2A7
:1007A00051E4C501B4010E94330A2B013C010E94AF
:1007B0004D094B01B12CA12C4AE0C501B4010E94A6
:1007C000D102E80EF91EC501B4010E947C099B010B
:1007D000AC01C301B2010E9462084B015C01DBCF96
:1007E000C701CF911F910F91FF90EF90DF90CF90B5
:1007F000BF90AF909F908F907F906F905F904F9041
:100800000895CF93DF930E942503EC0182E191E0EC
:100810000E94C4028C0F9D1FDF91CF910895EF922B
:10082000FF920F931F93CF93DF93F0908F02E0908E
:100830008E0208E010E0C0E0D0E861E08F2D0E9459
:100840003E018E2D0E941501019709F4CD2B60E029
:100850008F2D0E943E01D6950150110971F78C2F02
:10086000DF91CF911F910F91FF90EF900895FF922C
:100870000F931F93CF93DF9380918E020E941501F7
:100880000197D1F310E0F8940E940F04D82F0E9432
:100890000F04F82E0E940F04082F809190028038D8
:1008A00029F0803471F0C2E0803261F061E0809123
:1008B0008F020E943E0160E080918F020E943E0103
:1008C0000DC0C3E061E080918F020E943E0160E0B4
:1008D00080918F020E943E01C150A1F77894D7FD0C
:1008E0001FEF2FB7F8948091ED019091EE01A09148
:1008F000EF01B091F0012FBF8093990290939A027B
:10090000A0939B02B0939C02602F7F2D8D2F912F7F
:100910000E947E09DF91CF911F910F91FF90089562
:10092000CF92DF92EF92FF92CF93DF93C82FC12C2B
:10093000D12C7601D0E00E9437049B01AC01C701A5
:10094000B6010E9463086B017C01DF5FCD13F3CF1A
:100950006C2F70E090E080E00E947E099B01AC016A
:10096000C701B6010E94D408DF91CF91FF90EF90AC
:10097000DF90CF9008958F929F92AF92BF92CF92C7
:10098000DF92EF92FF920F931F93CF93DF93CDB738
:10099000DEB7EC970FB6F894DEBF0FBECDBF082FC1
:1009A0008091A102823079F138F4813009F473C06A
:1009B000802F0E94900406C0833039F08430C1F744
:1009C0000E9437046B017C0192C00E9437046B01C6
:1009D0007C0111E0011709F48AC00E943704A701C5
:1009E00096010E94620820E030E040E05FE30E9450
:1009F000330A9B01AC01C701B6010E9463086B0179
:100A00007C011F5FE7CF033008F403E0CE010196BD
:100A10006C0110E07C010E943704D6016D937D9338
:100A20008D939D936D011F5F1017A8F3602FC70171
:100A30000E948C00202F30E02E5F3F4F3595279588
:100A400035952795D22E0150021B122F812C912C07
:100A50005401612F6D19011790F0B4E01B9FF00154
:100A60001124EE0DFF1D2081318142815381C5018A
:100A7000B4010E9463084B015C011F5FEACF70E084
:100A800090E080E00E947E099B01AC01C501B401A9
:100A90000E94D40897CFF02EE3E00E1710F443E045
:100AA000F42ECE0101966C01E12C8C010E943704DA
:100AB000D6016D937D938D939D936D01E394EF1417
:100AC000A8F36F2DC8010E948C002F2D2695E22FD0
:100AD000F0E0CF01880F991F880F991FF0FE2AC000
:100AE000080F191FF801C080D180E280F380609167
:100AF00091027091920280919302909194020E94CF
:100B00007E099B01AC01C701B6010E946208EC9608
:100B10000FB6F894DEBF0FBECDBFDF91CF911F910E
:100B20000F91FF90EF90DF90CF90BF90AF909F908C
:100B30008F9008953196EE0FFF1FEE0FFF1FE00F0D
:100B4000F11F080F191FD8012D913D914D915C9116
:100B500060817181828193810E94630820E030E08E
:100B600040E05FE30E94330A2DCF1F920F920FB631
:100B70000F9211242F933F938F939F93AF93BF9323
:100B80008091ED019091EE01A091EF01B091F00103
:100B90003091E80123E0230F2D3758F50196A11D70
:100BA000B11D2093E8018093ED019093EE01A09395
:100BB000EF01B093F0018091E9019091EA01A091D9
:100BC000EB01B091EC010196A11DB11D8093E901EB
:100BD0009093EA01A093EB01B093EC01BF91AF9128
:100BE0009F918F913F912F910F900FBE0F901F906B
:100BF000189526E8230F0296A11DB11DD2CF1F9292
:100C00000F920FB60F9211242F933F934F935F9340
:100C10006F937F938F939F93AF93BF93EF93FF93C4
:100C200081EF91E00E943502FF91EF91BF91AF916A
:100C30009F918F917F916F915F914F913F912F91F4
:100C40000F900FBE0F901F9018951F920F920FB626
:100C50000F9211242F938F939F93EF93FF93E09123
:100C60000102F09102028081E0910702F0910802F6
:100C700082FD1BC0908180910A028F5F8F7320914B
:100C80000B02821741F0E0910A02F0E0EF50FE4FB4
:100C9000958F80930A02FF91EF919F918F912F91F1
:100CA0000F900FBE0F901F9018958081F4CFE1EF49
:100CB000F1E01382128288EE93E0A0E0B0E084833A
:100CC0009583A683B78384E091E09183808385EC4C
:100CD00090E09587848784EC90E09787868780EC06
:100CE00090E0918B808B81EC90E0938B828B82ECF7
:100CF00090E0958B848B86EC90E0978B868B118EA1
:100D0000128E138E148EEEE8F2E080E88283138256
:100D100014821582168280E090E0A0E8BFE387830A
:100D20009087A187B2871386148615861686178644
:100D3000108A118A128A138A148A0C946C0178948E
:100D400084B5826084BD84B5816084BD85B58260D0
:100D500085BD85B5816085BD80916E008160809381
:100D60006E001092810080918100826080938100EA
:100D700080918100816080938100809180008160FA
:100D8000809380008091B10084608093B100809155
:100D9000B00081608093B00080917A00846080937D
:100DA0007A0080917A00826080937A0080917A0044
:100DB000816080937A0080917A00806880937A00C5
:100DC0001092C100E0910102F0910202C2E0C083E2
:100DD000E0910102F09102021082E091FD01F09198
:100DE000FE011082E091FF01F091000280E180831A
:100DF00010920902E0910502F091060286E08083DC
:100E0000E0910302F0910402808180618083E0918F
:100E10000302F0910402808188608083E0910302E4
:100E2000F0910402808180688083E0910302F09158
:100E3000040280818F7D808381E291E00E9415030E
:100E40008CE391E00E941503C0938E0283E08093AF
:100E50008F021092A202ECE9F0E02491E8E8F0E0C1
:100E600084918823C1F090E0880F991FFC01E85914
:100E7000FF4FC591D491FC01EE58FF4FA591B4915D
:100E80009FB7F8948881E22FE0958E2388838C9118
:100E9000E823EC939FBF80918F0290E0FC01E6561F
:100EA000FF4F24918A579F4FFC018491882399F02A
:100EB00090E0880F991FFC01E859FF4FA591B4916C
:100EC000FC01EE58FF4F859194918FB7F894EC9107
:100ED000E22BEC938FBF60E080918F020E943E0175
:100EE0000E946C0183E591E00E94150380E791E088
:100EF0000E9423030E94370442E050E00E94010454
:100F000089E791E00E94230384E10E94900442E07B
:100F100050E00E9401048AE891E00E94230385E0EA
:100F20000E94BB0442E050E00E94010488E991E085
:100F30000E94230385E00E94BB042091950230911A
:100F4000960240919702509198020E94330A41E024
:100F500050E00E94010489EE9EE2A3EEBCE3809380
:100F6000950290939602A0939702B09398028AE01C
:100F70000E9490040E94460960939102709392022D
:100F8000809393029093940286EA91E00E94150365
:100F900080E791E00E9423030E94370442E050E082
:100FA0000E94010489E791E00E94230384E10E94EA
:100FB000900442E050E00E9401048AE891E00E941F
:100FC000230385E00E94BB0442E050E00E9401043C
:100FD00088E991E00E94230385E00E94BB042091F0
:100FE00095023091960240919702509198020E948A
:100FF000330A41E050E00E94010482EC91E00E943B
:101000001503C0E0D0E08CEC91E00E94230381E066
:101010000E94BB0420919502309196024091970264
:10102000509198020E94330A20E030E04AE754E4ED
:101030000E94D40841E00E9425038BED91E00E94BC
:1010400023038AE00E94BB0420919502309196020E
:1010500040919702509198020E94330A45E050E077
:101060000E9401040E9492014B015C0188E8C82E95
:1010700083E1D82EE12CF12C0E94920168197909A4
:101080008A099B09683E734081059105A8F3F1E048
:10109000CF1AD108E108F10828EE820E23E0921E53
:1010A000A11CB11CC114D104E104F10429F720975B
:1010B00009F4A9CF0E942102882309F4A4CF0E9439
:1010C0000000A1CF5058BB27AA270E947A080C9491
:1010D000F4090E94E60938F00E94ED0920F039F485
:1010E0009F3F19F426F40C94E3090EF4E095E7FB16
:1010F0000C94DD09E92F0E94050A58F3BA1762071C
:1011000073078407950720F079F4A6F50C94270A55
:101110000EF4E0950B2EBA2FA02D0B01B901900112
:101120000C01CA01A0011124FF27591B99F0593F56
:1011300050F4503E68F11A16F040A22F232F342F9E
:101140004427585FF3CF469537952795A795F040EC
:101150005395C9F77EF41F16BA0B620B730B840B01
:10116000BAF09150A1F0FF0FBB1F661F771F881FB9
:10117000C2F70EC0BA0F621F731F841F48F4879511
:1011800077956795B795F7959E3F08F0B0CF939503
:10119000880F08F09927EE0F9795879508950E947C
:1011A000B90908F481E008950E94E8080C94F40954
:1011B0000E94ED0958F00E94E60940F029F45F3FD3
:1011C00029F00C94DD0951110C94280A0C94E309C0
:1011D0000E94050A68F39923B1F3552391F3951BF7
:1011E000550BBB27AA2762177307840738F09F5F48
:1011F0005F4F220F331F441FAA1FA9F335D00E2EB5
:101200003AF0E0E832D091505040E695001CCAF721
:101210002BD0FE2F29D0660F771F881FBB1F2617E4
:1012200037074807AB07B0E809F0BB0B802DBF01BB
:10123000FF2793585F4F3AF09E3F510578F00C948A
:10124000DD090C94280A5F3FE4F3983ED4F38695B9
:1012500077956795B795F7959F5FC9F7880F911DAB
:101260009695879597F90895E1E0660F771F881F97
:10127000BB1F621773078407BA0720F0621B730B4A
:10128000840BBA0BEE1F88F7E09508950E944D0974
:101290006894B1110C94280A08950E940D0A88F0F0
:1012A0009F5798F0B92F9927B751B0F0E1F0660F2A
:1012B000771F881F991F1AF0BA95C9F714C0B1306B
:1012C00091F00E94270AB1E008950C94270A672F35
:1012D000782F8827B85F39F0B93FCCF3869577959A
:1012E0006795B395D9F73EF4909580957095619583
:1012F0007F4F8F4F9F4F0895E89409C097FB3EF4AE
:1013000090958095709561957F4F8F4F9F4F992352
:10131000A9F0F92F96E9BB279395F69587957795D0
:101320006795B795F111F8CFFAF4BB0F11F460FF90
:101330001BC06F5F7F4F8F4F9F4F16C0882311F0E8
:1013400096E911C0772321F09EE8872F762F05C0FC
:10135000662371F096E8862F70E060E02AF09A9597
:10136000660F771F881FDAF7880F9695879597F98C
:101370000895990F0008550FAA0BE0E8FEEF161626
:101380001706E807F907C0F012161306E407F50779
:1013900098F0621B730B840B950B39F40A2661F0ED
:1013A000232B242B252B21F408950A2609F4A14090
:1013B000A6958FEF811D811D089597F99F6780E89D
:1013C00070E060E008959FEF80EC089500240A9497
:1013D0001616170618060906089500240A94121610
:1013E0001306140605060895092E0394000C11F443
:1013F000882352F0BB0F40F4BF2B11F460FF04C0F0
:101400006F5F7F4F8F4F9F4F089557FD9058440F48
:10141000551F59F05F3F71F04795880F97FB991F53
:1014200061F09F3F79F08795089512161306140610
:10143000551FF2CF4695F1DF08C01616170618069D
:10144000991FF1CF86957105610508940895E89478
:10145000BB2766277727CB0197F908950E94B90922
:1014600008F48FEF08950E94460A0C94F4090E9434
:10147000E60938F00E94ED0920F0952311F00C9454
:10148000DD090C94E30911240C94280A0E94050A32
:1014900070F3959FC1F3950F50E0551F629FF001C7
:1014A000729FBB27F00DB11D639FAA27F00DB11DE0
:1014B000AA1F649F6627B00DA11D661F829F222769
:1014C000B00DA11D621F739FB00DA11D621F839FF0
:1014D000A00D611D221F749F3327A00D611D231FC6
:1014E000849F600D211D822F762F6A2F11249F5714
:1014F00050409AF0F1F088234AF0EE0FFF1FBB1F17
:10150000661F771F881F91505040A9F79E3F5105D5
:1015100080F00C94DD090C94280A5F3FE4F3983EB8
:10152000D4F3869577956795B795F795E7959F5F7F
:10153000C1F7FE2B880F911D9695879597F9089511
:101540000E94B909880B990B0895A1E21A2EAA1BD3
:10155000BB1BFD010DC0AA1FBB1FEE1FFF1FA21763
:10156000B307E407F50720F0A21BB30BE40BF50B60
:10157000661F771F881F991F1A9469F760957095E9
:10158000809590959B01AC01BD01CF010895EE0FB0
:10159000FF1F0590F491E02D0994F894FFCF00000F
:1015A00000005702B701E401A4021502F30107028B
:1015B0000D0A006E616E00696E66006F7666004807
:1015C000583731312044656D6F2062792053617442
:1015D00079616D2053696E676800496E697469614D
:1015E0006C697A696E6720746865207363616C65E5
:1015F000004265666F72652073657474696E67205A
:10160000757020746865207363616C653A0072655B
:1016100061643A200909007265616420617665722F
:101620006167653A200909006765742076616C7509
:10163000653A2009090067657420756E6974733A0C
:101640002009090041667465722073657474696EBF
:101650006720757020746865207363616C653A005B
:1016600052656164696E67733A00576569676874AB
:1016700020696E204B473A0900097C20617665722B
:061680006167653A0900F4
:107E0000112484B714BE81FFF0D085E080938100F7
:107E100082E08093C00088E18093C10086E0809377
:107E2000C20080E18093C4008EE0C9D0259A86E02C
:107E300020E33CEF91E0309385002093840096BBD3
:107E4000B09BFECF1D9AA8958150A9F7CC24DD24C4
:107E500088248394B5E0AB2EA1E19A2EF3E0BF2EE7
:107E6000A2D0813461F49FD0082FAFD0023811F036
:107E7000013811F484E001C083E08DD089C08234E0
:107E800011F484E103C0853419F485E0A6D080C0E4
:107E9000853579F488D0E82EFF2485D0082F10E0AE
:107EA000102F00270E291F29000F111F8ED06801E7
:107EB0006FC0863521F484E090D080E0DECF843638
:107EC00009F040C070D06FD0082F6DD080E0C81688
:107ED00080E7D80618F4F601B7BEE895C0E0D1E017
:107EE00062D089930C17E1F7F0E0CF16F0E7DF06D8
:107EF00018F0F601B7BEE89568D007B600FCFDCFD4
:107F0000A601A0E0B1E02C9130E011968C91119780
:107F100090E0982F8827822B932B1296FA010C0160
:107F200087BEE89511244E5F5F4FF1E0A038BF0790
:107F300051F7F601A7BEE89507B600FCFDCF97BE46
:107F4000E89526C08437B1F42ED02DD0F82E2BD052
:107F50003CD0F601EF2C8F010F5F1F4F84911BD097
:107F6000EA94F801C1F70894C11CD11CFA94CF0C13
:107F7000D11C0EC0853739F428D08EE10CD085E9AC
:107F80000AD08FE07ACF813511F488E018D01DD067
:107F900080E101D065CF982F8091C00085FFFCCF94
:107FA0009093C60008958091C00087FFFCCF809118
:107FB000C00084FD01C0A8958091C6000895E0E648
:107FC000F0E098E1908380830895EDDF803219F02E
:107FD00088E0F5DFFFCF84E1DECF1F93182FE3DFCA
:107FE0001150E9F7F2DF1F91089580E0E8DFEE27F6
:047FF000FF270994CA
:027FFE00040479
:00000001FF
