:1000000068C0000083C0000081C000007FC0000005
:100010007DC000007BC00000C5C5000069C50000B0
:1000200094C5000038C5000071C000006FC000001A
:100030006DC00000E4C5000069C000000EC60000ED
:1000400065C0000063C0000061C000005FC0000028
:100050005DC000005BC0000059C0000057C0000038
:1000600055C0000053C0000051C000004FC0000048
:100070004DC000004BC0000049C0000047C0000058
:1000800045C0000043C0000041C00000D202E202AF
:10009000F2020203120322033503520364037603C0
:1000A00088039903AA03BE03DC03ED03FE030F04D8
:1000B00021043304490483048F049B04A704B3047C
:1000C000BF04CC04E504F30401050F051D052B0551
:1000D0003B0511241FBECFEFD0E1DEBFCDBF11E045
:1000E000A0E0B1E0ECECFCE000E00BBF02C0079048
:1000F0000D92A236B107D9F721E0A2E6B1E001C026
:100100001D92AA36B207E1F7DCD1DEC579CFD7D38D
:1001100060E08DE030D260E088E02DD260E08AE0DF
:100120002AD260E089E027D261E08DE0DAD360E096
:1001300088E0D7D360E08AE0D4D360E089E0D1C31F
:100140000F931F93CF93DF93C0E0D0E0082F10E010
:10015000C8010C2E01C0880F0A94EAF787FF02C07D
:1001600061E001C060E08AE0BCD361E089E0B9D31E
:1001700085E38A95F1F7000060E089E0B2D321962B
:10018000C830D10529F7DF91CF911F910F910895C4
:10019000CF93C82F61E088E0A4D388EFD1DF8C2F04
:1001A000807FCEDF8C2F8295807FCADF8FE891E041
:1001B0000197F1F700C0000060E088E0CF9191C3A3
:1001C000CF93C82F61E088E08CD38AEFB9DF8C2F02
:1001D000807FB6DF8C2F8295807FB2DF8FE891E041
:1001E0000197F1F700C0000060E088E0CF9179C38B
:1001F0002FEF87EE93E0215080409040E1F700C060
:10020000000060E08DE06DD32FEF86E791E0215094
:1002100080409040E1F700C0000061E08DE061D3D4
:100220002FEF80E792E0215080409040E1F700C03E
:10023000000080E3ADDF8FE99FE00197F1F700C098
:10024000000080E3A5DF8FE99FE00197F1F700C090
:10025000000088E09DDF8FE99FE00197F1F700C083
:10026000000081E095DF8FE39CE90197F1F700C082
:10027000000086E08DDF8FE99FE00197F1F700C075
:1002800000008CE085DF8FE99FE00197F1F700C067
:10029000000082E07DDF8FE99FE00197F1F700C069
:1002A000000008950F931F93CF938A01813041F08E
:1002B00068F0823041F0833049F4862F886908C0A5
:1002C000862F806905C0862F886802C0862F8068C7
:1002D0005FDFC0E0F801EC0FF11D8081882319F089
:1002E0006FDFCF5FF7CF1082CF911F910F910895ED
:1002F000CF93C82F60E080E1F4D26C2F661F662791
:10030000661F87E1EED2C6FB662760F986E1E9D277
:10031000C5FB662760F985E1E4D2C4FB662760F976
:1003200084E1DFD261E081E1DCD28FEC97E00197DC
:10033000F1F700C0000060E081E1D3D28FEC97E0DC
:100340000197F1F700C00000C3FB662760F987E161
:10035000C8D2C2FB662760F986E1C3D2C1FB66271B
:1003600060F985E1BED26C2F617084E1BAD261E0A0
:1003700081E1B7D28FEC97E00197F1F700C0000060
:1003800060E081E1AED28FEC97E00197F1F700C019
:100390000000CF910895CF93C82F61E080E1A1D2F2
:1003A0006C2F661F6627661F87E19BD2C6FB6627F8
:1003B00060F986E196D2C5FB662760F985E191D2A6
:1003C000C4FB662760F984E18CD261E081E189D2C7
:1003D0008FEC97E00197F1F700C0000060E081E149
:1003E00080D28FEC97E00197F1F700C00000C3FBCB
:1003F000662760F987E175D2C2FB662760F986E15E
:1004000070D2C1FB662760F985E16BD26C2F6170F9
:1004100084E167D261E081E164D28FEC97E00197DB
:10042000F1F700C0000060E081E15BD28FEC97E063
:100430000197F1F700C00000CF91089582E058DFE6
:1004400088E256DF8CE054DF86E052DF81E050DF47
:100450008FE99FE00197F1F700C0000008950F9326
:100460001F93CF938C01C0E0F801EC0FF11D808148
:10047000882319F090DFCF5FF7CF1082CF911F91C3
:100480000F910895982F862F913011F481580BC049
:10049000923011F4815407C0933011F48D5603C08B
:1004A000943031F48D5224DF8AE68A95F1F700C04A
:1004B0000895CF93DF93EA01E5DFCE01DF91CF917D
:1004C000CECFFDD1BBDF23DE93DE46E351E061E01A
:1004D00081E0EFDF4FE351E061E081E0E3DE47E4FC
:1004E00051E061E082E0DEDE2FE38DE093E0215019
:1004F00080409040E1F700C0000049E451E061E035
:1005000082E0D0DE2FE38DE093E0215080409040E8
:10051000E1F700C000004CE451E061E082E0C2DE9F
:100520002FE38DE093E0215080409040E1F700C040
:10053000000040E551E061E082E0B4DE2FE38DE0B1
:1005400093E0215080409040E1F700C0000045E575
:1005500051E061E082E0A6DE2FE38DE093E02150E0
:1005600080409040E1F700C000004BE551E061E0C1
:1005700082E098DEFFCFE82FE695E695E695877056
:10058000613009F485C020F0623009F40BC1089590
:100590004E2F50E04730510508F090C1FA01EA5B58
:1005A000FF4F89C34AB321E030E0B90102C0660FB2
:1005B000771F8A95E2F7CB01942F982B9ABB9BB3B8
:1005C00080957FC047B321E030E0B90102C0660FDB
:1005D000771F8A95E2F7CB01942F982B97BB98B39E
:1005E000809581C044B321E030E0B90102C0660FBC
:1005F000771F8A95E2F7CB01942F982B94BB95B384
:10060000809583C041B321E030E0B90102C0660F9C
:10061000771F8A95E2F7CB01942F982B91BB92B369
:10062000809585C042B121E030E0B90102C0660F7B
:10063000771F8A95E2F7CB01942F982B92B993B14B
:10064000809586C04091610021E030E0B90102C090
:10065000660F771F8A95E2F7CB01942F982B909322
:10066000610090916200809587C04091640021E014
:1006700030E0B90102C0660F771F8A95E2F7CB011F
:10068000942F982B9093640090916500809588C07A
:100690004E2F50E04730510508F010C1FA01E35BDE
:1006A000FF4F09C34AB321E030E0B90102C0660F31
:1006B000771F8A95E2F7CB018095942F98239ABBF8
:1006C0009BB389238BBB089547B321E030E0B90188
:1006D00002C0660F771F8A95E2F7CB018095942FB1
:1006E000982397BB98B3892388BB089544B321E02E
:1006F00030E0B90102C0660F771F8A95E2F7CB019F
:100700008095942F982394BB95B3892385BB089536
:1007100041B321E030E0B90102C0660F771F8A952E
:10072000E2F7CB018095942F982391BB92B3892354
:1007300086C042B121E030E0B90102C0660F771FE8
:100740008A95E2F7CB018095942F982392B993B1C3
:10075000892387C04091610021E030E0B90102C0E7
:10076000660F771F8A95E2F7CB018095942F982327
:100770009093610090916200892388C04091640049
:1007800021E030E0B90102C0660F771F8A95E2F7D9
:10079000CB018095942F98239093640090916500ED
:1007A00089238AC04E2F50E04730510508F086C09B
:1007B000FA01EC5AFF4F7FC24AB321E030E0B901A1
:1007C00002C0660F771F8A95E2F7CB01962F9095AE
:1007D00094239ABB9BB3892B75CF47B321E030E0BC
:1007E000B90102C0660F771F8A95E2F7CB01962FF9
:1007F0009095942397BB98B3892B76CF44B321E08F
:1008000030E0B90102C0660F771F8A95E2F7CB018D
:10081000962F9095942394BB95B3892B77CF41B3B2
:1008200021E030E0B90102C0660F771F8A95E2F738
:10083000CB01962F9095942391BB92B3892B82BBC9
:10084000089542B121E030E0B90102C0660F771F80
:100850008A95E2F7CB01962F9095942392B993B1A4
:10086000892B83B908954091610021E030E0B901FE
:1008700002C0660F771F8A95E2F7CB01962F9095FD
:1008800094239093610090916200892B8093620081
:1008900008954091640021E030E0B90102C0660F84
:1008A000771F8A95E2F7CB01962F9095942390932A
:1008B000640090916500892B8093650008950F93E3
:1008C0001F93CF9304E011E0C0E0F80161918F0124
:1008D0008C2F51DECF5FC233C1F7CF911F910F91A3
:1008E0000895E82FE695E695E6958770613009F062
:1008F00060C04E2F50E04730510508F0CBC0FA01E0
:10090000E55AFF4FD8C14BB321E030E0B90102C036
:10091000660F771F8A95E2F7CB01842B62C048B33C
:1009200021E030E0B90102C0660F771F8A95E2F737
:10093000CB01842B64C045B321E030E0B90102C093
:10094000660F771F8A95E2F7CB01842B66C042B30E
:1009500021E030E0B90102C0660F771F8A95E2F707
:10096000CB01842B68C043B121E030E0B90102C063
:10097000660F771F8A95E2F7CB01842B6AC04091FE
:10098000620021E030E0B90102C0660F771F8A954E
:10099000E2F7CB01842B6CC04091650021E030E090
:1009A000B90102C0660F771F8A95E2F7CB01842B4D
:1009B0006FC061116FC04E2F50E04730510508F0F5
:1009C00069C0FA01EE59FF4F76C14BB321E030E028
:1009D000B90102C0660F771F8A95E2F7CB018095B7
:1009E00084238BBB089548B321E030E0B90102C0F5
:1009F000660F771F8A95E2F7CB018095842388BB29
:100A0000089545B321E030E0B90102C0660F771FB9
:100A10008A95E2F7CB018095842385BB089542B384
:100A200021E030E0B90102C0660F771F8A95E2F736
:100A3000CB018095842382BB089543B121E030E04F
:100A4000B90102C0660F771F8A95E2F7CB01809546
:100A5000842383B908954091620021E030E0B90118
:100A600002C0660F771F8A95E2F7CB018095842339
:100A70008093620008954091650021E030E0B90163
:100A800002C0660F771F8A95E2F7CB018095842319
:100A90008093650008951F920F920FB60F92112454
:100AA0000BB60F922F933F934F935F936F937F9368
:100AB0008F939F93AF93BF93EF93FF93E091680160
:100AC000F0916901309709F00995FF91EF91BF917D
:100AD000AF919F918F917F916F915F914F913F91D6
:100AE0002F910F900BBE0F900FBE0F901F90189577
:100AF0001F920F920FB60F9211240BB60F922F93E5
:100B00003F934F935F936F937F938F939F93AF9395
:100B1000BF93EF93FF93E0916601F09167013097E7
:100B200009F00995FF91EF91BF91AF919F918F913E
:100B30007F916F915F914F913F912F910F900BBEDD
:100B40000F900FBE0F901F9018951F920F920FB627
:100B50000F9211240BB60F922F933F934F935F93F5
:100B60006F937F938F939F93AF93BF93EF93FF9375
:100B7000E0916401F0916501309709F00995FF91CA
:100B8000EF91BF91AF919F918F917F916F915F9105
:100B90004F913F912F910F900BBE0F900FBE0F9072
:100BA0001F9018951F920F920FB60F9211240BB63B
:100BB0000F922F933F934F935F936F937F938F93F6
:100BC0009F93AF93BF93EF93FF93E0916201F091F6
:100BD0006301309709F00995FF91EF91BF91AF91B3
:100BE0009F918F917F916F915F914F913F912F9145
:100BF0000F900BBE0F900FBE0F901F9018951F9275
:100C00000F920FB60F9211240BB60F922F933F93B2
:100C10004F935F936F937F938F939F93AF93BF9304
:100C2000EF93FF93E0910201F0910301E230F105AF
:100C300009F00995FF91EF91BF91AF919F918F912D
:100C40007F916F915F914F913F912F910F900BBECC
:100C50000F900FBE0F901F9018951F920F920FB616
:100C60000F9211240BB60F922F933F934F935F93E4
:100C70006F937F938F939F93AF93BF93EF93FF9364
:100C8000E0910001F0910101E230F10509F00995D0
:100C9000FF91EF91BF91AF919F918F917F916F9154
:100CA0005F914F913F912F910F900BBE0F900FBE10
:100CB0000F901F901895EE0FFF1F0024001C0BBE15
:0C0CC0000790F691E02D0994F894FFCF06
:100CCC000200020000000000000000000000000113
:100CDC000000010000000000000000000000000007
:100CEC0000000000000002020000010001010102EE
:100CFC000000010000004D61737465723A200057CA
:100D0C00656C636F6D650031003132003132330038
:100D1C0031323334003132333435003132333435FF
:020D2C0036008F
:00000001FF
