:100000000C942A000C9447000C9447000C94470071
:100010000C9447000C9447000C94C5000C9473009A
:100020000C949C000C944A000C9447000C944700DC
:100030000C9447000C94EE000C9447000C941801AB
:100040000C9447000C9447000C9447000C94470014
:100050000C94470011241FBECFE5D8E0DEBFCDBF12
:1000600010E0A0E6B0E0E8E8F2E002C005900D92F2
:10007000A436B107D9F720E0A4E6B0E001C01D9294
:10008000AC36B207E1F70E9449000C9442010C948F
:100090000000FFCF1F920F920FB60F9211242F93E3
:1000A0003F934F935F936F937F938F939F93AF9300
:1000B000BF93EF93FF93E0916A00F0916B0030974C
:1000C00009F00995FF91EF91BF91AF919F918F91A9
:1000D0007F916F915F914F913F912F910F900FBE44
:1000E0000F901F9018951F920F920FB60F92112428
:1000F0002F933F934F935F936F937F938F939F9330
:10010000AF93BF93EF93FF93E0916800F091690084
:10011000309709F00995FF91EF91BF91AF919F91B1
:100120008F917F916F915F914F913F912F910F90A0
:100130000FBE0F901F9018951F920F920FB60F923F
:1001400011242F933F934F935F936F937F938F93DC
:100150009F93AF93BF93EF93FF93E0916600F0916D
:100160006700309709F00995FF91EF91BF91AF912A
:100170009F918F917F916F915F914F913F912F91BF
:100180000F900FBE0F901F9018951F920F920FB6F1
:100190000F9211242F933F934F935F936F937F930D
:1001A0008F939F93AF93BF93EF93FF93E09164007E
:1001B000F0916500309709F00995FF91EF91BF919B
:1001C000AF919F918F917F916F915F914F913F91EF
:1001D0002F910F900FBE0F901F9018951F920F92A6
:1001E0000FB60F9211242F933F934F935F936F930A
:1001F0007F938F939F93AF93BF93EF93FF93E09180
:100200006200F0916300E230F10509F00995FF9179
:10021000EF91BF91AF919F918F917F916F915F917E
:100220004F913F912F910F900FBE0F901F901895F7
:100230001F920F920FB60F9211242F933F934F935B
:100240005F936F937F938F939F93AF93BF93EF933E
:10025000FF93E0916000F0916100E230F10509F058
:100260000995FF91EF91BF91AF919F918F917F91F0
:100270006F915F914F913F912F910F900FBE0F9013
:080280001F901895F894FFCFC0
:04028800020002006E
:00000001FF
