S01100004C6F61642043656C6C2E73726563F3
S11300007FC0000092C2000099C0000097C00000A9
S113001095C0000093C000000C94110B0C94B70A17
S11300200C94E40A0C948A0A89C0000087C000007A
S113003085C000000C94C30B81C000000C94F10B2C
S11300407DC000007BC0000079C0000077C00000C4
S113005075C0000073C0000071C000006FC00000D4
S11300606DC000006BC0000069C0000067C00000E4
S113007065C0000063C0000061C000005FC00000F4
S11300805DC000005BC0000059C00000E806F8062F
S113009008071807280738074B0768077A078C07EB
S11300A09E07AF07C007D407F20703081408250802
S11300B0370849085F089908A508B108BD08C908A8
S11300C0D508E208FB08090917092509330941097C
S11300D05109700972097409760978097A097C0949
S11300E0910993099509970999099B099D099F0904
S11300F0AB09CF09F109FD09090A230A3D0A570A88
S113010011241FBECFEFD0E1DEBFCDBF11E0A0E0D0
S1130110B1E0EAE3FDE100E00BBF02C007900D92FD
S1130120A43BB107D9F725E0A4EBB1E001C01D92CF
S1130130A13EB207E1F732D60C949B0E61CFD5D71E
S113014012D5FFD16FD260E08FE02BD60E94720AE5
S113015080E00E94880940E060E875E280E090E079
S11301600E943E0B78944EE051E060E080E0D4D2EF
S113017045E151E060E081E0CFD22FEF85EA9EE0D7
S1130180215080409040E1F700C00000A7C32F92A7
S11301903F924F925F926F927F928F929F92AF9213
S11301A0BF92CF92DF92EF92FF920F931F93CF9360
S11301B0DF936B017C018090000190900101A0907D
S11301C00201B090030120E030E048E452E4C501AC
S11301D0B4010E943A0C2B013C012090B8013090EC
S11301E0B901C0E0D0E0A3019201C701B6010E94A9
S11301F0ED0D18160CF03FC020E030E048E452E466
S1130200C501B4010E94390C9B01AC01C701B601C0
S11302100E94A20C0E940F0D1B018E010F5F1F4F45
S1130220A5019401C701B6010E94390C6B017C0140
S113023020E030E04FEA53E4C501B4010E943A0CD7
S11302409B01AC01C701B6010E94ED0D87FD11C0F1
S113025020E030E048EC53E4C501B4010E943A0CBC
S11302609B01AC01C701B6010E949E0C18160CF04C
S11302708E01E801B8CF3092B9012092B801CE01C5
S1130280DF91CF911F910F91FF90EF90DF90CF906E
S1130290BF90AF909F908F907F906F905F904F90A2
S11302A03F902F9008954F925F926F927F928F921A
S11302B09F92AF92BF92CF92DF92EF92FF92CF9331
S11302C0DF936B017C018090000190900101A0906C
S11302D00201B090030120E030E048EC53E4C50192
S11302E0B4010E943A0C2B013C01C0E0D0E0A30110
S11302F09201C701B6010E94ED0D87FD2AC020E0DE
S113030030E04FEA53E4C501B4010E943A0C9B016A
S1130310AC01C701B6010E94ED0D87FD09C0A30120
S11303209201C701B6010E949E0C18160CF021968A
S113033020E030E048E452E4C501B4010E943A0CE4
S11303409B01AC01C701B6010E94390C6B017C0111
S1130350CECF20E030E04FEA53E4C501B4010E945F
S11303603A0C9B01AC01C701B6010E94ED0D87FF59
S1130370C6CFCE01DF91CF91FF90EF90DF90CF9069
S1130380BF90AF909F908F907F906F905F904F90B1
S11303900895CF92DF92EF92FF920F93CF9307D3FA
S11303A06B017C0120E030E0A9010E949E0C87FDD6
S11303B009C0C092DD05D092DE05E092DF05F0921F
S11303C0E00508C01092DD051092DE051092DF05ED
S11303D01092E0056091DD057091DE058091DF05E6
S11303E09091E0050E940A0D9B01AC0166E083E058
S11303F0B9D120E030E04AE754E46091DD05709122
S1130400DE058091DF059091E0050E94A20C6B014E
S11304107C0102E09B01AC0160E083E0C9D1609102
S1130420DD057091DE058091DF059091E005AFDE7A
S11304309093BB018093BA0141E251E060E080E017
S11304406BD12091BA013091BB0140E050E066E0ED
S113045080E088D16091DD057091DE058091DF0533
S11304609091E00520DF9093B7018093B6014EE2AE
S113047051E060E081E050D12091B6013091B701A4
S113048040E050E066E081E06DD12091BA01309106
S1130490BB018091B6019091B701820F931F909395
S11304A0B5018093B40149E351E060E082E034D1C6
S11304B02091B4013091B50140E050E066E082E063
S11304C051D12091040130E04DEC51E0C701B60157
S11304D0F8D340E06AE08DEC91E00E941F0CC1E08B
S11304E080910501811111C042E451E060E083E094
S11304F013D1C701B6010E940A0D9B01AC0166E04D
S113050083E030D1C0930501EBCF2FEF85EA9EE065
S1130510215080409040E1F700C00000CF910F913E
S1130520FF90EF90DF90CF9008951F920F920FB637
S11305300F921124109205010F900FBE0F901F907F
S11305401895D3D560E08DE02CD460E088E029D400
S113055060E08AE026D460E089E023D461E08DE0A5
S1130560D6D560E088E0D3D560E08AE0D0D560E0FD
S113057089E0CDC50F931F93CF93DF93C0E0D0E004
S1130580082F10E0C8010C2E01C0880F0A94EAF766
S113059087FF02C061E001C060E08AE0B8D561E095
S11305A089E0B5D585E38A95F1F7000060E089E03C
S11305B0AED52196C830D10529F7DF91CF911F918F
S11305C00F910895CF93C82F61E088E0A0D588EFFC
S11305D0D1DF8C2F807FCEDF8C2F8295807FCADF86
S11305E08FE891E00197F1F700C0000060E088E037
S11305F0CF918DC5CF93C82F61E088E088D58AEF6D
S1130600B9DF8C2F807FB6DF8C2F8295807FB2DF9D
S11306108FE891E00197F1F700C0000060E088E006
S1130620CF9175C52FEF87EE93E021508040904025
S1130630E1F700C0000061E08DE069D52FEF86E7A7
S113064091E0215080409040E1F700C0000061E05B
S11306508DE05DD52FEF80E792E0215080409040FF
S1130660E1F700C0000080E3ADDF8FE99FE0019770
S1130670F1F700C0000080E3A5DF8FE99FE0019758
S1130680F1F700C0000088E09DDF8FE99FE001974B
S1130690F1F700C0000081E095DF8FE39CE901974A
S11306A0F1F700C0000086E08DDF8FE99FE001973D
S11306B0F1F700C000008CE085DF8FE99FE001972F
S11306C0F1F700C0000082E07DDF8FE99FE0019731
S11306D0F1F700C000000895CF93DF93D42F813049
S11306E041F068F0823041F0833049F4862F886904
S11306F008C0862F806905C0862F886802C0862FAF
S1130700806860DFC0E0CD1721F080E273DFCF5F47
S1130710FACFDF91CF9108950F931F93CF938A015E
S1130720813041F068F0823041F0833049F4862F03
S1130730886908C0862F806905C0862F886802C032
S1130740862F80683FDFC0E0F801EC0FF11D808147
S1130750882319F04FDFCF5FF7CF1082CF911F911D
S11307600F9108950F931F93CF93DF9300D000D080
S113077000D0CDB7DEB7182F062FCA01B901AE01DC
S11307804F5F5F4F2FD244E0602F812FA5DFAE0172
S11307904F5F5F4F602F812FBFDF26960FB6F8940F
S11307A0DEBF0FBECDBFDF91CF911F910F91089592
S11307B0FF920F931F93CF93DF9300D000D000D00C
S11307C0CDB7DEB7182FF62ECA01B901202F30E0BD
S11307D0AE014F5F5F4F75D244E06F2D812F7CDFF8
S11307E0AE014F5F5F4F6F2D812F96DF26960FB6B8
S11307F0F894DEBF0FBECDBFDF91CF911F910F9153
S1130800FF900895CF93DF938091BC018130F1F480
S1130810C0E0C03238F48C2F8068D4DE80E8D2DEA9
S1130820D8E006C080EE8C0F8068CCDE88E8F7CF75
S113083080E0E0DE85E38A95F1F7000080E0DADE0F
S1130840D150B1F7CF5FC03421F708C081E0BADEE0
S113085087EC90E00197F1F700C00000DF91CF91A1
S11308600895CF92DF92EF92FF92CF9360E08EE0F3
S113087098D261E08EE04BD460E08FE048D461E030
S11308808EE08FD28EE01DD58111FCCFC8E1C12C42
S1130890D12C760161E08FE03AD4CC0CDD1CEE1C47
S11308A0FF1C60E08FE033D48EE00BD5882329F061
S11308B02FEFC21AD20AE20AF20AC15059F761E0D4
S11308C08FE025D460E08FE022D4C701B6018058C0
S11308D0CF91FF90EF90DF90CF900895CF934FE7A3
S11308E051E060E080E018DF4EE851E060E081E034
S11308F013DF1092C1011092C2011092C301109231
S1130900C401C4E6AEDF6093BD017093BE01809361
S1130910BF019093C0014091BD015091BE0160910F
S1130920BF017091C0018091C1019091C201A09159
S1130930C301B091C401840F951FA61FB71F8093F4
S1130940C1019093C201A093C301B093C401C150EB
S1130950C9F66091C1017091C2018091C301909167
S1130960C4010E943D0D20E030E048EC52E4EAD797
S11309700E940A0D6093C1017093C2018093C30168
S11309809093C4014DE951E060E080E0C5DE4EEA99
S113099051E060E081E0C0DE2FEF89E698E121506C
S11309A080409040E1F700C00000CF912BCF4F92E0
S11309B05F926F927F928F929F92AF92BF92CF92EB
S11309C0DF92EF92FF920F931F93CF93DF9300D0A8
S11309D000D0CDB7DEB745DF6093BD017093BE0193
S11309E08093BF019093C0018091BD019091BE019D
S11309F0A091BF01B091C0010091C1011091C20149
S1130A002091C3013091C4018090060190900701A8
S1130A10A0900801B0900901C090BD01D090BE0122
S1130A20E090BF01F090C0014091C1015091C2011A
S1130A306091C3017091C40149835A836B837C83A1
S1130A4040900601509007016090080170900901E0
S1130A50BC01CD01601B710B820B930B0E943D0DF9
S1130A60A50194016FD74B015C01C701B60129812F
S1130A703A814B815C81621B730B840B950BFDD710
S1130A80A30192015FD79B01AC01F4D69B01AC0199
S1130A90C501B401EED60F900F900F900F90DF9127
S1130AA0CF911F910F91FF90EF90DF90CF90BF9067
S1130AB0AF909F908F907F906F905F904F9008952C
S1130AC0CF93C82F60E080E122D36C2F661F662786
S1130AD0661F87E11CD3C6FB662760F986E117D33E
S1130AE0C5FB662760F985E112D3C4FB662760F96C
S1130AF084E10DD361E081E10AD38FEC97E00197A3
S1130B00F1F700C0000060E081E101D38FEC97E0D1
S1130B100197F1F700C00000C3FB662760F987E185
S1130B20F6D2C2FB662760F986E1F1D2C1FB6627E3
S1130B3060F985E1ECD26C2F617084E1E8D261E068
S1130B4081E1E5D28FEC97E00197F1F700C0000056
S1130B5060E081E1DCD28FEC97E00197F1F700C00F
S1130B600000CF9108952FE788E391E02150804061
S1130B709040E1F700C0000082E0A2DF88E2A0DF3D
S1130B808CE09EDF81E09CDF8FEC97E00197F1F72A
S1130B9000C0000086E094CF9C0180E0F901E80FDA
S1130BA0F11D9081992311F08F5FF8CF0895CF93B1
S1130BB0DF93EC01F1DF90E09E01280F391FFE0165
S1130BC0959587958C0F9D1FE817F90741F0408193
S1130BD021503109D9015C9151934C93F5CFDF91A8
S1130BE0CF9108958F929F92AF92BF92DF92EF922E
S1130BF0FF920F931F93CF93DF93EA016115710561
S1130C008105910509F44EC000E010E02AE0822E2F
S1130C10912CA12CB12C3DE2D32E97FF1FC09095AF
S1130C208095709561957F4F8F4F9F4F7E01A501F1
S1130C3094010E94760E605DF70161937F01B90112
S1130C40CA018F010C1B1D0B6115710581059105EE
S1130C5071F7FE01E00FF11FD0820CC07E01E00E9F
S1130C60F11EA50194010E94760E605DF701608378
S1130C70B901CA010F5F1F4F611571058105910507
S1130C8061F6FE01E00FF11F1082CE01DF91CF91DA
S1130C901F910F91FF90EF90DF90BF90AF909F90C6
S1130CA08F9085CF80E388831982DF91CF911F9144
S1130CB00F91FF90EF90DF90BF90AF909F908F9037
S1130CC008956F927F928F929F92AF92BF92CF922C
S1130CD0DF92EF92FF920F931F93CF93DF936B01F9
S1130CE07C01EA01890120E030E0A90127D687FFD1
S1130CF007C08DE28883F7FAF094F7F8F094219610
S1130D00C701B60187D64B01770FAA08BB08AE010D
S1130D10C501B40167DF3E019E012F5F3F4F88810B
S1130D20882311F0E901F7CF8EE28883C501B4016D
S1130D30A4D69B01AC01C701B6019BD57E01E00E90
S1130D40F11ECE15DF05B9F020E030E040E251E4B9
S1130D5048D74B015C015ED620E3260F2983072E7A
S1130D60000C880B990B89D69B01AC01C501B40119
S1130D7080D52196E6CFF301E00FF11F1182DF91B8
S1130D80CF911F910F91FF90EF90DF90CF90BF9084
S1130D90AF909F908F907F906F900895D0D9F9DA9B
S1130DA0FECFE82FE695E695E6958770613009F465
S1130DB085C020F0623009F40BC108954E2F50E035
S1130DC04730510508F090C1FA01EA5BFF4FAAC70A
S1130DD04AB321E030E0B90102C0660F771F8A955B
S1130DE0E2F7CB01942F982B9ABB9BB380957FC0DD
S1130DF047B321E030E0B90102C0660F771F8A953E
S1130E00E2F7CB01942F982B97BB98B3809581C0C0
S1130E1044B321E030E0B90102C0660F771F8A9520
S1130E20E2F7CB01942F982B94BB95B3809583C0A4
S1130E3041B321E030E0B90102C0660F771F8A9503
S1130E40E2F7CB01942F982B91BB92B3809585C088
S1130E5042B121E030E0B90102C0660F771F8A95E4
S1130E60E2F7CB01942F982B92B993B1809586C069
S1130E704091610021E030E0B90102C0660F771FA4
S1130E808A95E2F7CB01942F982B9093610090916F
S1130E906200809587C04091640021E030E0B90190
S1130EA002C0660F771F8A95E2F7CB01942F982B27
S1130EB09093640090916500809588C04E2F50E017
S1130EC04730510508F010C1FA01E35BFF4F2AC710
S1130ED04AB321E030E0B90102C0660F771F8A955A
S1130EE0E2F7CB018095942F98239ABB9BB3892377
S1130EF08BBB089547B321E030E0B90102C0660F0F
S1130F00771F8A95E2F7CB018095942F982397BB9E
S1130F1098B3892388BB089544B321E030E0B90134
S1130F2002C0660F771F8A95E2F7CB018095942F54
S1130F30982394BB95B3892385BB089541B321E0DD
S1130F4030E0B90102C0660F771F8A95E2F7CB0142
S1130F508095942F982391BB92B3892386C042B184
S1130F6021E030E0B90102C0660F771F8A95E2F7ED
S1130F70CB018095942F982392B993B1892387C08C
S1130F804091610021E030E0B90102C0660F771F93
S1130F908A95E2F7CB018095942F98239093610072
S1130FA090916200892388C04091640021E030E080
S1130FB0B90102C0660F771F8A95E2F7CB018095CD
S1130FC0942F9823909364009091650089238AC09C
S1130FD04E2F50E04730510508F086C0FA01EC5A14
S1130FE0FF4FA0C64AB321E030E0B90102C0660F4A
S1130FF0771F8A95E2F7CB01962F909594239ABB9D
S11310009BB3892B75CF47B321E030E0B90102C00F
S1131010660F771F8A95E2F7CB01962F909594235C
S113102097BB98B3892B76CF44B321E030E0B90164
S113103002C0660F771F8A95E2F7CB01962F909531
S1131040942394BB95B3892B77CF41B321E030E04F
S1131050B90102C0660F771F8A95E2F7CB01962F7C
S11310609095942391BB92B3892B82BB089542B18E
S113107021E030E0B90102C0660F771F8A95E2F7DC
S1131080CB01962F9095942392B993B1892B83B970
S113109008954091610021E030E0B90102C0660F7B
S11310A0771F8A95E2F7CB01962F9095942390931E
S11310B0610090916200892B8093620008954091B1
S11310C0640021E030E0B90102C0660F771F8A9501
S11310D0E2F7CB01962F909594239093640090911E
S11310E06500892B8093650008950F931F93CF9318
S11310F00DE411E0C0E0F80161918F018C2F51DE05
S1131100CF5FC233C1F7CF911F910F910895E82F9C
S1131110E695E695E6958770613009F060C04E2F3C
S113112050E04730510508F0CBC0FA01E55AFF4FB3
S1131130F9C54BB321E030E0B90102C0660F771F57
S11311408A95E2F7CB01842B62C048B321E030E0FA
S1131150B90102C0660F771F8A95E2F7CB01842B91
S113116064C045B321E030E0B90102C0660F771FC7
S11311708A95E2F7CB01842B66C042B321E030E0CC
S1131180B90102C0660F771F8A95E2F7CB01842B61
S113119068C043B121E030E0B90102C0660F771F97
S11311A08A95E2F7CB01842B6AC04091620021E06A
S11311B030E0B90102C0660F771F8A95E2F7CB01D0
S11311C0842B6CC04091650021E030E0B90102C07D
S11311D0660F771F8A95E2F7CB01842B6FC06111EC
S11311E06FC04E2F50E04730510508F069C0FA0136
S11311F0EE59FF4F97C54BB321E030E0B90102C06F
S1131200660F771F8A95E2F7CB01809584238BBB09
S1131210089548B321E030E0B90102C0660F771F9A
S11312208A95E2F7CB018095842388BB089545B362
S113123021E030E0B90102C0660F771F8A95E2F71A
S1131240CB018095842385BB089542B321E030E02F
S1131250B90102C0660F771F8A95E2F7CB0180952A
S1131260842382BB089543B121E030E0B90102C078
S1131270660F771F8A95E2F7CB018095842383B9A3
S113128008954091620021E030E0B90102C0660F88
S1131290771F8A95E2F7CB018095842380936200BF
S11312A008954091650021E030E0B90102C0660F65
S11312B0771F8A95E2F7CB0180958423809365009C
S11312C00895282F2770E82FE695E695E6958E2F4A
S11312D090E087309105D0F4FC01E759FF4F22C517
S11312E089B30CC086B30AC083B308C080B306C0F8
S11312F081B104C080B102C08091630090E002C05B
S1131300959587952A95E2F78170089580E0089570
S113131090E088309105A8F4FC01E059FF4F89B7AB
S113132001C581600DC082600BC0846009C0886003
S113133007C0806105C0806203C0806401C080680A
S113134089BF089590E08830910508F0CAC0FC0177
S1131350E858FF4FE7C4613051F028F0623091F053
S11313606330A1F0089580916A008E7F03C080915C
S11313706A00816080936A0080916A008D7F809307
S11313806A00089580916A008E7F03C080916A008C
S1131390816080936A0080916A008260F0CF61303E
S11313A051F028F0623081F0633091F0089580911B
S11313B06A008B7F03C080916A00846080936A0016
S11313C080916A00877FDBCF80916A008B7F03C0A6
S11313D080916A00846080936A0080916A008860CA
S11313E0CECF613009F454C008F44FC0623009F420
S11313F055C0633009F455C00895613009F462C0E2
S113140008F45DC0623009F463C0633009F463C05A
S11314100895613049F028F0623061F0633069F07A
S113142008958AB78E7F02C08AB781608ABF8AB75F
S11314308D7F56C08AB78E7F02C08AB781608ABF0B
S11314408AB782604DC0613049F028F0623061F0A3
S1131450633069F008958AB78B7F02C08AB78460CD
S11314608ABF8AB7877F3CC08AB78B7F02C08AB79E
S113147084608ABF8AB7886033C0613049F028F03D
S1131480623061F0633069F008958AB78F7E02C0DC
S11314908AB780618ABF8AB78F7D22C08AB78F7E60
S11314A002C08AB780618ABF8AB7806219C061307E
S11314B049F028F0623061F0633069F008958AB72A
S11314C08F7B02C08AB780648ABF8AB78F7708C0CF
S11314D08AB78F7B02C08AB780648ABF8AB7806864
S11314E08ABF089562E080E02DDF62E081E02ADFB8
S11314F062E082E027DF62E083E024DF63E084E0EF
S113150021DF63E085E01EDF63E086E01BDF63E04C
S113151087E018CF1F920F920FB60F9211240BB6CB
S11315200F922F933F934F935F936F937F938F9378
S11315309F93AF93BF93EF93FF93E091CB01F0910F
S1131540CC01309709F00995FF91EF91BF91AF91CC
S11315509F918F917F916F915F914F913F912F91C7
S11315600F900BBE0F900FBE0F901F9018951F92F7
S11315700F920FB60F9211240BB60F922F933F9335
S11315804F935F936F937F938F939F93AF93BF9387
S1131590EF93FF93E091C901F091CA01309709F0EC
S11315A00995FF91EF91BF91AF919F918F917F9199
S11315B06F915F914F913F912F910F900BBE0F90C0
S11315C00FBE0F901F9018951F920F920FB60F9297
S11315D011240BB60F922F933F934F935F936F9306
S11315E07F938F939F93AF93BF93EF93FF93E09178
S11315F0C701F091C801309709F00995FF91EF9167
S1131600BF91AF919F918F917F916F915F914F9116
S11316103F912F910F900BBE0F900FBE0F901F9014
S113162018951F920F920FB60F9211240BB60F92BA
S11316302F933F934F935F936F937F938F939F93D6
S1131640AF93BF93EF93FF93E091C501F091C6016F
S1131650309709F00995FF91EF91BF91AF919F9158
S11316608F917F916F915F914F913F912F910F9047
S11316700BBE0F900FBE0F901F9018951F93CF9322
S1131680DF93142F9B01AC0183E0220F331F441F0F
S1131690551F8A95D1F760E074E284EF90E004D39B
S11316A0E9012197111127C061E080E27ADB60E053
S11316B081E277DBD0939000C9B982E08BB9809145
S11316C095008F7D80939500809195008F7E809307
S11316D0950080919500877F809395008091950077
S11316E0846080939500809195008260809395003A
S11316F0539A549A35C0113099F561E08AE151DB6F
S113170060E08BE14EDBD0939800C093990082E0B7
S113171080939B0080919D008F7D80939D0080919C
S11317209D008F7E80939D0080919D00877F809394
S11317309D0080919D00846080939D0080919D0018
S1131740826080939D0086E080939D0080919A0042
S1131750886080939A0080919A00806180939A00B7
S1131760DF91CF911F910895611104C05D9BFECF5D
S11317708CB90895613031F490919B0095FFFCCFB2
S113178080939C0008951F920F920FB60F9211241C
S11317900BB60F922F933F934F935F936F937F9367
S11317A08F939F93AF93BF93EF93FF93E0910C01BB
S11317B0F0910D01E230F10509F00995FF91EF91E7
S11317C0BF91AF919F918F917F916F915F914F9155
S11317D03F912F910F900BBE0F900FBE0F901F9053
S11317E018951F920F920FB60F9211240BB60F92F9
S11317F02F933F934F935F936F937F938F939F9315
S1131800AF93BF93EF93FF93E0910A01F0910B0123
S1131810E230F10509F00995FF91EF91BF91AF9185
S11318209F918F917F916F915F914F913F912F91F4
S11318300F900BBE0F900FBE0F901F901895EF9254
S1131840FF921F93CF93DF937C01162FD42FC0E018
S1131850F701EC0FF11D80816D2F882319F084DFCF
S1131860CF5FF6CF812FDF91CF911F91FF90EF9043
S11318707BCF5058BB27AA270ED075C166D130F054
S11318806BD120F031F49F3F11F41EF45BC10EF4D0
S1131890E095E7FB51C1E92F77D180F3BA176207CE
S11318A073078407950718F071F49EF58FC10EF441
S11318B0E0950B2EBA2FA02D0B01B90190010C015C
S11318C0CA01A0011124FF27591B99F0593F50F474
S11318D0503E68F11A16F040A22F232F342F4427CC
S11318E0585FF3CF469537952795A795F0405395C4
S11318F0C9F77EF41F16BA0B620B730B840BBAF094
S11319009150A1F0FF0FBB1F661F771F881FC2F7FE
S11319100EC0BA0F621F731F841F48F48795779512
S11319206795B795F7959E3F08F0B3CF9395880FC9
S113193008F09927EE0F979587950895D9D008F464
S113194081E008950CD00FC107D140F0FED030F0F3
S113195021F45F3F19F0F0C0511139C1F3C014D123
S113196098F39923C9F35523B1F3951B550BBB2762
S1131970AA2762177307840738F09F5F5F4F220F0F
S1131980331F441FAA1FA9F333D00E2E3AF0E0E808
S113199030D091505040E695001CCAF729D0FE2F54
S11319A027D0660F771F881FBB1F261737074807E6
S11319B0AB07B0E809F0BB0B802DBF01FF2793589C
S11319C05F4F2AF09E3F510568F0B6C000C15F3FEB
S11319D0ECF3983EDCF3869577956795B795F79584
S11319E09F5FC9F7880F911D9695879597F908957C
S11319F0E1E0660F771F881FBB1F62177307840718
S1131A00BA0720F0621B730B840BBA0BEE1F88F726
S1131A10E095089504D06894B111D9C00895BCD05C
S1131A2088F09F5790F0B92F9927B751A0F0D1F0C3
S1131A30660F771F881F991F1AF0BA95C9F712C04D
S1131A40B13081F0C3D0B1E00895C0C0672F782FC2
S1131A508827B85F39F0B93FCCF3869577956795B9
S1131A60B395D9F73EF490958095709561957F4F25
S1131A708F4F9F4F0895E89409C097FB3EF49095CB
S1131A808095709561957F4F8F4F9F4F9923A9F053
S1131A90F92F96E9BB279395F695879577956795E2
S1131AA0B795F111F8CFFAF4BB0F11F460FF1BC026
S1131AB06F5F7F4F8F4F9F4F16C0882311F096E9B9
S1131AC011C0772321F09EE8872F762F05C0662367
S1131AD071F096E8862F70E060E02AF09A95660F20
S1131AE0771F881FDAF7880F9695879597F90895D9
S1131AF0990F0008550FAA0BE0E8FEEF161617061B
S1131B00E807F907C0F012161306E407F50798F082
S1131B10621B730B840B950B39F40A2661F0232B9B
S1131B20242B252B21F408950A2609F4A140A69517
S1131B308FEF811D811D089597F99F6780E870E0FC
S1131B4060E008959FEF80EC089500240A9416162F
S1131B50170618060906089500240A941216130697
S1131B60140605060895092E0394000C11F4882325
S1131B7052F0BB0F40F4BF2B11F460FF04C06F5F41
S1131B807F4F8F4F9F4F089557FD9058440F551F17
S1131B9059F05F3F71F04795880F97FB991F61F0EB
S1131BA09F3F79F087950895121613061406551F62
S1131BB0F2CF4695F1DF08C0161617061806991FCE
S1131BC0F1CF86957105610508940895E894BB27C3
S1131BD066277727CB0197F908958ADF08F48FEFFA
S1131BE008950BD0C0CFB1DF28F0B6DF18F09523ED
S1131BF009F0A2CFA7CF1124EACFC6DFA0F3959FA7
S1131C00D1F3950F50E0551F629FF001729FBB27DF
S1131C10F00DB11D639FAA27F00DB11DAA1F649F8B
S1131C206627B00DA11D661F829F2227B00DA11D3E
S1131C30621F739FB00DA11D621F839FA00D611DC4
S1131C40221F749F3327A00D611D231F849F600DE5
S1131C50211D822F762F6A2F11249F5750408AF01E
S1131C60E1F088234AF0EE0FFF1FBB1F661F771FAA
S1131C70881F91505040A9F79E3F510570F05CCFEA
S1131C80A6CF5F3FECF3983EDCF386957795679596
S1131C90B795F795E7959F5FC1F7FE2B880F911DC8
S1131CA09695879597F90895A1E21A2EAA1BBB1B56
S1131CB0FD010DC0AA1FBB1FEE1FFF1FA217B30714
S1131CC0E407F50720F0A21BB30BE40BF50B661F2A
S1131CD0771F881F991F1A9469F7609570958095EE
S1131CE090959B01AC01BD01CF010895052E97FB92
S1131CF016F400940FD057FD05D0D6DF07FC02D0B0
S1131D0046F408C050954095309521953F4F4F4F6C
S1131D105F4F089590958095709561957F4F8F4F93
S1131D209F4F0895EE0FFF1F0024001C0BBE079069
S10D1D30F691E02D0994F894FFCF1A
S1131D3A0040F6440301F628CA410200020057652E
S1131D4A69676874004D6561737572656D656E7453
S1131D5A004E6F726D616C537065633D200053745D
S1131D6A72616E6765203D2000546F74616C203D7A
S1131D7A2000486F6C642056616C3A200000000011
S1131D8A0000000000000000020000010000000042
S1131D9A0000000000020000000000010000000230
S1131DAA02000001000000020200000100000043DA
S1131DBA616C6962726174696E672E2E2E00506CB2
S1131DCA6561736520576169742E2E2E005A6572F7
S1131DDA6F2043616C6962726174696F6E00446F4B
S1071DEA6E652100FD
S9030000FC
