S01400004D61696E2050726F6A6563742E7372656394
S3150800000000500020D50B00082D0B00082F0B000808
S31508000010310B0008330B0008350B00080000000000
S31508000020000000000000000000000000370B000878
S31508000030390B0008000000003B0B00083D0B0008C8
S315080000401D0C00081D0C00081D0C00081D0C0008DE
S315080000501D0C00081D0C00081D0C00081D0C0008CE
S315080000601D0C00081D0C00081D0C00081D0C0008BE
S315080000701D0C00081D0C00081D0C00081D0C0008AE
S315080000801D0C00081D0C00081D0C00081D0C00089E
S315080000901D0C00081D0C00081D0C00081D0C00088E
S315080000A01D0C00081D0C00081D0C00081D0C00087E
S315080000B01D0C00081D0C00081D0C00081D0C00086E
S315080000C01D0C00081D0C00081D0C00081D0C00085E
S315080000D01D0C00081D0C00081D0C00081D0C00084E
S315080000E01D0C00081D0C00081D0C0008000000006F
S315080000F000000000000000000000000000000000F2
S3110800010000000000000000005FF808F195
S3150800010C10B5054C237833B9044B13B10448AFF337
S3150800011C00800123237010BD680000200000000039
S3150800012CC437000808B5034B1BB103490348AFF3A2
S3150800013C008008BD000000006C000020C4370008D1
S3150800014C81F0004102E000BF83F0004330B54FEA6E
S3150800015C41044FEA430594EA050F08BF90EA020FDB
S3150800016C1FBF54EA000C55EA020C7FEA645C7FEA6E
S3150800017C655C00F0E2804FEA5454D4EB5555B8BF91
S3150800018C6D420CDD2C4480EA020281EA030382EA02
S3150800019C000083EA010180EA020281EA0303362D94
S315080001AC88BF30BD11F0004F4FEA01314FF4801C67
S315080001BC4CEA113102D0404261EB410113F0004F79
S315080001CC4FEA03334CEA133302D0524263EB430330
S315080001DC94EA050F00F0A780A4F10104D5F1200ECE
S315080001EC0DDB02FA0EFC22FA05F2801841F1000129
S315080001FC03FA0EF2801843FA05F359410EE0A5F1FD
S3150800020C20050EF1200E012A03FA0EFC28BF4CF02D
S3150800021C020C43FA05F3C01851EBE37101F00045E3
S3150800022C07D54FF0000EDCF1000C7EEB00006EEBF0
S3150800023C0101B1F5801F1BD3B1F5001F0CD349087A
S3150800024C5FEA30004FEA3C0C04F101044FEA4452D1
S3150800025C12F5800F80F09A80BCF1004F08BF5FEA58
S3150800026C500C50F1000041EB045141EA050130BD38
S3150800027C5FEA4C0C404141EB0101013C28BFB1F54A
S3150800028C801FE9D291F0000F04BF01460020B1FA95
S3150800029C81F308BF2033A3F10B03B3F120020CDA68
S315080002AC0C3208DD02F1140CC2F10C0201FA0CF046
S315080002BC21FA02F10CE002F11402D8BFC2F1200CAB
S315080002CC01FA02F120FA0CFCDCBF41EA0C01904061
S315080002DCE41AA2BF01EB0451294330BD6FEA0404AA
S315080002EC1F3C1CDA0C340EDC04F11404C4F1200295
S315080002FC20FA04F001FA02F340EA030021FA04F3A7
S3150800030C45EA030130BDC4F10C04C4F1200220FAFD
S3150800031C02F001FA04F340EA0300294630BD21FA3B
S3150800032C04F0294630BD94F0000F83F4801306BF01
S3150800033C81F480110134013D4EE77FEA645C18BFF5
S3150800034C7FEA655C29D094EA050F08BF90EA020F8C
S3150800035C05D054EA000C04BF1946104630BD91EA84
S3150800036C030F1EBF0021002030BD5FEA545C05D187
S3150800037C4000494128BF41F0004130BD14F58004C6
S3150800038C3CBF01F5801130BD01F0004545F0FE413A
S3150800039C41F470014FF0000030BD7FEA645C1ABF6F
S315080003AC194610467FEA655C1CBF0B46024650EAA6
S315080003BC013406BF52EA033591EA030F41F40021D2
S315080003CC30BD00BF90F0000F04BF0021704730B558
S315080003DC4FF4806404F132044FF000054FF000012D
S315080003EC50E700BF90F0000F04BF0021704730B5EE
S315080003FC4FF4806404F1320410F0004548BF4042C3
S3150800040C4FF000013EE700BF42004FEAE2014FEA17
S3150800041C31014FEA02701FBF12F07F4393F07F4FF2
S3150800042C81F06051704732F07F4208BF704793F0F5
S3150800043C7F4F04BF41F40021704730B54FF4607408
S3150800044C01F0004521F000411CE700BF50EA01020B
S3150800045C08BF704730B54FF000050AE050EA0102B4
S3150800046C08BF704730B511F0004502D5404261EB24
S3150800047C41014FF4806404F132045FEA915C3FF465
S3150800048CD8AE4FF003025FEADC0C18BF03325FEA02
S3150800049CDC0C18BF033202EBDC02C2F1200300FAB3
S315080004AC03FC20FA02F001FA03FE40EA0E0021FAD8
S315080004BC02F11444BDE600BF70B54FF0FF0C4CF4C6
S315080004CCE06C1CEA11541DBF1CEA135594EA0C0F78
S315080004DC95EA0C0F00F0DEF82C4481EA030621EAB3
S315080004EC4C5123EA4C5350EA013518BF52EA0335EE
S315080004FC41F4801143F4801338D0A0FB02CE4FF0A0
S3150800050C0005E1FB02E506F00042E0FB03E54FF0CF
S3150800051C0006E1FB03569CF0000F18BF4EF0010EC7
S3150800052CA4F1FF04B6F5007F64F5407404D25FEAC3
S3150800053C4E0E6D4146EB060642EAC62141EA555176
S3150800054C4FEAC52040EA5E504FEACE2EB4F1FD0CB8
S3150800055C88BFBCF5E06F1ED8BEF1004F08BF5FEA36
S3150800056C500E50F1000041EB045170BD06F00046E8
S3150800057C46EA010140EA020081EA0301B4EB5C0495
S3150800058CC2BFD4EB0C0541EA045170BD41F480118D
S3150800059C4FF0000E013C00F3AB8014F1360FDEBFB2
S315080005AC002001F0004170BDC4F10004203C35DA8E
S315080005BC0C341BDC04F11404C4F1200500FA05F311
S315080005CC20FA04F001FA05F240EA020001F00042B2
S315080005DC21F0004110EBD37021FA04F642EB060128
S315080005EC5EEA430E08BF20EAD37070BDC4F10C0452
S315080005FCC4F1200500FA04F320FA05F001FA04F216
S3150800060C40EA020001F0004110EBD37041F1000101
S3150800061C5EEA430E08BF20EAD37070BDC4F120050C
S3150800062C00FA05F24EEA020E20FA04F301FA05F274
S3150800063C43EA020321FA04F001F0004121FA04F21C
S3150800064C20EA020000EBD3705EEA430E08BF20EAEC
S3150800065CD37070BD94F0000F0FD101F00046400026
S3150800066C41EB010111F4801F08BF013CF7D041EAA8
S3150800067C060195F0000F18BF704703F000465200AC
S3150800068C43EB030313F4801F08BF013DF7D043EA7D
S3150800069C0603704794EA0C0F0CEA135518BF95EA33
S315080006AC0C0F0CD050EA410618BF52EA4306D1D1BA
S315080006BC81EA030101F000414FF0000070BD50EAD9
S315080006CC410606BF1046194652EA430619D094EA63
S315080006DC0C0F02D150EA013613D195EA0C0F05D14D
S315080006EC52EA03361CBF104619460AD181EA0301A1
S315080006FC01F0004141F0FE4141F470014FF0000059
S3150800070C70BD41F0FE4141F4780170BD70B54FF0F3
S3150800071CFF0C4CF4E06C1CEA11541DBF1CEA135573
S3150800072C94EA0C0F95EA0C0F00F0A7F8A4EB050455
S3150800073C81EA030E52EA03354FEA013100F088804C
S3150800074C4FEA03334FF0805545EA131343EA126315
S3150800075C4FEA022245EA111545EA10654FEA0026CA
S3150800076C0EF000419D4208BF964244F1FD0404F583
S3150800077C407402D25B084FEA3202B61A65EB0305DF
S3150800078C5B084FEA32024FF480104FF4002CB6EB9C
S3150800079C020E75EB030E22BFB61A754640EA0C001C
S315080007AC5B084FEA3202B6EB020E75EB030E22BF5C
S315080007BCB61A754640EA5C005B084FEA3202B6EB9D
S315080007CC020E75EB030E22BFB61A754640EA9C005C
S315080007DC5B084FEA3202B6EB020E75EB030E22BF2C
S315080007ECB61A754640EADC0055EA060E18D04FEAEA
S315080007FC051545EA16754FEA06164FEAC30343EA8A
S3150800080C52734FEAC2025FEA1C1CC0D111F4801F56
S3150800081C0BD141EA00014FF000004FF0004CB6E74F
S3150800082C11F4801F04BF01430020B4F1FD0C88BFEE
S3150800083CBCF5E06F3FF6AFAEB5EB030C04BFB6EBF9
S3150800084C020C5FEA500C50F1000041EB045170BDEC
S3150800085C0EF0004E4EEA113114EB5C04C2BFD4EB19
S3150800086C0C0541EA045170BD41F480114FF0000E9D
S3150800087C013C90E645EA060E8DE60CEA135594EA19
S3150800088C0C0F08BF95EA0C0F3FF43BAF94EA0C0F1C
S3150800089C0AD150EA01347FF434AF95EA0C0F7FF491
S315080008AC25AF104619462CE795EA0C0F06D152EAE5
S315080008BC03353FF4FDAE1046194622E750EA4106C9
S315080008CC18BF52EA43067FF4C5AE50EA41047FF4DA
S315080008DC0DAF52EA43057FF4EBAE12E74A0011D28C
S315080008EC12F5001211D20DD56FF47873B3EB625270
S315080008FC0ED44FEAC12343F0004343EA505323FA7C
S3150800090C02F070474FF00000704750EA013002D1F0
S3150800091C4FF0FF3070474FF00000704710B50E4C83
S3150800092C88B0204601F0E6F998B1002102200B4A5E
S3150800093C00F0E0FEE37822780193A3780849009347
S3150800094C03A8637801F0F6FE0021032003AA00F041
S3150800095CD1FE08B010BD00BF84000020DC370008AB
S3150800096CE937000810B590B01422002108A801F048
S3150800097CD9FF1422002101A801F0D4FF02244FF458
S3150800098C80330122CDE90D43CDE906234FF4E0135C
S3150800099C06A80A920F9300F0EDF908B172B6FEE7B5
S315080009AC0F23CDE901344FF480630390CDE904306D
S315080009BC214601A800F0A0FB08B172B6FEE710B0FC
S315080009CC10BD000030B589B000F048F9FFF7CAFF32
S315080009DC102200210DEB020001F0A4FF47222E4C39
S315080009EC2E490023C4E900124FF6FE722046CDE9C3
S315080009FC0233C4E90323C4E90533A36000F07EFC83
S31508000A0C08B172B6FEE74FF48053204604A9049346
S31508000A1C00F0AAFC08B172B6FEE7CDE9020002A9FD
S31508000A2C204600F03BFD054608B172B6FEE72046A7
S31508000A3C00F0FEFB0221084601F0CEFA0421022042
S31508000A4C01F0CAFA0321022001F0C6FA01F02CFAC9
S31508000A5C01F0EAFC00F0C1FD4FF4E13303212A460C
S31508000A6C2846CDE900532B4601F016FB012001F070
S31508000A7CD1FA00F01EFF01F0A1F801F052F8014678
S31508000A8C38B10621064A012009B0BDE8304000F00D
S31508000A9C31BE044AF7E700BF88000020002C01404D
S31508000AACF5370008F837000808B5FFF78BFFFFF78E
S31508000ABC35FFFCE70E4B82B09A6942F001029A6147
S31508000ACC9A6902F001020092009ADA6942F08052A1
S31508000ADCDA61DB69074A03F080530193019B53687B
S31508000AEC23F0E06343F00073536002B0704700BF15
S31508000AFC00100240000001400268084B82B09A427E
S31508000B0C0AD103F564439A6942F400629A619B69B7
S31508000B1C03F400630193019B02B07047002C01405B
S31508000B2CFEE7FEE7FEE7FEE7FEE77047704770470D
S31508000B3C00F0A6B870B50D4614460E46731B9C42BB
S31508000B4C01DC204670BDAFF3008006F8010BF5E713
S31508000B5C70B50D4614460E46731B9C4201DC2046A6
S31508000B6C70BD16F8010BAFF30080F5E74FF0FF30B8
S31508000B7C70474FF4005300204B60704701207047B4
S31508000B8C002070470B4A0346116810B509B90A4983
S31508000B9C1160106809490A4C0344091B8B4206D993
S31508000BAC01F00EFF0C2303604FF0FF3010BD1360ED
S31508000BBCFCE700BFD00000202802002000500020CF
S31508000BCC0004000070470000FFF7FCFF0B480C49B7
S31508000BDC0C4A002302E0D458C4500433C4188C427F
S31508000BECF9D3094A094C002301E013600432A242E6
S31508000BFCFBD301F0EBFEFFF757FF70470000002010
S31508000C0C6800002028390008680000202802002007
S31508000C1CFEE7000038B50E4B05461A784FF47A7382
S31508000C2CB3FBF2F30B4A1068B0FBF3F000F08EF846
S31508000C3C044658B90F2D09D8024629464FF0FF30FD
S31508000C4C00F054F82046044B1D6038BD0120FCE723
S31508000C5C040000200000002008000020074A08B500
S31508000C6C1368032043F01003136000F02DF80F20CF
S31508000C7CFFF7D0FFFFF71EFF002008BD002002403B
S31508000C8C034A044B11681B780B441360704700BF6A
S31508000C9CD400002004000020014B1868704700BFE0
S31508000CACD400002038B50446FFF7F6FF0546631C4A
S31508000CBC1EBF044B1B78E418FFF7EEFF431BA34239
S31508000CCCFAD338BD0400002007490302CA6803F4A6
S31508000CDCE06322F4E0621204120C134343F0BF6380
S31508000CEC43F40033CB60704700ED00E0154B30B58C
S31508000CFCDC68C4F30224C4F10703251D042B28BFA2
S31508000D0C0423062D4FF0FF3594BF0024033C05FA47
S31508000D1C03F321EA0303A54022EA0502A3400028AF
S31508000D2C43EA0203ACBF00F16040074A4FEA0313DB
S31508000D3CDBB2ABBF00F5614000F00F0080F8003362
S31508000D4C135430BD00ED00E014ED00E00138B0F1AD
S31508000D5C807F0BD24FF0E023F021054A586182F8C8
S31508000D6C23100020072298611A61704701207047EA
S31508000D7C00ED00E02DE9F341054638B30368DB07BF
S31508000D8C10D42B689F075ED42B68190700F1958041
S31508000D9C2B685A0700F1C180E869002840F02C81BD
S31508000DAC002029E0904C636803F00C03042B07D051
S31508000DBC636803F00C03082B0AD16368DE0307D5B6
S31508000DCC23689C03DDD56B68002BDAD1012013E070
S31508000DDC6B68B3F5803F12D1236843F480332360E4
S31508000DECFFF75AFF064623689803CAD4FFF754FF41
S31508000DFC801B6428F7D9032002B0BDE8F0819BB9A3
S31508000E0C236823F480332360236823F48023236028
S31508000E1CFFF742FF064623689903B2D5FFF73CFF56
S31508000E2C801B6428F7D9E6E7B3F5A02F236803D10E
S31508000E3C43F480232360CFE723F4803323602368AD
S31508000E4C23F48023CBE7684C636813F00C0F07D0A8
S31508000E5C636803F00C03082B10D16368DA030DD40E
S31508000E6C23689B0702D52B69012BAFD123686A69C6
S31508000E7C23F0F80343EAC203236085E72A695B4B30
S31508000E8C6AB101221A60FFF707FF064623689F0717
S31508000E9CECD4FFF701FF801B0228F7D9ABE71A60E1
S31508000EACFFF7FAFE0646236898077FF56DAFFFF73E
S31508000EBCF3FE801B0228F6D99DE7AA694A4E4B4BCE
S31508000ECCE2B10122C3F88024FFF7E6FE0446736AF2
S31508000EDC9B070DD54FF4FA52454B1B68B3FBF2F33F
S31508000EEC019300BF019B5A1E0192002BF9D14FE7C3
S31508000EFCFFF7D2FE001B0228E9D97CE7C3F8802449
S31508000F0CFFF7CAFE0446736A9F077FF541AFFFF7E2
S31508000F1CC3FE001B0228F6D96DE7334CE369D800EB
S31508000F2C24D40127E36943F08053E361E36903F0B2
S31508000F3C80530093009B2F4E3368D90518D5EB6860
S31508000F4C012B26D1236A43F001032362FFF7A4FE83
S31508000F5C41F288380646236A9B073FD5002F3FF493
S31508000F6C1BAFE36923F08053E36115E70027E2E73B
S31508000F7C336843F480733360FFF78EFE804633681C
S31508000F8CDA05DCD4FFF788FEA0EB08006428F6D94E
S31508000F9C31E7ABB9236A41F2883823F0010323629F
S31508000FAC236A23F004032362FFF776FE0646236AB8
S31508000FBC9807D3D5FFF770FE801B4045F7D91AE77B
S31508000FCC052B236A03D143F004032362BAE723F003
S31508000FDC01032362236A23F00403B6E7FFF75CFEDA
S31508000FEC801B4045B7D906E7001002400000424274
S31508000FFC00000020007000402A4C636803F00C03C4
S3150800100C082B3ED00022284B02281A662CD1FFF753
S3150800101C43FE06462368990120D42B6AB3F5803F14
S3150800102C05D16268A96822F400320A436260696ACB
S3150800103C62680B4322F474121343012263601A4B41
S3150800104C1A66FFF729FE054623689A013FF5A8AEEE
S3150800105CFFF722FE401B0228F6D9CCE6FFF71CFE4A
S3150800106C801B0228D6D9C6E6FFF716FE0546236866
S3150800107C9B017FF595AEFFF70FFE401B0228F6D9AC
S3150800108CB9E601283FF4B8AE63682A6A03F48031DE
S3150800109C91427FF49BAE6A6A03F4701393423FF451
S315080010AC7FAE93E600100240000042420D4A536898
S315080010BC03F00C01082912D10B48C3F38341DB0357
S315080010CC405C09D55368094AC3F340435043084A60
S315080010DCD35CB0FBF3F07047064B58437047034894
S315080010EC704700BF001002401A38000800127A0038
S315080010FC2A38000800093D002DE9F0410D46044642
S3150800110C10B90120BDE8F081444A136803F00703BF
S3150800111C8B4228D321688E0730D4CA0743D43F4A5A
S3150800112C136803F00703AB4265D822683C4D12F0EE
S3150800113C040F6CD1130706D56B68226923F4605328
S3150800114C43EAC2036B60FFF7B1FF6B68354AC3F31A
S3150800115C0313D35CD840344B1860344B1868FFF72C
S3150800116C59FD0020CEE7136823F007030B431360E1
S3150800117C136803F007038B42C3D1CBE7284B11F056
S3150800118C040F1EBF5A6842F4E0625A60080742BF51
S3150800119C5A6842F460525A605A68A06822F0F00203
S315080011AC02435A60B9E762681D4E012A33681AD1A0
S315080011BC13F4003FA5D0736841F2883823F0030373
S315080011CC13437360FFF768FD07467368626803F09C
S315080011DC0C03B3EB820FA2D0FFF75EFDC01B404594
S315080011ECF3D903208EE7022A02D113F0007FE1E738
S315080011FC13F0020FDEE7136823F007032B43136083
S3150800120C136803F00703AB427FF47BAF8DE76B687B
S3150800121CE16823F4E0630B436B608BE70020024024
S3150800122C001002400A3800080000002008000020C0
S3150800123C90F83D30012B1CD102230F4A80F83D3023
S3150800124C036893420AD0B3F1804F07D0A2F59432C3
S3150800125C934203D002F58062934204D19A6802F055
S3150800126C0702062A03D01A6842F001021A60002007
S3150800127C70470120704700BF002C01401E4A0368C6
S3150800128C90420AD0B0F1804F07D0A2F59432904222
S3150800129C03D002F58062904215D14A6823F0700398
S315080012AC1343154A90420AD0B0F1804F07D0A2F5E5
S315080012BC9432904203D002F58062904203D1CA68F8
S315080012CC23F4407313434A6923F0800313430360E2
S315080012DC8B68C3620B688362074B984204BF0B6921
S315080012EC0363012343610369DB0742BF036923F0E8
S315080012FC01030361704700BF002C014010B504467A
S3150800130C30B390F83D3003F0FF021BB980F83C204F
S3150800131CFFF7F2FB0223206884F83D30211DFFF706
S3150800132CADFF0123002084F8463084F83E3084F85B
S3150800133C3F3084F8403084F8413084F8423084F8E1
S3150800134C433084F8443084F8453084F83D3010BD79
S3150800135C0120FCE710B584680A4324F47F4442EA6A
S3150800136C03222243826010BD38B590F83C300446FF
S3150800137C012B4FF0020000F08E80012284F83D000C
S3150800138C206884F83C20836823F47F4323F0770392
S3150800139C83600B68602B4FD032D8402B64D016D89C
S315080013AC202B0DD00AD833F0100109D0012384F86C
S315080013BC3D30002384F83C30104638BD302BF5D12F
S315080013CC826822F07002134343F0070328E0502B7F
S315080013DCECD14A68CD68016A036A21F00A0123F048
S315080013EC0103036283690A4323F0F00343EA0513F6
S315080013FC83610262836823F0700343F057030FE09E
S3150800140CB3F5805F0DD0B3F5005F0CD0702BCDD142
S3150800141CCB68D1E90121FFF79DFF836843F0770379
S3150800142C83600022C2E7CB68D1E90121FFF792FF5E
S3150800143C836843F48043F3E7036A026A4D6822F033
S3150800144C1002C9680262826923F0A00322F4704272
S3150800145C43EA051342EA013282610362836823F088
S3150800146C700343F06703DBE74A68CD68016A036AD1
S3150800147C21F00A0123F00103036283690A4323F06E
S3150800148CF00343EA051383610262836823F0700351
S3150800149C43F04703C4E702468EE7000030B590F8E0
S315080014AC3C300246012B4FF0020022D0136882F81A
S315080014BC3D005C680D6824F070042C4398685C60E9
S315080014CC0C4CA3420AD0B3F1804F07D0A4F5943440
S315080014DCA34203D004F58064A34204D1496820F0E2
S315080014EC8000014399600123002082F83D3082F880
S315080014FC3C0030BD002C014008B50121102000F03D
S3150800150C2DFC0121062000F029FC0121072000F002
S3150800151C25FC0121052000F021FC0121102000F0FA
S3150800152CD3FC0021062000F0CFFC0021072000F098
S3150800153CCBFCBDE808400021052000F0C5BC38B539
S3150800154C0546002405FA04F111F0800118BF0121A3
S3150800155C072000F0B9FC0121052000F0B5FC013488
S3150800156C0021052000F0B0FC082CEBD138BD10B5D5
S3150800157C04460121062000F0A7FCF820FFF7DFFF40
S3150800158C04F0F000FFF7DBFF200100F0F000FFF796
S3150800159CD6FF322000F04EFFBDE810400021062091
S315080015AC00F092BC10B504460121062000F08CFC14
S315080015BCFA20FFF7C4FF04F0F000FFF7C0FF200184
S315080015CC00F0F000FFF7BBFF322000F033FFBDE858
S315080015DC10400021062000F077BC08B5FFF78CFFF9
S315080015EC0021102000F070FC0A20FFF75BFB01219C
S315080015FC102000F069FC3220FFF754FB3020FFF76F
S3150800160CB6FF6E2000F016FF3020FFF7B0FF28203B
S3150800161C00F010FF0820FFF7AAFF6E2000F00AFF63
S3150800162C0120FFF7A4FF0C20FFF73CFB0620FFF771
S3150800163C9EFF0120FFF736FB0C20FFF798FF0120D1
S3150800164CFFF730FB0220FFF792FFBDE808400120A8
S3150800165CFFF728BB022838B514460DD003280ED040
S3150800166C012814BF41F0800041F09000FFF77FFF7E
S3150800167C0025A54206D138BD41F08800F6E741F0B1
S3150800168C9800F3E72020FFF78DFF0135F1E70000FE
S3150800169C38B5174B1B78012B21D100241F2CE0B22F
S315080016AC15D840F08000FFF762FF8020FFF75FFF38
S315080016BC08250020FFF776FF013D0020FFF772FF93
S315080016CC15F0FF05F5D10134402CE7D138BD20388B
S315080016DC60F07F00C0B2FFF74AFF8820E6E70120DA
S315080016ECFFF745FFBDE838400220FFF7DBBA00BF1D
S315080016FCD8000020022810B514460ED003280FD0A7
S3150800170C012814BF41F0800041F09000FFF72FFF2D
S3150800171C013C14F8010F30B910BD41F08800F5E70B
S3150800172C41F09800F2E7FFF73DFFF2E773B51E4666
S3150800173C04460D461046694600F0A2FE3246294676
S3150800174C2046FFF787FF6A4629462046FFF7D2FF51
S3150800175C02B070BD2DE9F8430D461C4640F08008D2
S3150800176C00211C201646013D00F0E8FB4046EDB270
S3150800177C00F0E6FA64B1FF23404603FA04F400F0DD
S3150800178CDFFA3378204023EA040301240343337039
S3150800179C274606EB0409BD420FD82B1BDBB2A54224
S315080017AC38BF002300201C4400F0CAFA012130552A
S315080017BC1C20BDE8F84300F087BB404600F0C0FA91
S315080017CC013709F8010BFFB2E5E738B504460D46B3
S315080017DC1C20002100F078FB600000F07E0000F071
S315080017ECAFFA284600F0ACFABDE8384001211C20B7
S315080017FC00F06ABB70B506460D461C20002114463F
S3150800180C00F09CFB700000F07E0000F099FA25446D
S3150800181CAC4205D1BDE8704001211C2000F08EBBFE
S3150800182C14F8010B00F08CFAF2E710B50446002107
S3150800183C1C2000F083FB600000F07E0040F0800066
S3150800184C00F07EFA002000F07BFA044601211C20E9
S3150800185C00F03AFB204610BD38B504460D46FFF796
S3150800186CE4FF40EA0501C9B22046BDE83840FFF757
S3150800187CACBF38B504460D46FFF7D7FF20EA05017D
S3150800188CC9B22046BDE83840FFF79FBF142008B5FB
S3150800189CFFF7CBFF00F00300032805D0BDE808408E
S315080018AC03211420FFF7D8BF08BD0F210120FFF72D
S315080018BC8CBF10B501211C2000F050FA01211C2008
S315080018CC00F002FB0421092000F048FA092000F078
S315080018DC67FB0446002849D10121092000F03EFA8D
S315080018EC2146092000F0F0FA022000F0A3FD092099
S315080018FC012100F0E9FA322000F0A6FD8D212A20FC
S3150800190CFFF763FF3E212B20FFF75FFF1E212D20DB
S3150800191CFFF75BFF00212C20FFF757FF402115200E
S3150800192CFFF753FF3D211120FFF74FFF002112202F
S3150800193CFFF74BFF00211320FFF747FF2621242032
S3150800194CFFF743FF80212A20FFF73FFFA9212B2011
S3150800195CFFF73BFF03212C20FFF737FFE8212D204B
S3150800196CFFF733FFBDE81040FFF790BFFFF79DFF69
S3150800197CC4E700000C282DE9F04705468A4691462F
S3150800198C1F463DD00E283ED00026344644F0800132
S3150800199C0220FFF71AFF0420FFF747FF80210420D7
S315080019ACFFF767FF80210A20FFF756FF0021012069
S315080019BCFFF70BFF4FF00008C14527D82946012031
S315080019CCFFF703FF0C2D03D180210D20FFF744FFF1
S315080019DC4FF0640946F001060420FFF726FFB9F11B
S315080019EC0109804601D03042F6D080210D20FFF740
S315080019FC40FFB9F1000F11D100242046BDE8F0874D
S31508001A0C30267724C2E710261224BFE71AF80810E6
S31508001A1C0920FFF7DAFE08F10108CDE70620FFF7E3
S31508001A2C04FF10F01B0FE7D104EA0804E4430C2D5D
S31508001A3C04F00104E1D10A20FFF7F7FE0646284612
S31508001A4CFFF7F3FE10F007001ABF06F1FF3300EBA1
S31508001A5CC300F000102E354628BF1025EDB2012D17
S31508001A6C38BF01254FF00008089BDFF830A0186036
S31508001A7C0920FFF7DAFE042E814603D101465046AB
S31508001A8C00F0EAFD07F8089008F101084545EFD87B
S31508001A9C042EB2D1024800F045FEAEE72C380008F9
S31508001AAC3238000830B50C46054685B007210D209E
S31508001ABCFFF78BFE03AB00930122234621460C202D
S31508001ACC2570FFF757FF012806D10398A0F11003DC
S31508001ADC5842584105B030BD0020FBE71FB50446F7
S31508001AEC00210D20FFF771FE9323237020236370CA
S31508001AFC03AB00930222234621460C20FFF73AFF3C
S31508001B0C01280CD10023621EE11C12F8010F8A422F
S31508001B1C83EA0003F9D12079C31A5842584104B014
S31508001B2C10BD10B5002498B0FFF7BFFE152221464C
S31508001B3C02A8019400F0F6FE80210A20FFF745FE64
S31508001B4C01AA19210920FFF755FE01210846FFF7BE
S31508001B5C3CFE09213620FFF738FE21460920FFF7FF
S31508001B6C34FE03210120FFF730FEFF240A20FFF77D
S31508001B7C5CFE3F2803D8013C14F0FF04F6D1002183
S31508001B8C0120FFF722FE002308AA40210920FFF7AF
S31508001B9CE1FD00213620FFF718FE3720FFF745FE3A
S31508001BAC882803D07030C0B2022804D8FFF781FE0B
S31508001BBC012018B010BD0020FBE7000010B5372037
S31508001BCCFFF733FE0446FFF763FD00211F4A08465C
S31508001BDCFFF790FD0223224600210120FFF7A6FD00
S31508001BEC122C1DD004F17803DBB20A2B1AD8A4F1F7
S31508001BFC88030A2B16D8DFE803F0061515151515F4
S31508001C0C15150D0F1100124A0221BDE810400120CE
S31508001C1CFFF770BD0F4AF7E70F4AF5E70F4AF3E7E8
S31508001C2C0F4AF1E7013C022101200E4AE4B2FFF704
S31508001C3C61FDFD2C09D9FFF72BFD00210A4A084640
S31508001C4CFFF758FD0021094ADFE710BD34380008B4
S31508001C5C453800085038000858380008603800081D
S31508001C6C683800087C38000889380008923800085B
S31508001C7C70B50D460421044608461646FFF7F9FDCD
S31508001C8C80210A20FFF7E8FD2544AC4216D1032132
S31508001C9C0120FFF79AFDFF240520013CFFF7C5FD3F
S31508001CAC14F0FF0401D04307F6D52220FFF7BDFD3B
S31508001CBC30702120FFF7B9FD707070BD092014F83B
S31508001CCC011BFFF782FDE0E71FB550230DF10E024D
S31508001CDC03A80221ADF80C30FFF7CAFF02AB00933C
S31508001CEC03AB042219460C20FFF744FE05B05DF839
S31508001CFC04FB000030B585B0694605462620FFF77B
S31508001D0CD1FE04460246012300210320FFF70EFDEF
S31508001D1C012C08D100210320084AFFF7EBFC684682
S31508001D2CFFF7DCFE044600989DF8043028602B71FA
S31508001D3CFFF7CAFF204605B030BD00BFA83800081B
S31508001D4C054B9A689107FCD5D8609A68D207FCD5DA
S31508001D5CD868C0B2704700BF003800400209012A93
S31508001D6C70B500F00F0334D0022A64D0C2B910F053
S31508001D7C08004A4C15D101269B0025681A1806FA44
S31508001D8C02F225EA0205256041FA00F5ED0748BF7F
S31508001D9C256800F1010044BF2A4322600428ECD1CF
S31508001DAC70BD0126083BDBB29B006568981806FADD
S31508001DBC00F025EA0005656041FA02F5ED0748BF13
S31508001DCC656802F1010244BF28436060042AECD11D
S31508001DDCE6E710F0080015D1314D9B002E681C184B
S31508001DEC02FA04F426EA04062E6041FA00F6F6070F
S31508001DFC48BF2E6800F1010044BF34432C60042808
S31508001E0CECD1CDE70024083BDBB2254D9B006E6870
S31508001E1C181902FA00F026EA00066E6041FA04F672
S31508001E2CF60748BF6E6804F1010444BF3043686086
S31508001E3C042CECD1B4E710F008001A4A15D1012687
S31508001E4C9B0015681C1806FA04F425EA04051560A7
S31508001E5C41FA00F5ED0748BF156800F1010044BFCB
S31508001E6C2C4314600428ECD19AE700240126083B7D
S31508001E7CDBB29B005568181906FA00F025EA00052E
S31508001E8C556041FA04F5ED0748BF556804F101049D
S31508001E9C44BF28435060042CECD181E7000801406C
S31508001EAC000C01400010014038B50024054D2046B1
S31508001EBC013415F8011BE4B2FFF750FF302CF6D1AC
S31508001ECC38BD00BFAD38000801294FEA101300F0E1
S31508001EDC0F0015D1012B0BD0022B0FD033BB03F1FE
S31508001EEC804303F58433DA6881401143D96070471F
S31508001EFC104A8340D1680B43D36070470E4BF2E708
S31508001F0CA1B9012B0CD0022B11D07BB901F1804160
S31508001F1C01F584310122CB68824023EA020304E0EE
S31508001F2C04498340CA6822EA0303CB607047024916
S31508001F3CF0E700BF000C01400010014001294FEAF0
S31508001F4C101300F00F0012D1012B09D0022B0BD065
S31508001F5CBBB903F18043814003F58433196170479B
S31508001F6C0C4A8340136170470B4B8140F6E741B925
S31508001F7C012B07D0022B08D01BB90123074A834033
S31508001F8C53617047034A8340FAE70123024A8340A8
S31508001F9CF6E700BF000C01400010014000080140A4
S31508001FAC0209012A00F00F030BD0022A0BD062B9E2
S31508001FBC02F1804202F584329068D84000F00100A4
S31508001FCC7047034AF8E7034AF6E70020704700BF54
S31508001FDC000C0140001001401F2917D8012809D010
S31508001FEC02280DD090B90123094A8B405069034346
S31508001FFC53617047064B8840DA691043D8617047BD
S3150800200C0123034A8B40906903439361704700BFD1
S3150800201C0010024010B101281DD07047194B9A695F
S3150800202C42F480529A619A6942F004029A61164AFD
S3150800203C1368C3F313031360136843F0344343F470
S3150800204C30031360114B4FF447721A601A6842F04A
S3150800205C40021A6070470B4BDA6942F48042DA6127
S3150800206C9A6942F008029A61094A5368C3F3130342
S3150800207C5360536843F0344343F430035360054BC1
S3150800208CE1E700BF001002400008014000300140A3
S3150800209C000C0140003800402DE9F84F0128044691
S315080020AC0D4616461F469DF828A04ED0022862D02B
S315080020BC00287ED101460220FFF78EFF0221084632
S315080020CCFFF78AFF0E210220FFF786FF0B21092056
S315080020DCFFF744FE08210A20FFF740FE9E4AD36804
S315080020EC43F40053D3609D4B53F82400FEF76AF96A
S315080020FC80460B9889460001FEF764F902460B46A2
S3150800210C40464946FEF702FB89468046FEF7E6FB43
S3150800211C8346FEF757F902460B4640464946FEF7F4
S3150800212C13F800228E4BFEF7C7F9FEF7D7FB012CE6
S3150800213C00F00F0040EA0B1041D0022C4BD0864B16
S3150800214C9860002C53D0BDE8F88F00210220FFF7C9
S3150800215C43FF02210846FFF73FFF11212046FFF7F0
S3150800216C3BFF0B210220FFF7F9FD04210320FFF7A3
S3150800217CF5FD7C4AB3E70021FFF72EFF0321204625
S3150800218CFFF72AFF12210120FFF726FF0B211A2041
S3150800219CFFF7E4FD04211B20FFF7E0FD6E4BDA6820
S315080021AC42F00402DA60DA6842F00802DA606E4A33
S315080021BC95E7694AD36843F40053D360C3E7694B80
S315080021CC022D98603BD1DA6822F00402DA60DA68EC
S315080021DC42F008023EE0644B022D98604DD1DA6855
S315080021EC22F00402DA60DA6842F0080250E0022DA6
S315080021FC19D0032D1FD0012D07D1DA6842F004023D
S3150800220CDA60DA6822F00802DA60534BDA68002ED4
S3150800221C50D122F48062DA60032F00F28180DFE865
S3150800222C07F076879095DA6822F00402DA60DA68A5
S3150800223C42F00802E8E7DA6842F00402F6E7032DF2
S3150800224C17D0012D07D1DA6842F00402DA60DA6891
S3150800225C22F00802DA60434BDA68002E39D122F4F0
S3150800226C8062DA60032F00F28A80DFE807F07F8D40
S3150800227C969BDA6842F00402A8E7032D16D0012DC6
S3150800228C07D1DA6842F00402DA60DA6822F008024A
S3150800229CDA60354BDA685EBB22F48062DA60032FAB
S315080022AC00F28E80DFE807F083919A9FDA6842F095
S315080022BC040297E742F48062012EDA6003D1DA68E9
S315080022CC22F40072A7E7022EA6D1DA6842F400724D
S315080022DCA1E742F48062012EDA6003D1DA6822F4AF
S315080022EC0072BEE7022EBDD1DA6842F40072B8E776
S315080022FC42F48062012EDA6003D1DA6822F40072A5
S3150800230CCCE7022ECBD1DA6842F40072C6E7124B40
S3150800231C1A6922F480621A611A6922F400621A6137
S3150800232CBAF1000F64D10C4AD36823F4805344E7FE
S3150800233C094B1A6922F480621A611A6942F400621E
S3150800234CEDE7054B1A6942F48062E4E7024B1A6919
S3150800235C42F48062F0E700BF00380140E03800081C
S3150800236C0000304000440040004800402B4B1A69DE
S3150800237C22F480621A611A6922F400621A61BAF1AF
S3150800238C000F3ED1254ACFE7244B1A6922F4806206
S3150800239C1A611A6942F40062F0E7204B1A6942F492
S315080023AC8062E7E71D4B1A6942F48062F0E71C4B22
S315080023BC1A6922F480621A611A6922F400621A6197
S315080023CCBAF1000F23D1164AAEE7154B1A6922F457
S315080023DC80621A611A6942F40062F0E7104B1A69B6
S315080023EC42F48062E7E70E4B1A6942F48062F0E722
S315080023FCBAF1010F7FF4A7AE0A4AD36843F48053A7
S3150800240CDBE6BAF1010F7FF49EAE044AF5E7BAF1A2
S3150800241C010F7FF498AE024AEFE700BF0044004074
S3150800242C00480040003801400148FEF701BF00BFD4
S3150800243C880000200022034B1B685A625A6A8242A3
S3150800244CFCD3704788000020FEF72CBC03460022FC
S3150800245CD0B2195C01320029FAD1704710B504467E
S3150800246CFFF7F4FF2346221804EB5000834200D1F1
S3150800247C10BD197812F8014D03F8014B1170F5E7E8
S3150800248C034630B4084623B930224B700A7030BC68
S3150800249C704700220A212D25002B13DA00225B42F5
S315080024ACB3FBF1F401FB1433303383542346013266
S315080024BC002CF5D185540132002BEDD130BC835458
S315080024CCFFF7CCBF93FBF1F401FB14333033835481
S315080024DC2346F0E7002310B50446C0E90033C0E9EB
S315080024EC0433836081814366C2818361194608225D
S315080024FC5C3000F017FA0D4B246263620C4BA36236
S3150800250C0C4BE3620C4B23630C4B9C4206D003F139
S3150800251C6802944202D0D0339C4205D104F158008B
S3150800252CBDE8104000F076BA10BD00BF8127000840
S3150800253CA3270008DB270008FF270008DC0000207B
S3150800254C024A0349034800F069B800BF0C00002092
S3150800255C713500081800002041680C4B10B59942DB
S3150800256C044601D000F0FEFFA168094B994202D03F
S3150800257C204600F0F7FFE168064B994204D0204646
S3150800258CBDE8104000F0EEBF10BD00BFDC00002017
S3150800259C44010020AC01002010B50B4B0B4C0C4A27
S315080025AC20461A6004210022FFF794FF04F1680004
S315080025BC01220921FFF78EFF04F1D0000222BDE8A3
S315080025CC10401221FFF786BF14020020DC00002001
S315080025DC4D250008014800F01EBA00BF1D02002058
S315080025EC014800F019BA00BF1D02002010B50446B8
S315080025FCFFF7F0FF236A1BB1BDE81040FFF7F0BFE9
S3150800260C044B2362044B1B68002BF5D1FFF7C4FF60
S3150800261CF2E700BF65250008140200202DE9F843EF
S3150800262C0746884614460026D4E90195B9F10109EE
S3150800263C05D52468002CF7D13046BDE8F883AB895C
S3150800264C012B07D9B5F90E30013303D02946384684
S3150800265CC04706436835E9E70FB407B5064904AB26
S3150800266C086853F8042B8168019300F04BFC03B0FF
S3150800267C5DF804EB04B0704764000020036A70B57B
S3150800268C05460E4684680BB9FFF7B0FF636EDB0789
S3150800269C05D4A389980502D4A06D00F0BCF9A389CA
S315080026AC190713D523698BB1013EA36816F8011FC8
S315080026BC013BA360E9B9002B2EDA22460A212846EB
S315080026CC00F09BF8013007D00A2507E0214628467A
S315080026DC00F0D0F80028E7D04FF0FF35636EDA0724
S315080026EC05D4A3899B0502D4A06D00F095F928465C
S315080026FC70BD002B04DAA2699A4206DC0A2904D0BA
S3150800270C23685A1C22601970CFE72246284600F027
S3150800271C74F80130C9D1DFE70A2523685A1C2260F0
S3150800272C1D70DBE7024B01461868FFF7A7BF00BF11
S3150800273C640000200EB46FF0004100B59CB01DABD0
S3150800274C02900690079104910848094953F8042BFE
S3150800275C0591006802A9019300F0AEFA0022029BCB
S3150800276C1A701CB05DF804EB03B0704764000020C7
S3150800277C0802FFFF10B50C46B1F90E1000F0FCF874
S3150800278C0028ABBF636DA3891B1823F48053ACBF19
S3150800279C6365A38110BD2DE9F0411F468B8905465B
S315080027ACDB050C46164605D502230022B1F90E1098
S315080027BC00F0D0F8A389324623F48053A381284627
S315080027CC3B46B4F90E10BDE8F04100F0E7B810B579
S315080027DC0C46B1F90E1000F0BDF8431CA38915BFC1
S315080027EC606523F4805343F48053A38118BFA381F7
S315080027FC10BDB1F90E1000F09DB8F8B50E4614468A
S3150800280C054618B1036A0BB9FFF7F0FEA369A36076
S3150800281CA3891A0725D523691BB323682269F6B23F
S3150800282C981A63693746834204DC2146284600F029
S3150800283C99FEE0B9A368013BA36023685A1C226081
S3150800284C1E706269431C9A4204D0A389DB0706D51D
S3150800285C0A2E04D12146284600F084FE38B938469B
S3150800286CF8BD2146284600F005F80028D5D04FF0CB
S3150800287CFF37F4E738B52A4B054618680C4618B1E5
S3150800288C036A0BB9FFF7B2FEA389B4F90C20180733
S3150800289C22D4D90607D409232B6042F040034FF003
S315080028ACFF30A38134E0580712D5616B41B104F1AE
S315080028BC4403994202D0284600F0B0F8002363631B
S315080028CCA38923F02403A38100236360236923606F
S315080028DCA38943F00803A38123694BB9A38903F49D
S315080028EC2073B3F5007F03D02146284600F087FEF7
S315080028FCA089B4F90C2010F001030AD00023A360B8
S3150800290C63695B42A361236943B910F08000C4D1A3
S3150800291C38BD810758BF6369A360F4E70020F7E761
S3150800292C6400002003460244934200D1704703F822
S3150800293C011BF9E738B50023054D044608462B60FC
S3150800294CFEF714F9431C02D12B6803B1236038BD7A
S3150800295C1802002038B50446084611460022054DD3
S3150800296C2A601A46FEF70CF9431C02D12B6803B1F0
S3150800297C236038BD1802002038B5044608461146AF
S3150800298C0022054D2A601A46FEF7D4F8431C02D1DC
S3150800299C2B6803B1236038BD1802002038B50446ED
S315080029AC084611460022054D2A601A46FEF7D0F84D
S315080029BC431C02D12B6803B1236038BD18020020D2
S315080029CC014B1868704700BF6400002070B50026DC
S315080029DC0C4D0D4C641BA410A64209D100F0ECFE5C
S315080029EC00260A4D0A4C641BA410A64205D170BDDC
S315080029FC55F8043B98470136EEE755F8043B9847DB
S31508002A0C0136F2E720390008203900082039000879
S31508002A1C24390008704770477047000038B50546DA
S31508002A2C002940D051F8043C0C1F002BB8BFE41801
S31508002A3C00F0DCF81C4A136833B963601460284646
S31508002A4CBDE8384000F0D8B8A34208D92068211848
S31508002A5C8B4201BF19685B6809182160EDE71A46B5
S31508002A6C5B680BB1A342FAD911685018A0420BD176
S31508002A7C20680144501883421160E0D118685B68DD
S31508002A8C084410605360DAE702D90C232B60D6E7AA
S31508002A9C206821188B4201BF19685B6809182160E8
S31508002AAC63605460CBE738BD2002002070B50E4E2B
S31508002ABC0C463168054611B900F01AFE30602146FD
S31508002ACC284600F015FE431C0AD0C41C24F0030447
S31508002ADCA04207D0211A284600F00AFE013001D17F
S31508002AEC4FF0FF34204670BD240200202DE9F84330
S31508002AFCCD1C25F0030508350C2D38BF0C25002DEB
S31508002B0C074601DBA94205D90C2300263B60304653
S31508002B1CBDE8F883DFF8D08000F068F8D8F8003004
S31508002B2C1C465CBB29463846FFF7C0FF431C0446C7
S31508002B3C55D1D8F800402646002E45D1002C48D051
S31508002B4C23683146384604EB030900F0D1FD81456C
S31508002B5C3FD1216838466D1A2946FFF7A7FF013081
S31508002B6C37D023682B442360D8F80030002B38D094
S31508002B7C5A68A2422BD100225A600FE02268521BD7
S31508002B8C1FD40B2A17D96119A342256018BF59609F
S31508002B9C636808BFC8F8001062514B60384604F1E8
S31508002BAC0B0600F029F826F00706231DF21AAED0FC
S31508002BBC9B1BA350ABE7A3426268DDD1C8F8002083
S31508002BCCECE723466468ACE734467668B4E7134604
S31508002BDCCCE70C2338463B6000F00EF897E72560E7
S31508002BECDCE75B60FFDE00BF200200200148FFF730
S31508002BFC12BF00BF1C0200200148FFF70DBF00BF23
S31508002C0C1C0200202DE9F0471F468E688246BE42FC
S31508002C1C0C4690460B682CD88A8912F4906F26D0ED
S31508002C2C6569096905EB4505A3EB010905EBD5753E
S31508002C3C7B1C4B446D109D4238BF1D46530527D54A
S31508002C4C2946FFF753FF064660B34A46216900F04A
S31508002C5C6DFDA38923F4906343F08003A381266159
S31508002C6C4E4426603E466561A5EB0905A560BE4245
S31508002C7C00D93E4632464146206800F0FCFC00204E
S31508002C8CA3689B1BA360236833442360BDE8F087C5
S31508002C9C2A4600F059FD06460028E0D1504621691F
S31508002CACFFF7BCFE0C23CAF80030A3894FF0FF309F
S31508002CBC43F04003A381E9E72DE9F04F98468B8949
S31508002CCC07461B060D4614469DB00ED50B6963B90F
S31508002CDC4021FFF70BFF2860286120B90C233B60C5
S31508002CEC4FF0FF30D0E040236B610023099320237B
S31508002CFC8DF8293030234FF00109CDF80C80DFF818
S31508002D0CA0818DF82A3023469A4613F8012B0AB16E
S31508002D1C252AF9D1BAEB040B0BD05B462246294679
S31508002D2C3846FFF76FFF013000F0A980099A5A441C
S31508002D3C09929AF80030002B00F0A18000234FF07E
S31508002D4CFF32CDE905230AF1010A049307938DF89E
S31508002D5C53301A935446052214F8011B504800F0B8
S31508002D6CD7FC049AD8B9D00644BF20238DF8533023
S31508002D7C110744BF2B238DF853309AF800302A2BB1
S31508002D8C15D0544600204FF00A0C079A214611F824
S31508002D9C013B303B092B4DD9B0B1079214E0A0EB9F
S31508002DAC080309FA03F31343A2460493D2E7039BD9
S31508002DBC191D1B680391002BBBBF5B4242F0020234
S31508002DCC07930793B8BF049223782E2B0CD16378FC
S31508002DDC2A2B34D1039B02341A1D1B680392002B31
S31508002DECB8BF4FF0FF330593DFF8B8A0032250465F
S31508002DFC217800F08DFC38B14022049BA0EB0A0028
S31508002E0C824013430134049314F8011B0622264806
S31508002E1C8DF8281000F07CFC002838D0234B1BBBFF
S31508002E2C039B073323F0070308330393099B3344A7
S31508002E3C099368E70C4601200CFB0232A6E700232F
S31508002E4C4FF00A0C194601340593204610F8012B4D
S31508002E5C303A092A03D9002BC6D00591C4E7044693
S31508002E6C01230CFB0121F0E703AB00932A463846F5
S31508002E7C0F4B04A9AFF30080421C0646D6D1AB898A
S31508002E8C5B063FF52DAF09981DB0BDE8F08F03AB77
S31508002E9C00932A463846064B04A900F0BFF9EBE71F
S31508002EACEC380008F2380008F63800080000000074
S31508002EBC112C0008936810B4013B002B936007DAB9
S31508002ECC9469A34201DB0A2902D110BCFFF795BC11
S31508002EDC1368581C10601970084610BC7047F8B572
S31508002EEC06460F461446D518AC4201D1002007E019
S31508002EFC3A46304614F8011BFFF7DCFF431CF3D1A6
S31508002F0CF8BD00002DE9F04F0D46144698460646C6
S31508002F1C9DB018B1036A0BB9FFF768FB6B6ED9073E
S31508002F2C05D4AB899A0502D4A86DFFF774FDAB8955
S31508002F3C1B0701D52B699BB929463046FFF79AFC26
S31508002F4C70B16B6EDC0704D54FF0FF301DB0BDE8D1
S31508002F5CF08FAB899805F7D4A86DFFF75DFDF3E7FD
S31508002F6C0023099320238DF8293030234FF00109CB
S31508002F7CCDF80C80DFF8AC818DF82A3023469A46BA
S31508002F8C13F8012B0AB1252AF9D1BAEB040B0BD08D
S31508002F9C5B46224629463046FFF7A1FF013000F072
S31508002FACA980099A5A4409929AF80030002B00F025
S31508002FBCA18000234FF0FF32CDE905230AF1010A5F
S31508002FCC049307938DF853301A935446052214F834
S31508002FDC011B544800F09CFB049AD8B9D10644BF8F
S31508002FEC20238DF85330130744BF2B238DF8533009
S31508002FFC9AF800302A2B15D0544600204FF00A0CAC
S3150800300C079A214611F8013B303B092B4DD9B0B133
S3150800301C079214E0A0EB080309FA03F31343A2463C
S3150800302C0493D2E7039B191D1B680391002BBBBFA6
S3150800303C5B4242F0020207930793B8BF04922378C7
S3150800304C2E2B0CD163782A2B34D1039B02341A1DF0
S3150800305C1B680392002BB8BF4FF0FF330593DFF8BC
S3150800306CC8A003225046217800F052FB38B1402202
S3150800307C049BA0EB0A00824013430134049314F812
S3150800308C011B062229488DF8281000F041FB002860
S3150800309C3FD0274B1BBB039B073323F0070308338F
S315080030AC0393099B3B44099368E70C4601200CFBE8
S315080030BC0232A6E700234FF00A0C19460134059391
S315080030CC204610F8012B303A092A03D9002BC6D012
S315080030DC0591C4E7044601230CFB0121F0E703AB79
S315080030EC00932A463046134B04A9AFF300800746D3
S315080030FC781CD6D16B6ED90705D4AB899A0502D440
S3150800310CA86DFFF789FCAB895B063FF51DAF0998DF
S3150800311C1CE703AB00932A463046064B04A900F07D
S3150800312C7DF8E4E7EC380008F2380008F6380008B1
S3150800313C00000000EB2E00082DE9F04716469946CC
S3150800314C8A680B6907469342B8BF1346336091F8F1
S3150800315C43200C46DDF820800AB10133336023681E
S3150800316C990642BF336802333360256815F00605A5
S3150800317C06D104F1190AE36832689B1AAB422BDCB8
S3150800318C94F84320131E226818BF0123920630D4E4
S3150800319C4946384604F14302C047013023D0236818
S315080031AC226903F00603042B14BF002533684FF07D
S315080031BC000608BFE56804F11A0408BFED1A54F8AE
S315080031CC123C08BF25EAE5759342C4BF9B1AED1855
S315080031DCB5421AD1002008E0012352464946384622
S315080031ECC047013003D14FF0FF30BDE8F0870135F9
S315080031FCC1E73020E11881F843005A1C94F84510B1
S3150800320C2244023382F84310C2E701232246494678
S3150800321C3846C0470130E6D00136D9E72DE9FF47D5
S3150800322C0F7E9146782F80460C469A460C9D01F1E6
S3150800323C430207D8622F0AD8002F00F0D580582FE2
S3150800324C00F0C18004F1420584F842703AE0A7F117
S3150800325C6303152BF6D801A151F823F0C1320008E7
S3150800326CD532000851320008513200085132000894
S3150800327C51320008D5320008513200085132000884
S3150800328C5132000851320008DB33000801330008BC
S3150800329C953300085132000851320008FD330008F6
S315080032AC5132000801330008513200085132000827
S315080032BC9D3300082B681A1D1B682A6004F1420509
S315080032CC84F842300123A0E020682B68070603F136
S315080032DC0401296001D51E6803E04606FBD5B3F93F
S315080032EC0060002E03DA2D23764284F843300A2335
S315080032FC594812E02B682068191D2960050601D566
S3150800330C1E6802E04106FBD51E886F2F0CBF0823EA
S3150800331C0A235148002184F843106568002DA8BF7C
S3150800332C2168A560A4BF21F0040121600EB9002D07
S3150800333C4BD01546B6FBF3F103FB1167C75D05F8D1
S3150800334C017D3746BB420E46F4D9082B0BD12368B0
S3150800335CDE0708D5236961689942DEBF302305F874
S3150800336C013C05F1FF35521B22614B46214640466E
S3150800337CCDF800A003AAFFF7DFFE01304AD14FF0C3
S3150800338CFF3004B0BDE8F087236843F020032360C0
S3150800339C7827324884F84570236829681F0651F83F
S315080033AC046B02D45F0648BFB6B2DF0748BF43F0CA
S315080033BC2003296048BF23601EB9236823F0200325
S315080033CC23601023A6E72448E4E71546BDE72B68D7
S315080033DC2668181D6169286035061B6801D51960B1
S315080033EC02E07006FBD51980002315462361BCE75D
S315080033FC2B6800211A1D2A601D686268284600F091
S3150800340C87F908B1401B606063682361002384F860
S3150800341C4330AAE72A46494640462369D047013035
S3150800342CADD023689B0713D4E068039B9842B8BFBA
S3150800343C1846A6E70123324649464046D04701308E
S3150800344C9DD00135E36803995B1AAB42F2DCEBE7D6
S3150800345C002504F11906F5E7FD3800080E390008B1
S3150800346C8A89F8B5054610070C4657D44B68002BC5
S3150800347C04DC0B6C002B01DC0020F8BDE66A002E80
S3150800348CFAD0002312F480522F68216A2B6032D0AE
S3150800349C606DA3895A0705D56368C01A636B0BB1AF
S315080034AC236CC01A00230246E66A2846216AB047EE
S315080034BC431CA38906D129681D292BD8284A0A41F9
S315080034CCD60727D4002262602269D904226004D563
S315080034DC421C01D12B6803B96065616B2F6000290A
S315080034ECCAD004F14403994202D02846FFF796FA4B
S315080034FC00206063C1E701232846B047411CC8D1A8
S3150800350C2B68002BC5D01D2B01D0162B01D12F6093
S3150800351CB2E7A38943F04003A381AEE70F69002FF6
S3150800352CAAD0930718BF00230E6808BF4B69F61B71
S3150800353C0F608B60002E9FDD33463A462846216A7B
S3150800354CD4F828C0E047002806DCA3894FF0FF30E2
S3150800355C43F04003A38190E70744361AEAE700BF15
S3150800356CFEFFBFDF38B50B6905460C4613B90025B7
S3150800357C284638BD18B1036A0BB9FFF737F8B4F902
S3150800358C0C30002BF3D0626ED00704D4990502D404
S3150800359CA06DFFF740FA28462146FFF761FF636ED8
S315080035AC0546DA07E4D4A3899B05E1D4A06DFFF799
S315080035BC33FADDE770B50C46B1F90E10154600293D
S315080035CC1E4696B00CDAA389002113F0800F0CBFA7
S315080035DC4FF480634023002031602B6016B070BD19
S315080035EC6A4600F063F80028EDDB019901F4704196
S315080035FCA1F50053594259414FF48063EBE78B8987
S3150800360C73B59D0706460C4607D504F14703236098
S3150800361C23610123636102B070BD6A4601ABFFF7F3
S3150800362CC9FF009905463046FFF760FA48B9B4F960
S3150800363C0C309A05EFD423F0030343F00203A3815D
S3150800364CE3E7A389206043F08003A381009B2061F4
S3150800365C6361019B5BB13046B4F90E1000F038F883
S3150800366C28B1A38923F0030343F00103A381A3899B
S3150800367C1D43A581CFE7884210B501EB020402D998
S3150800368C8442234607D8431EA14208D011F8012BC1
S3150800369C03F8012FF8E7014602448A4200D110BD0F
S315080036AC13F8014D02F8014DF7E7000038B5002371
S315080036BC064D0446084611462B60FDF75AFA431C7C
S315080036CC02D12B6803B1236038BD00BF1802002055
S315080036DC38B50023054D044608462B60FDF74EFA0F
S315080036EC431C02D12B6803B1236038BD1802002095
S315080036FC38B50023054D044608462B60FDF742FAFB
S3150800370C431C02D12B6803B1236038BD1802002074
S3150800371C034610B5C9B202449342184601D100209B
S3150800372C03E0047801338C42F6D110BD0A44914269
S3150800373C00F1FF3300D1704710B511F8014B9142D7
S3150800374C03F8014FF9D110BD2DE9F0418046144616
S3150800375C0E4621B91146BDE8F041FFF7C7B92AB99B
S3150800376CFFF75CF925462846BDE8F08100F01BF802
S3150800377C8442074602D8B4EB500F12D8214640466D
S3150800378CFFF7B4F905460028EDD0BC42224631466F
S3150800379C28BF3A46FFF7CAFF31464046FFF73EF9BF
S315080037ACE1E73546DFE751F8043C181F002BBCBF90
S315080037BC0B58C01870470000F8B500BFF8BC08BC19
S315080037CC9E467047F8B500BFF8BC08BC9E467047C5
S315080037DC5246494420436F64652069730025582076
S315080037EC2558202558202558004F4B0044657465EC
S315080037FC6374206F7220556E6B6E6F776E000000C7
S3150800380C0000000000000102030406070809020371
S3150800381C0405060708090A0B0C0D0E0F10100102F9
S3150800382C2530327820000D004669726D7761726515
S3150800383C2056657273696F6E00203D2028636C6F85
S3150800384C6E652900203D2076302E3000203D2076EE
S3150800385C312E3000203D2076322E3000203D20635C
S3150800386C6F756E7465726665697420636869700035
S3150800387C203D2028756E6B6E6F776E290057415266
S3150800388C4E494E472100436F6D6D756E69636174C1
S3150800389C696F6E206661696C75726500486572653C
S315080038AC00010101010103030308080108010101D4
S315080038BC01030101010108080801040101010208BC
S315080038CC03040404040404020202020404010101B0
S315080038DC0100000000A24A040051250200512502ED
S315080038EC232D302B2000686C4C00656667454647CF
S315080038FC0030313233343536373839414243444552
S3150800390C46003031323334353637383961626364C0
S3090800391C65660000CE
S30908003920310100085B
S309080039240D0100087B
S3150800392800127A00010000001000000000000000E4
S3150800393803000000DC00002000000000DC00002076
S3150800394844010020AC01002000000000000000002F
S315080039580000000000000000000000000000000051
S315080039680000000000000000000000000000000041
S315080039780000000000000000000000000000000031
S30D080039880000000018000020F1
S70508000BD512
