S024000054656D7065727475726520436F6E74726F6C6C65642044432046616E2E73726563C1
S11300000C942A000C9447000C9447000C9447006D
S11300100C9447000C9447000C9418050C94C604E7
S11300200C94EF040C949D040C9447000C9447002A
S11300300C9447000C9441050C9447000C946B05F8
S11300400C9447000C9447000C9447000C94470010
S11300500C94470011241FBECFE5D8E0DEBFCDBF0E
S113006010E0A0E6B0E0E6EFFBE002C005900D92E0
S1130070A839B107D9F720E0A8E9B0E001C01D9282
S1130080A43AB207E1F70E94D1020C94F9050C944A
S113009000000E9408030E94840166E081E00E943F
S11300A0D60262E083E00E94670482E00C94870435
S11300B00E94C802909399008093980044E650E00F
S11300C061E082E00E94FA01209198003091990049
S11300D040E050E067E082E00E94EA0180919800ED
S11300E0909199008F31910540F08FEF90E09093BB
S11300F09B0080939A008FEF0DC09C012951310918
S11301002530310560F48CEC90E090939B00809353
S11301109A008CEC8CBF80E00E949A0220C09C0163
S1130120275131092330310518F48FE790E008C0D6
S11301309C01245131092330310538F48FE390E0D8
S113014090939B0080939A00E5CF4497E0F410923B
S11301509B0010929A001CBE80E00E94B1024BE604
S113016050E061E081E00E94FA0120919A00309110
S11301709B0040E050E06DE081E00E94EA0161E014
S113018080E10C94E6030895CF93C82F60E088E1E2
S11301900E94E6036C2F661F6627661F8DE10E948E
S11301A0E603C6FB662760F98CE10E94E603C5FB03
S11301B0662760F98BE10E94E603C4FB662760F9B9
S11301C08AE10E94E60361E089E10E94E6038FEC84
S11301D097E00197F1F700C0000060E089E10E9418
S11301E0E6038FEC97E00197F1F700C00000C3FB32
S11301F0662760F98DE10E94E603C2FB662760F979
S11302008CE10E94E603C1FB662760F98BE10E9442
S1130210E6036C2F61708AE10E94E60361E089E1E4
S11302200E94E6038FEC97E00197F1F700C000000D
S113023060E089E10E94E6038FEC97E00197F1F713
S113024000C00000CF910895CF93C82F61E088E1EA
S11302500E94E6036C2F661F6627661F8DE10E94CD
S1130260E603C6FB662760F98CE10E94E603C5FB42
S1130270662760F98BE10E94E603C4FB662760F9F8
S11302808AE10E94E60361E089E10E94E6038FECC3
S113029097E00197F1F700C0000060E089E10E9457
S11302A0E6038FEC97E00197F1F700C00000C3FB71
S11302B0662760F98DE10E94E603C2FB662760F9B8
S11302C08CE10E94E603C1FB662760F98BE10E9482
S11302D0E6036C2F61708AE10E94E60361E089E124
S11302E00E94E6038FEC97E00197F1F700C000004D
S11302F060E089E10E94E6038FEC97E00197F1F753
S113030000C00000CF9108952FE788E391E02150C9
S113031080409040E1F700C0000082E00E94C400E9
S113032088E20E94C4008CE00E94C40081E00E9424
S1130330C4008FEC97E00197F1F700C0000086E05D
S11303400C94C4000F931F93CF938C01C0E0F80169
S1130350EC0FF11D8081882321F00E942401CF5FDE
S1130360F6CF1082CF911F910F910895CF93DF9311
S1130370CDB7DEB72A970FB6F894DEBF0FBECDBF58
S1130380AE014F5F5F4F0E942B02CE0101960E9487
S1130390A2012A960FB6F894DEBF0FBECDBFDF913F
S11303A0CF910895982F862F913011F481580BC066
S11303B0923011F4815407C0933011F48D5603C068
S11303C0943039F48D520E94C4008AE68A95F1F77C
S11303D000C00895CF92DF92EF92FF9269017A01F3
S11303E00E94D201C701B601FF90EF90DF90CF9039
S11303F00C94B601CF93DF93EA010E94D201CE019F
S1130400DF91CF910C94A2019C0180E0F901E80FE7
S1130410F11D9081992311F08F5FF8CF0895CF9348
S1130420DF93EC010E94040290E09E01280F391F23
S1130430FE01959587958C0F9D1FE817F90741F0EC
S1130440408121503109D9015C9151934C93F5CFEE
S1130450DF91CF9108958F929F92AF92BF92DF92D6
S1130460EF92FF920F931F93CF93DF93EA016115ED
S113047071058105910579F480E388831982DF9100
S1130480CF911F910F91FF90EF90DF90BF90AF90AD
S11304909F908F90089500E010E02AE0822E912C26
S11304A0A12CB12C3DE2D32E97FF1FC090958095CF
S11304B0709561957F4F8F4F9F4F7E01A5019401E9
S11304C00E94CB05605DF70161937F01B901CA0108
S11304D08F010C1B1D0B611571058105910571F7C9
S11304E0FE01E00FF11FD0820CC07E01E00EF11E70
S11304F0A50194010E94CB05605DF7016083B901F9
S1130500CA010F5F1F4F611571058105910561F6E1
S1130510FE01E00FF11F1082CE01DF91CF911F91F8
S11305200F91FF90EF90DF90BF90AF909F908F90CE
S11305300C940F02813031F060F0823051F083303E
S113054041F0089561E08AE00E94E60360E08BE0F8
S113055006C061E088E00E94E60360E089E00C9454
S1130560E603813031F060F0823051F0833041F0A5
S1130570089560E08AE00E94E60360E08BE006C034
S113058060E088E00E94E60360E089E00C94E60302
S113059082E00E94F7026AE070E00E949505CB01B8
S11305A008950E9449000E945800FDCF813041F017
S11305B028F0823039F43E9A3F9A04C03E9801C034
S11305C03E9A3F9886B1887F86B986B16770682B5A
S11305D066B9379A089597B1907E97B997B1892BE8
S11305E087B9369A3699FECF84B195B108950E94A1
S11305F0EB029C01A8E8B3E10E94EA05DC01CB010F
S11306002AE0B695A795979587952A95D1F70895E9
S1130610E7E7F0E040E081E090E05191342F369537
S113062036953695242F2770513009F443C020F0B5
S1130630523009F482C0C5C0323001F1333061F167
S1130640313071F05AB3BC0102C0660F771F2A958E
S1130650E2F79B01352F322B3ABB3BB320953DC0CB
S113066057B3BC0102C0660F771F2A95E2F79B01BE
S1130670352F322B37BB38B320953EC054B3BC0161
S113068002C0660F771F2A95E2F79B01352F322BA4
S113069034BB35B320953FC051B3BC0102C0660FD3
S11306A0771F2A95E2F79B01352F322B31BB32B3EA
S11306B0209541C0323011F1333081F1313079F07D
S11306C05AB3BC0102C0660F771F2A95E2F79B015B
S11306D02095352F32233ABB3BB3232342C057B373
S11306E0BC0102C0660F771F2A95E2F79B01209593
S11306F0352F322337BB38B3232343C054B3BC0153
S113070002C0660F771F2A95E2F79B012095352FCB
S1130710322334BB35B3232325BB53C051B3BC01AF
S113072002C0660F771F2A95E2F79B012095352FAB
S1130730322331BB32B3232343C0323021F133306F
S113074089F1313081F05AB3BC0102C0660F771FC2
S11307502A95E2F79B01362F309535233ABB3BB3FC
S1130760232B2BBB2EC057B3BC0102C0660F771FCF
S11307702A95E2F79B01362F3095352337BB38B3E2
S1130780232B28BB1EC054B3BC0102C0660F771FC5
S11307902A95E2F79B01362F3095352334BB35B3C8
S11307A0232BBACF51B3BC0102C0660F771F2A9521
S11307B0E2F79B01362F3095352331BB32B3232B1F
S11307C022BB4F5F403209F028CF0895982F9695A9
S11307D09695969587706130C1F5913091F028F027
S11307E09230D9F0933029F108954BB321E030E0F1
S11307F0B90102C0660F771F8A95E2F7CB01842BFB
S11308003AC048B321E030E0B90102C0660F771F57
S11308108A95E2F7CB01842B3CC045B321E030E05C
S1130820B90102C0660F771F8A95E2F7CB01842BCA
S11308303EC042B321E030E0B90102C0660F771F29
S11308408A95E2F7CB01842B40C061113FC09130FF
S1130850A1F028F09230F9F0933059F108954BB398
S113086021E030E0B90102C0660F771F8A95E2F7F4
S1130870CB01809584238BBB089548B321E030E0FD
S1130880B90102C0660F771F8A95E2F7CB01809504
S1130890842388BB089545B321E030E0B90102C048
S11308A0660F771F8A95E2F7CB018095842385BB79
S11308B0089542B321E030E0B90102C0660F771F0A
S11308C08A95E2F7CB018095842382BB0895813019
S11308D059F038F0823071F0833091F483B780643A
S11308E00BC083B78F7B02C083B7806483BF83B799
S11308F0877F05C083B78F7B83BF83B7886083BF3F
S113090083B7887F83BF83B7682B63BF0895823022
S113091051F0833059F081110FC083B78F7E83BFAC
S113092083B78F7D08C083B78F7E02C083B7806191
S113093083BF83B7806283BF08951F920F920FB65F
S11309400F9211242F933F934F935F936F937F9351
S11309508F939F93AF93BF93EF93FF93E091A20084
S1130960F091A300309709F00995FF91EF91BF91A1
S1130970AF919F918F917F916F915F914F913F9133
S11309802F910F900FBE0F901F9018951F920F92EA
S11309900FB60F9211242F933F934F935F936F934E
S11309A07F938F939F93AF93BF93EF93FF93E091C4
S11309B0A000F091A100309709F00995FF91EF9103
S11309C0BF91AF919F918F917F916F915F914F9163
S11309D03F912F910F900FBE0F901F9018951F926B
S11309E00F920FB60F9211242F933F934F935F935F
S11309F06F937F938F939F93AF93BF93EF93FF93E3
S1130A00E0919E00F0919F00309709F00995FF91C5
S1130A10EF91BF91AF919F918F917F916F915F9172
S1130A204F913F912F910F900FBE0F901F901895EB
S1130A301F920F920FB60F9211242F933F934F934F
S1130A405F936F937F938F939F93AF93BF93EF9332
S1130A50FF93E0919C00F0919D00309709F0099577
S1130A60FF91EF91BF91AF919F918F917F916F9182
S1130A705F914F913F912F910F900FBE0F901F9058
S1130A8018951F920F920FB60F9211242F933F9334
S1130A904F935F936F937F938F939F93AF93BF9382
S1130AA0EF93FF93E0916200F0916300E230F1056F
S1130AB009F00995FF91EF91BF91AF919F918F91AB
S1130AC07F916F915F914F913F912F910F900FBE46
S1130AD00F901F9018951F920F920FB60F9211242A
S1130AE02F933F934F935F936F937F938F939F9332
S1130AF0AF93BF93EF93FF93E0916000F091610097
S1130B00E230F10509F00995FF91EF91BF91AF91A2
S1130B109F918F917F916F915F914F913F912F9111
S1130B200F900FBE0F901F901895AA1BBB1B51E18D
S1130B3007C0AA1FBB1FA617B70710F0A61BB70B49
S1130B40881F991F5A95A9F780959095BC01CD01EE
S1130B500895A1E21A2EAA1BBB1BFD010DC0AA1FFA
S1130B60BB1FEE1FFF1FA217B307E407F50720F012
S1130B70A21BB30BE40BF50B661F771F881F991F8D
S1130B801A9469F760957095809590959B01AC01D6
S1130B90BD01CF010895052E97FB1EF400940E9419
S1130BA0E20557FD07D00E94A90507FC03D04EF4C7
S1130BB00C94E20550954095309521953F4F4F4F49
S1130BC05F4F089590958095709561957F4F8F4FF5
S1130BD09F4F0895A29FB001B39FC001A39F700DC2
S1130BE0811D1124911DB29F700D811D1124911D31
S1090BF00895F894FFCF04
S1130BF60200020054656D70203D0046616E20536C
S1130C0670656564203D00010001000000000100DC
S1130C1600000000000000020202020000000000C2
S10B0C260000000000000000C2
S9030000FC
