:100000000C942A000C9447000C9447000C94470071
:100010000C9447000C9447000C9455060C9403066E
:100020000C942C060C94DA050C9447000C944700B1
:100030000C9447000C9488060C9447000C94B2066C
:100040000C9447000C9447000C9447000C94470014
:100050000C94470011241FBECFE5D8E0DEBFCDBF12
:1000600011E0A0E6B0E0E0E6FEE002C005900D92EF
:10007000A43DB107D9F722E0A4EDB1E001C01D9283
:10008000AB30B207E1F70E94B1030C942E070C9439
:1000900000008093D401823061F018F4813031F097
:1000A0000895833049F0843051F0089561E084E18F
:1000B00008C061E085E105C061E086E102C061E061
:1000C00087E10C9494048093D401823061F018F499
:1000D000813031F00895833049F0843051F0089533
:1000E00060E084E108C060E085E105C060E086E191
:1000F00002C060E087E10C9494040E94B6030E9461
:10010000F9020E947E0662E083E00E94320562E00E
:1001100083E00E94680583E00E94A40582E00E94BB
:10012000BF0582E00E9452058FE19EE497BD86BD27
:1001300047E950E061E081E00E94550345EA50E064
:1001400061E082E00C945503FF920F931F93CF93CD
:10015000DF938BEE91E00E94DC0667ED71E08BEEA1
:1001600091E00E946401F82E03EA11E0C0E0D0E0C3
:10017000F8016081718187ED91E00E94BB018130BF
:10018000B9F40E942B0345EB50E062E082E00E944C
:100190005503CC0FDD1FCC0FDD1FCD55DE4FEA819F
:1001A000FB818F2DDF91CF911F910F91FF900994CB
:1001B0000E942B0344EC50E062E082E00E94550371
:1001C00021960C5F1F4FC430D10591F6DF91CF917E
:1001D0001F910F91FF9008950E942B0344ED50E072
:1001E00061E081E00E94550380E690E00E94CB012F
:1001F0002FEF89E698E1215080409040E1F700C060
:1002000000000E942B0344EE50E061E081E00E9478
:10021000550345EF50E061E082E00E9455030E94E3
:10022000F1018093D5019FEC980F9730C0F7909320
:10023000D60108950E942B0348E051E061E081E07F
:100240000E9455034AE151E061E082E00E945503BB
:100250004CE251E061E083E00E9455034FE351E03E
:1002600061E084E00E9455030E94F1019FEC980F29
:10027000983040F460ED680F609307028091D601DA
:100280000C947B03803381F743E551E061E081E02A
:10029000E9CFCF93C82F0E94EC000E941A01C093AF
:1002A000D401C23041F018F4C13029F00BC0C33082
:1002B00011F0C43039F4609107028091D601CF91DA
:1002C0000C947B03CF910895CF92DF92EF92FF922F
:1002D0000F931F93CF93DF93CDB7DEB764970FB61D
:1002E000F894DEBF0FBECDBFAC01CE0101966C010C
:1002F000FC017A0110E080E0D7012D917D012223DD
:10030000C1F0203209F41F5F90ED920F9A3050F443
:10031000982F990F392F330F330F930F9053822F4C
:10032000890F05C0133011F4108201C0208331966B
:10033000E3CF8B01FA019F01241B350B9191992387
:1003400039F0D6019D916D01D8019D938D01F3CFB8
:10035000FB01E20FF31F108264960FB6F894DEBF24
:100360000FBECDBFDF91CF911F910F91FF90EF9006
:10037000DF90CF900895DC01FB0180E09D919923EF
:1003800031F0219181E09217C9F380E00895208136
:100390002111F7CF0895CF9361E00E945F03C1E080
:1003A00041E06C2F82E00E944D032FE788E391E04B
:1003B000215080409040E1F700C0000040E26C2FE7
:1003C00082E00E944D032FE788E391E021508040B6
:1003D0009040E1F700C00000CF5FC43109F7CF9132
:1003E0000895DF92EF92FF920F931F93CF93DF93C5
:1003F00098E6E92E90E0F92ECCE0D8E560E08C2F6D
:100400000E94940400E010E080E1D82ED00E8D2DE3
:100410000E941505811115C0F701E00FF11FD08171
:100420008FE19EE40197F1F700C000008D2D0E943E
:1004300015058823D9F38FE19EE40197F1F700C0F9
:1004400000000F5F1F4F04301105F1F661E08C2FA3
:100450000E949404CF5F94E0E90EF11CC03171F664
:100460008D2FDF91CF911F910F91FF90EF90DF9033
:100470000895CF93C82F60E081E00E9494046C2F10
:10048000661F6627661F86E00E949404C6FB6627E7
:1004900060F985E00E949404C5FB662760F984E05A
:1004A0000E949404C4FB662760F983E00E949404D0
:1004B00061E082E00E9494048FEC97E00197F1F7ED
:1004C00000C0000060E082E00E9494048FEC97E09E
:1004D0000197F1F700C00000C3FB662760F986E0D2
:1004E0000E949404C2FB662760F985E00E94940490
:1004F000C1FB662760F984E00E9494046C2F617050
:1005000083E00E94940461E082E00E9494048FECF6
:1005100097E00197F1F700C0000060E082E00E94E0
:1005200094048FEC97E00197F1F700C00000CF91A1
:100530000895CF93C82F61E081E00E9494046C2F4E
:10054000661F6627661F86E00E949404C6FB662726
:1005500060F985E00E949404C5FB662760F984E099
:100560000E949404C4FB662760F983E00E9494040F
:1005700061E082E00E9494048FEC97E00197F1F72C
:1005800000C0000060E082E00E9494048FEC97E0DD
:100590000197F1F700C00000C3FB662760F986E011
:1005A0000E949404C2FB662760F985E00E949404CF
:1005B000C1FB662760F984E00E9494046C2F61708F
:1005C00083E00E94940461E082E00E9494048FEC36
:1005D00097E00197F1F700C0000060E082E00E9420
:1005E00094048FEC97E00197F1F700C00000CF91E1
:1005F00008952FE788E391E0215080409040E1F793
:1006000000C0000082E00E94390288E20E943902A4
:100610008CE00E94390281E00E9439028FEC97E061
:100620000197F1F700C0000086E00C9439020F93A7
:100630001F93CF938C01C0E0F801EC0FF11D808176
:10064000882321F00E949902CF5FF6CF1082CF91CC
:100650001F910F91089581E00E9439028FEC97E07D
:100660000197F1F700C000000895982F862F913070
:1006700011F481580BC0923011F4815407C09330AB
:1006800011F48D5603C0943039F48D520E94390212
:100690008AE68A95F1F700C00895CF93C42F0E948F
:1006A00035038C2FCF910C949902CF93DF93EA01FD
:1006B0000E943503CE01DF91CF910C9417030F9365
:1006C0001F93CF93DF938C01862F880F880F880F9D
:1006D000805C0E943902E801085F1F4F89910E94E7
:1006E0009902C017D107D1F780E8DF91CF911F9110
:1006F0000F910C94390290E070E0DB01AA0FBB1F50
:100700006A0F7B1FDB01A858BF4F2C91FC01EE0F35
:10071000FF1F8E0F9F1FFC01E85FFD4F2083119686
:100720008C911197818312968C9182832CBF818149
:1007300090E09BBD8ABD828190E099BD88BD0895FF
:10074000282F30E0A8EEB3E00E941F0724EB30E032
:1007500040E050E00E94FD0629513C4F3BBD2ABDC0
:1007600008950E947D000E94A400FDCFE3EBF1E01C
:1007700040E081E090E05191342F369536953695E2
:10078000242F2770513009F443C020F0523009F46F
:1007900082C0C5C0323001F1333061F1313071F0C7
:1007A0005AB3BC0102C0660F771F2A95E2F79B017E
:1007B000352F322B3ABB3BB320953DC057B3BC011C
:1007C00002C0660F771F2A95E2F79B01352F322B67
:1007D00037BB38B320953EC054B3BC0102C0660F8E
:1007E000771F2A95E2F79B01352F322B34BB35B3A7
:1007F00020953FC051B3BC0102C0660F771F2A95F8
:10080000E2F79B01352F322B31BB32B3209541C02B
:10081000323011F1333081F1313079F05AB3BC010B
:1008200002C0660F771F2A95E2F79B012095352FAE
:1008300032233ABB3BB3232342C057B3BC0102C0AF
:10084000660F771F2A95E2F79B012095352F3223FB
:1008500037BB38B3232343C054B3BC0102C0660F77
:10086000771F2A95E2F79B012095352F322334BB61
:1008700035B3232325BB53C051B3BC0102C0660F5F
:10088000771F2A95E2F79B012095352F322331BB44
:1008900032B3232343C0323021F1333089F1313078
:1008A00081F05AB3BC0102C0660F771F2A95E2F7A8
:1008B0009B01362F309535233ABB3BB3232B2BBB03
:1008C0002EC057B3BC0102C0660F771F2A95E2F70E
:1008D0009B01362F3095352337BB38B3232B28BBEC
:1008E0001EC054B3BC0102C0660F771F2A95E2F701
:1008F0009B01362F3095352334BB35B3232BBACF2C
:1009000051B3BC0102C0660F771F2A95E2F79B0125
:10091000362F3095352331BB32B3232B22BB4F5FAB
:10092000403209F028CF0895982F96959695969580
:1009300087706130C1F5913091F028F09230D9F094
:10094000933029F108954BB321E030E0B90102C0A2
:10095000660F771F8A95E2F7CB01842B3AC048B324
:1009600021E030E0B90102C0660F771F8A95E2F7F7
:10097000CB01842B3CC045B321E030E0B90102C07B
:10098000660F771F8A95E2F7CB01842B3EC042B3F6
:1009900021E030E0B90102C0660F771F8A95E2F7C7
:1009A000CB01842B40C061113FC09130A1F028F0F1
:1009B0009230F9F0933059F108954BB321E030E0D3
:1009C000B90102C0660F771F8A95E2F7CB018095C7
:1009D00084238BBB089548B321E030E0B90102C005
:1009E000660F771F8A95E2F7CB018095842388BB39
:1009F000089545B321E030E0B90102C0660F771FCA
:100A00008A95E2F7CB018095842385BB089542B394
:100A100021E030E0B90102C0660F771F8A95E2F746
:100A2000CB018095842382BB0895282F277086955B
:100A300086958695813049F030F0823041F08330E0
:100A400079F480B305C089B303C086B301C083B312
:100A500090E002C0959587952A95E2F7982F9170BE
:100A6000892F0895813059F038F0823071F0833049
:100A700091F483B780640BC083B78F7B02C083B7C8
:100A8000806483BF83B7877F05C083B78F7B83BFB5
:100A900083B7886083BF83B7887F83BF83B7682BA2
:100AA00063BF0895823051F0833059F081110FC037
:100AB00083B78F7E83BF83B78F7D08C083B78F7E58
:100AC00002C083B7806183BF83B7806283BF08950C
:100AD0008230D9F050F4882379F0813071F58FB5E8
:100AE0008E7F8FBD8FB58D7F21C08330D1F0843054
:100AF00021F58FB5816017C08FB58E7F8FBD8FB503
:100B00008D7F8FBD8EB5877F08C08FB58E7F8FBDDF
:100B10008FB58D7F8FBD8EB588608EBD8EB58F7E73
:100B20000BC08FB58E7F8FBD8FB582608FBD8EB5A8
:100B300088608EBD8EB580618EBD8EB5887F8EBD7E
:100B40008EB5682B6EBD0895813049F028F0823053
:100B500061F0833069F008958FB58F7B02C08FB547
:100B600080648FBD8FB58F7708C08FB58F7B02C033
:100B70008FB580648FBD8FB580688FBD089581303B
:100B800049F028F0823061F0833069F008958FB524
:100B90008F7E02C08FB580618FBD8FB58F7D08C0FD
:100BA0008FB58F7E02C08FB580618FBD8FB580629B
:100BB0008FBD08951F920F920FB60F9211242F939D
:100BC0003F934F935F936F937F938F939F93AF93D5
:100BD000BF93EF93FF93E0910502F09106023097E7
:100BE00009F00995FF91EF91BF91AF919F918F917E
:100BF0007F916F915F914F913F912F910F900FBE19
:100C00000F901F9018951F920F920FB60F921124FC
:100C10002F933F934F935F936F937F938F939F9304
:100C2000AF93BF93EF93FF93E0910302F09104021F
:100C3000309709F00995FF91EF91BF91AF919F9186
:100C40008F917F916F915F914F913F912F910F9075
:100C50000FBE0F901F9018951F920F920FB60F9214
:100C600011242F933F934F935F936F937F938F93B1
:100C70009F93AF93BF93EF93FF93E0910102F091A5
:100C80000202309709F00995FF91EF91BF91AF9162
:100C90009F918F917F916F915F914F913F912F9194
:100CA0000F900FBE0F901F9018951F920F920FB6C6
:100CB0000F9211242F933F934F935F936F937F93E2
:100CC0008F939F93AF93BF93EF93FF93E091FF01B7
:100CD000F0910002309709F00995FF91EF91BF91D3
:100CE000AF919F918F917F916F915F914F913F91C4
:100CF0002F910F900FBE0F901F90189583E389B925
:100D00005998539A549A08955F9BFECF8CB10895D9
:100D10001F920F920FB60F9211242F933F934F9370
:100D20005F936F937F938F939F93AF93BF93EF9353
:100D3000FF93E0919500F0919600E230F10509F003
:100D40000995FF91EF91BF91AF919F918F917F9105
:100D50006F915F914F913F912F910F900FBE0F9028
:100D60001F9018951F920F920FB60F9211242F9378
:100D70003F934F935F936F937F938F939F93AF9323
:100D8000BF93EF93FF93E0919300F0919400E230D2
:100D9000F10509F00995FF91EF91BF91AF919F91F6
:100DA0008F917F916F915F914F913F912F910F9014
:100DB0000FBE0F901F901895EF92FF920F931F9305
:100DC000CF938C010E948406F8018083C0E0F80173
:100DD000EC0FF11D80818D3049F0CF5F7801EC0E72
:100DE000F11C0E948406F7018083F1CF1082CF911D
:100DF0001F910F91FF90EF900895A1E21A2EAA1B68
:100E0000BB1BFD010DC0AA1FBB1FEE1FFF1FA217BA
:100E1000B307E407F50720F0A21BB30BE40BF50BB7
:100E2000661F771F881F991F1A9469F76095709540
:100E3000809590959B01AC01BD01CF010895A29FC3
:100E4000B001B39FC001A39F700D811D1124911D9E
:100E5000B29F700D811D1124911D0895F894FFCF4C
:100E600010180C060C1810003738392F3435362A74
:100E70003132332D43303D2BFEFFFF000000FE00DA
:100E80000000FF000000FFFEFF0000FFFFFE00FF6C
:100E9000FE80800200020020202020202057656C68
:100EA000636F6D65002020202020536D61727420D7
:100EB000486F6D650009202056616C6964204461AB
:100EC000746121002020496E76616C696420446160
:100ED0007461210020524742204C69676874205396
:100EE000686F7700202020506C6561736520536522
:100EF0006C65637400204C45442066726F6D20520F
:100F00004742204C69737400312E2057484954459C
:100F100020322E20424C41434B00332E2052454478
:100F2000202020342E20475245454E00352E2042A9
:100F30004C55452020362E2059454C4C4F570037F4
:100F40002E204359414E2020382E204D4147454EFA
:100F500054410057726F6E6720456E746572656408
:100F600020636F6C6F7200526F6F6D204C69676801
:100F700074204F4E00526F6F6D204C69676874206B
:100F80004F46460053657420536572766F20416E5C
:100F9000676C6500526F6F6D204C696768742052F2
:100FA00047420067014900750163008401A0039472
:100FB00001490101000000000000010200000000E2
:100FC0000000000202020200000000010002020014
:040FD000000100001C
:00000001FF
